:100000000C94A9080C94F12B0C94CA2B0C94D108D5
:100010000C94D1080C94D1080C94702C0C94D10839
:100020000C94D1080C94D1080C94D1080C94D108EC
:100030000C94D1080C94D1080C94D1080C94D108DC
:100040000C94802B0C94D1080C943E2C0C94182CFE
:100050000C94D1080C94D1080C94D1080C94D108BC
:100060000C94872C0C94D108203A2000000000004A
:100070000000000000000000000000000000000080
:100080000000000000000000000000000000000070
:1000900000000000535441525400000000000000D2
:1000A0000000000000000000000000000000000050
:1000B0000000000000000000000000000000000040
:1000C00053455454494E47530000000000000000BF
:1000D0000000000000000000000000000000000020
:1000E00000000000000000000000000043524544F2
:1000F0004954530000000000000000000000000010
:1001000000000000000000000000000000000000EF
:1001100000000000000000005265736574000000DC
:1001200000000000000000000000000000000000CF
:1001300000000000000000000000000000000000BF
:10014000000000004261742E204C6F7721000000F7
:10015000000000000000000000000000000000009F
:10016000000000000000000000000000000000008F
:1001700042617474657279204C6F77000000000052
:10018000000000000000000000000000000000006F
:1001900000000000000000000000000044697370CF
:1001A0006C617920696E697469616C697A617469DE
:1001B0006F6E206661696C65642E20526574727979
:1001C000696E672E2E2E0000535344313330362093
:1001D000626567696E206661696C65640000000095
:1001E000000000000000000000000000000000000F
:1001F00000000000536C656570696E672E2E2E003E
:1002000000000000000000000000000000000000EE
:1002100000000000000000000000000000000000DE
:1002200053756E646179000000000000000000005A
:1002300000000000000000000000000000000000BE
:100240000000000000000000000000004D6F6E6420
:1002500061790000000000000000000000000000C4
:10026000000000000000000000000000000000008E
:10027000000000000000000054756573646179009F
:10028000000000000000000000000000000000006E
:10029000000000000000000000000000000000005E
:1002A000000000005765646E6573646179000000AA
:1002B000000000000000000000000000000000003E
:1002C000000000000000000000000000000000002E
:1002D00054687572736461790000000000000000CA
:1002E000000000000000000000000000000000000E
:1002F0000000000000000000000000004672696479
:100300006179000000000000000000000000000013
:1003100000000000000000000000000000000000DD
:100320000000000000000000536174757264617980
:1003300000000000000000000000000000000000BD
:1003400000000000000000000000000000000000AD
:10035000000000002D2D2D2D204D61676963205375
:100360007175617265202D2D2D2D0000000000009B
:10037000000000000000000000000000000000007D
:100380002D2D2D2D2D2D2D2D2D2D2D2D2D2D2D2D9D
:100390002D2D2D2D2D2D000000000000000000004F
:1003A0000000000000000000000000007620323550
:1003B0002E30362E3031000000000000000000001A
:1003C000000000000000000000000000000000002D
:1003D000000000000000000053657474696E6773CC
:1003E000000000000000000000000000000000000D
:1003F00000000000000000000000000000000000FD
:100400000000000044696D2053637265656E000052
:1004100000000000000000000000000000000000DC
:1004200000000000000000000000000000000000CC
:100430003E44696D2053637265656E0000000000E4
:1004400000000000000000000000000000000000AC
:100450000000000000000000000000004C65667411
:10046000796D6F646500000000000000000000006E
:10047000000000000000000000000000000000007C
:1004800000000000000000003E4C656674796D6F4E
:100490006465000000000000000000000000000093
:1004A000000000000000000000000000000000004C
:1004B000000000007365742053717561726500005F
:1004C000000000000000000000000000000000002C
:1004D000000000000000000000000000000000001C
:1004E0003478342053756D000000000000000000D7
:1004F00000000000000000000000000000000000FC
:100500000000000000000000000000003E203478E1
:10051000342053756D000000000000000000000052
:1005200000000000000000000000000000000000CB
:10053000000000000000000034783420446174653D
:1005400000000000000000000000000000000000AB
:10055000000000000000000000000000000000009B
:10056000000000003E2034783420446174650000AF
:10057000000000000000000000000000000000007B
:10058000000000000000000000000000000000006B
:10059000456E746572207468652073756D00000087
:1005A000000000000000000000000000000000004B
:1005B000000000000000000000000000456E7465AF
:1005C000722074686520646174650000000000009A
:1005D000000000000000000000000000000000001B
:1005E0000000000000000000526F770000000000D3
:1005F00000000000000000000000000000000000FB
:1006000000000000000000000000000000000000EA
:1006100000000000436F6C000000000000000000BC
:1006200000000000000000000000000000000000CA
:1006300000000000000000000000000000000000BA
:1006400044696167205C00000000000000000000B9
:10065000000000000000000000000000000000009A
:100660000000000000000000000000004469616715
:10067000202F00000000000000000000000000002B
:10068000000000000000000000000000000000006A
:100690000000000000000000437265617465642082
:1006A00062793A0000000000000000000000000035
:1006B000000000000000000000000000000000003A
:1006C000000000004368616E6E696E67204D6F6FB9
:1006D00073000000000000000000000000000000A7
:1006E000000000000000000000000000000000000A
:1006F00054696D20486F6C7A68617573656E00008F
:1007000000000000000000000000000000000000E9
:1007100000000000000000000000000000000000D9
:10072000003E5B4F5B3E3E6B4F6B3E1C3E7C3E1C77
:10073000183C7E3C181C577D571C1C5E7F5E1C00BD
:10074000183C1800FFE7C3E7FF0018241800FFE774
:10075000DBE7FF30483A060E2629792926407F0537
:100760000507407F05253F5A3CE73C5A7F3E1C1C4D
:1007700008081C1C3E7F14227F22145F5F005F5F0D
:1007800006097F017F006689956A606060606094F9
:10079000A2FFA29408047E040810207E20100808FE
:1007A0002A1C08081C2A08081E101010100C1E0C09
:1007B0001E0C30383E3830060E3E0E06000000009B
:1007C0000000005F00000007000700147F147F1482
:1007D000242A7F2A122313086462364956205000C7
:1007E00008070300001C2241000041221C002A1CB3
:1007F0007F1C2A08083E080800807030000808089E
:100800000808000060600020100804023E514945BD
:100810003E00427F400072494949462141494D33DB
:100820001814127F1027454545393C4A4949314142
:10083000211109073649494936464949291E000010
:100840001400000040340000000814224114141465
:100850001414004122140802015909063E415D5951
:100860004E7C1211127C7F494949363E414141225A
:100870007F4141413E7F494949417F090909013E84
:10088000414151737F0808087F00417F41002040AB
:10089000413F017F081422417F404040407F021CBD
:1008A000027F7F0408107F3E4141413E7F090909D4
:1008B000063E4151215E7F091929462649494932A0
:1008C00003017F01033F4040403F1F2040201F3F66
:1008D0004038403F631408146303047804036159EB
:1008E000494D43007F41414102040810200041412D
:1008F000417F0402010204404040404000030708D9
:100900000020545478407F284444383844444428D4
:10091000384444287F385454541800087E0902187B
:10092000A4A49C787F0804047800447D4000204003
:10093000403D007F1028440000417F40007C047847
:1009400004787C080404783844444438FC1824248F
:100950001818242418FC7C0804040848545454240F
:1009600004043F44243C4040207C1C2040201C3C8C
:100970004030403C44281028444C9090907C446483
:10098000544C440008364100000077000000413616
:10099000080002010204023C2623263C1EA1A1619C
:1009A000123A4040207A38545455592155557941CE
:1009B0002254547842215554784020545579400CA3
:1009C0001E52721239555555593954545459395586
:1009D0005454580000457C410002457D42000145C9
:1009E0007C407D1211127DF0282528F07C5455455D
:1009F000002054547C547C0A097F493249494932C9
:100A00003A4444443A324A4848303A4141217A3AD9
:100A100042402078009DA0A07D3D4242423D3D40A5
:100A200040403D3C24FF2424487E4943662B2FFC54
:100A30002F2BFF0929F620C0887E09032054547902
:100A4000410000447D413048484A32384040227AD3
:100A5000007A0A0A727D0D19317D2629292F282650
:100A60002929292630484D40203808080808080858
:100A70000808382F10C8ACBA2F102834FA00007BB1
:100A8000000008142A142222142A140855005500C4
:100A900055AA55AA55AAFF55FF55FF000000FF00B3
:100AA000101010FF00141414FF001010FF00FF10AE
:100AB00010F010F0141414FC001414F700FF0000E0
:100AC000FF00FF1414F404FC141417101F10101F5F
:100AD000101F1414141F00101010F0000000001F4D
:100AE000101010101F10101010F010000000FF1058
:100AF0001010101010101010FF10000000FF140054
:100B000000FF00FF00001F10170000FC04F4141485
:100B10001710171414F404F40000FF00F714141451
:100B200014141414F700F7141414171410101F10D1
:100B30001F141414F4141010F010F000001F101FF4
:100B40000000001F14000000FC140000F010F01062
:100B500010FF10FF141414FF141010101F000000D9
:100B600000F010FFFFFFFFFFF0F0F0F0F0FFFFFFDD
:100B70000000000000FFFF0F0F0F0F0F3844443834
:100B800044FC4A4A4A347E02020606027E027E0283
:100B900063554941633844443C04407E201E20068E
:100BA000027E020299A5E7A5991C2A492A1C4C72CB
:100BB00001724C304A4D4D303048784830BC625A52
:100BC000463D3E494949007E0101017E2A2A2A2AE2
:100BD0002A44445F444440514A444040444A5140BE
:100BE0000000FF0103E080FF000008086B6B08367F
:100BF00012362436060F090F0600001818000000F0
:100C00001010003040FF0101001F01011E00191DDE
:100C10001712003C3C3C3C00000000002200FF2179
:100C200000000103070F1F3F7F0080C0E0F0F8FCC9
:100C3000FEDB40A4A62EAF2000A1C8D300408DAE9D
:100C4000D580A80000600000000000000000000047
:100C500000000000E00000000000000000000000B4
:100C6000000001E0000000000000000000000000A3
:100C70000001F00000000000000000000000000083
:100C800003F000000000000000000000000000076A
:100C9000F00000000000000000000000000007F865
:100CA000000000000000000000000000000FF8003D
:100CB000000003C0007E000001E0007F0FF800008C
:100CC0000003C000FE000001E000FFEFF80000009C
:100CD00003C000FE000001E000FFFFF80000000379
:100CE000C000F00000000F007FFE7FC0000003C0C6
:100CF00000F00000000F003FFE7FF83FF1FBCFFC4B
:100D0000FEF3BC3DEFE01FFE7FFF7FFBFFDFFEFE3B
:100D1000FFBC3DEFE01FC6FFFF7FFBFFDFFEFEFFD6
:100D2000BC3DEFE00FE3C7FE787BC3DE1EF0FFBCE7
:100D30003DEF0007FF87FC787BC3DE1EF0F83C3DEB
:100D4000EF0001FFFFF0007BC3C01EF0F03C3DEF61
:100D50000001F37FE03FFBC3CFFEF0F03C3DEF002E
:100D600003E33F807FFBC3DFFEF0F03C3DEF000775
:100D7000E73C00787BC3DE1EF0F03C3DEF0007FF50
:100D8000BE00787BC3DE1EF0F03C3DEF0007FFFEA7
:100D900000787BC3DE1EF0F03C3DEF000FFFFE004D
:100DA0007FFBFFDFFEF0F03FFDEFE00FFFFF007F76
:100DB000FBFFDFFEF0F03FFDEFE00FF9FF003E79B3
:100DC000F9CF9EF0F01F3DE7E01FF1FF00000000AB
:100DD00000000000000000001F80FF007FFFFFFFF9
:100DE000FFFFFFFFFFFFE01C007F007FFFFFFFFE14
:100DF000B46D888D18E000001F007FFFFFFFFE9597
:100E0000AD7DB577E000000F007FFFFFFFFEA5ADD1
:100E10009D8D19E0000006007FFFFFFFFEB5ADEDE0
:100E2000B57EE0000000000001800000000000002E
:100E3000000000038000000000000000000007C068
:100E400000000000000000000007C00000000000DB
:100E5000000000000FC00000000000000000001FA4
:100E6000E00000000000000000001FE000000000A3
:100E700000000000003FE000000000000000000053
:100E80003FF00000000000000000007FF0000000C4
:100E9000000000001FF87FF0000000000000003F8D
:100EA000FE7FF0000000000000003FFF7FF0000028
:100EB00000000000001FFFFBE00000000000000039
:100EC0000FFFF9FFC00000000000000FFFF9FFF85E
:100ED00000000000000007FFF1FFFF00000000001D
:100EE0000003FC73FFFF80000000000001FE3FFFD5
:100EF000FF80000000000000FF1E0FFF0000000048
:100F00000000007FFE1FFC000000000000003FFF0B
:100F1000FFF8000000000000000FDFFFE00000000D
:100F2000000000001F19FFC0000000000000003F8B
:100F30003CFF00000000000000007E7CF800000084
:100F400000000000007FFE7C0000000000000000A8
:100F5000FFFFFC0000000000000000FFFFFE00009B
:100F6000000000000000FFFFFE0000000000000085
:100F700001FFEFFE0000000000000001FFCFFE00B7
:100F800000000000000003FF07FE0000000000005A
:100F90000003FC07FE0000000000000003F003FE59
:100FA00000000000000000018000FE0000000000C2
:100FB00000000000007E00000000000000000000B3
:100FC0003E000000000000000000000C00000000D7
:100FD0000000078000FC000003C000000007800143
:100FE000FC000003C0000000078001FC000003C0FB
:100FF000000000078001E00000001E0000000780E4
:1010000001E00000001E007FE3F79FF9FDE7787B19
:10101000DFC0FFF7FFBFFDFDFF787BDFC0FFF7FFFD
:10102000BFFDFDFF787BDFC0F0F787BC3DE1FF78B7
:101030007BDE00F0F787BC3DE1F0787BDE0000F757
:1010400087803DE1E0787BDE007FF7879FFDE1E070
:10105000787BDE00FFF787BFFDE1E0787BDE00F004
:10106000F787BC3DE1E0787BDE00F0F787BC3DE12F
:10107000E0787BDE00F0F787BC3DE1E0787BDE00C6
:10108000FFF7FFBFFDE1E07FFBDFC0FFF7FFBFFD24
:10109000E1E07FFBDFC07CF3F39F3DE1E03E7BCFEF
:1010A000C00000000000000000000000FFFFFFFF84
:1010B000FFFFFFFFFFFFC0FFFFFFFFFD68DB111A0F
:1010C00031C0FFFFFFFFFD2B5AFB6AEFC0FFFFFFA0
:1010D000FFFD4B5B3B1A33C0FFFFFFFFFD6B5BDB8C
:1010E0006AFDC000000000240027002A0000000064
:1010F00000250028002B0000000000230026002906
:1011000000040404040404040402020202020203B0
:1011100003030303030102040810204080010204BA
:10112000081020010204081020000000080002013D
:10113000000003040700000000000000000906038F
:1011400010040F0A050E01080B070C0D0200A62D56
:10115000FE3211241FBECFEFD8E0DEBFCDBF24E0AA
:10116000A6ECB1E001C01D92A234B207E1F711E094
:10117000A0E0B1E0E8E8F1E702C005900D92A63CDE
:10118000B107D9F718E0C8EAD8E004C02197FE01FA
:101190000E941234C73AD107C9F70E947D2F0C94E0
:1011A000B7380C940000089508950895833081F0B5
:1011B00028F4813099F08230A9F008958730A9F0A1
:1011C0008830C9F08430B1F4809180008F7D03C0F5
:1011D000809180008F7780938000089584B58F7709
:1011E00084BD089584B58F7DFBCF8091B0008F774B
:1011F0008093B00008958091B0008F7DF9CFCF9398
:10120000DF93282F30E0F901E75DFE4E8491F9016C
:10121000EB5EFE4ED491F901EF5FFE4EC491CC23FC
:10122000A1F081110E94D608EC2FF0E0EE0FFF1F15
:10123000E950FF4EA591B491EC91ED2381E090E04F
:1012400009F480E0DF91CF91089580E090E0FACF3B
:101250001F93CF93DF93282F30E0F901E75DFE4E17
:101260008491F901EB5EFE4ED491F901EF5FFE4EE1
:10127000C491CC23A9F0162F81110E94D608EC2F1F
:10128000F0E0EE0FFF1FE351FF4EA591B4918FB731
:10129000F894EC91111108C0D095DE23DC938FBF38
:1012A000DF91CF911F910895DE2BF8CFCF93DF937D
:1012B00090E0FC01EB5EFE4E24918F5F9E4EFC01A0
:1012C00084918823D1F090E0880F991FFC01ED51A3
:1012D000FF4EA591B491FC01E351FF4EC591D4910D
:1012E000623071F49FB7F8943C91822F80958323EC
:1012F0008C93E8812E2B28839FBFDF91CF91089597
:101300008FB7F894EC912E2B2C938FBFF6CF3FB76D
:10131000F8948091B2029091B302A091B402B0917E
:10132000B50226B5A89B05C02F3F19F00196A11D57
:10133000B11D3FBFBA2FA92F982F8827BC01CD011F
:10134000620F711D811D911D42E0660F771F881F7E
:10135000991F4A95D1F708958F929F92AF92BF92AD
:10136000CF92DF92EF92FF924B015C010E948709BE
:101370006B017C010E9487096C197D098E099F0908
:10138000683E734081059105A8F321E0821A910817
:10139000A108B10888EEC80E83E0D81EE11CF11C3C
:1013A00081149104A104B10429F7FF90EF90DF901C
:1013B000CF90BF90AF909F908F9008952FB7F894E3
:1013C0006091AE027091AF028091B0029091B10233
:1013D0002FBF0895CF92DF92EF92FF920E94DE0915
:1013E0006B017C010E94DE096C197D098E099F0941
:1013F000683B7B408105910560F482E00E94FF0814
:10140000019769F06AE070E080E090E00E94AC092A
:10141000E9CF81E0FF90EF90DF90CF90089580E0DA
:10142000F9CF08950895DB0114964D915C911597BD
:101430006D917C91DC01ED91FC910280F381E02DB6
:101440000994AF92BF92CF92DF92EF92FF920F93E7
:101450001F93CF93DF936C017B018B01040F151F4A
:10146000EB015E01AE18BF08C017D10759F06991B2
:10147000D601ED91FC910190F081E02DC601099516
:10148000892B79F7C501DF91CF911F910F91FF90C3
:10149000EF90DF90CF90BF90AF900895FC01538DF7
:1014A000448D252F30E0842F90E0821B930B54173E
:1014B00010F0CF96089501970895FC01918D828DCB
:1014C000981761F0A28DAE0FBF2FB11D5D968C9164
:1014D000928D9F5F9F73928F90E008958FEF9FEFA3
:1014E0000895FC01918D828D981731F0828DE80F5F
:1014F000F11D858D90E008958FEF9FEF0895FC0119
:10150000918D228D892F90E0805C9F4F821B9109E5
:101510008F739927089587EB92E00E947F0A21E05C
:10152000892B09F420E0822F089580E090E0892B38
:1015300029F00E948B0A81110C9400000895FC018F
:10154000A48DA80FB92FB11DA35ABF4F2C91848D24
:1015500090E001968F739927848FA689B7892C9381
:10156000A089B1898C91837080648C93938D848DD4
:10157000981306C00288F389E02D80818F7D8083D7
:101580000895EF92FF920F931F93CF93DF93EC0197
:1015900081E0888F9B8D8C8D98131AC0E889F9891A
:1015A000808185FF15C09FB7F894EE89FF8960831D
:1015B000E889F98980818370806480839FBF81E09E
:1015C00090E0DF91CF911F910F91FF90EF900895E0
:1015D000F62E0B8D10E00F5F1F4F0F731127E02EBB
:1015E0008C8D8E110CC00FB607FCFACFE889F989F3
:1015F000808185FFF5CFCE010E949F0AF1CFEB8D50
:10160000EC0FFD2FF11DE35AFF4FF0829FB7F894C6
:101610000B8FEA89FB8980818062CFCFCF93DF93E4
:10162000EC01888D8823B9F0AA89BB89E889F989FA
:101630008C9185FD03C0808186FD0DC00FB607FC2F
:10164000F7CF8C9185FFF2CF808185FFEDCFCE0162
:101650000E949F0AE9CFDF91CF910895411551056E
:1016600029F4EAE7F0E080818F7780836A307105A2
:10167000B9F0CB01880F991F880F991F807267708E
:101680006860682B88E10FB6F894A8958093600095
:101690000FBE60936000E0E6F0E0808180648083AC
:1016A000232BD9F483B7817F846083BFF89483B7F9
:1016B000816083BF85B7806685BF8F7D85BF789445
:1016C000889583B78E7F83BF7894452B29F4EAE70A
:1016D000F0E0808180688083089583B7817F846093
:1016E00083BFF89483B7816083BF7894889583B76C
:1016F0008E7F83BF7894E9CFEF92FF920F931F9371
:10170000CF93DF93EC01EC80FD806E157F050CF02C
:1017100070C057FF04C0240F351F50E040E08E8199
:101720009F81FA01E20FF31F8E179F071CF49C01A3
:10173000241B350B121613060CF05BC0922F842F5E
:101740008695869586958E9DD0018F9DB00D11242E
:101750006A0F7B1FAF8DB8A1A60FB71F477049F165
:1017600088E0841B482F682F70E0FB01E75DF34F92
:10177000E491281708F063C0621B71092FEF30E075
:1017800002C0359527956A95E2F7E22301301105ED
:1017900039F0B0F10230110561F58C91E82702C0F3
:1017A0008C91E82BEC93941720F12C813D81A20FB2
:1017B000B31FE92FE41BE83078F00230110521F562
:1017C0008E2F9C9190959C932C813D81A20FB31FED
:1017D00088508830B0F7E770EE2359F0F0E0EF5D05
:1017E000F34FE49101301105F9F010F102301105C9
:1017F00019F1DF91CF911F910F91FF90EF90089514
:10180000E0958C91E823CECF81E00115110509F414
:1018100080E081959E2F8C932C813D81A20FB31F78
:1018200098509830C0F7D7CF8C91E82BEC93E1CF4C
:10183000E0958C91E823FACF8C91E827F7CF01301F
:10184000110509F4ADCFE0F20230110509F4A5CF7E
:10185000AE0DBF1DAECF0F931F93CF93DF9377FFD6
:1018600004C0260F371F70E060E0DC011496CD91B4
:10187000DC91FB01E20FF31FCE17DF071CF49E0182
:10188000261B370B121613064CF5FA0157FD379637
:10189000A3E0F595E795AA95E1F7EC9FD001ED9FC0
:1018A000B00DFC9FB00D11246A0F7B1FDC015F9609
:1018B000ED91FC91E60FF71F4770552781E090E00E
:1018C00001C0880F4A95EAF7482F0130110559F0F9
:1018D000A8F02E0F3F1F02301105E1F0DF91CF91EC
:1018E0001F910F9108952E0F3F1FE217F307B1F3D9
:1018F0008191DF011197842B8C93F7CF80952E0F68
:101900003F1FE217F30751F39191DF0111979823DD
:101910009C93F7CFE217F30709F38191DF01119749
:1019200084278C93F7CF0F931F93FA01DC0156960F
:101930004C9156974230E9F04330A1F1413061F5C6
:1019400014964D915C91DA01AE1BBF0BFD01E21BB9
:10195000F30B77FD0BC0DC0116964D915C9164177B
:10196000750724F4AB01BF010E942B0C1F910F914E
:10197000089514964D915C91DA01A61BB70BBD0139
:1019800061507109DC0116964D915C91DA01AE1B34
:10199000BF0BFD01E21BF30B77FDE8CFAF010E9407
:1019A0007C0BE4CF16964D915C91DA01A61BB70B28
:1019B000BD0161507109CDCF0F931F93FA01DC0176
:1019C00056964C9156974230A9F0433091F14130F0
:1019D00019F514964D915C91DA01AE1BBF0BFD0118
:1019E0003197F7FD04C0AB01BF010E947C0B1F9132
:1019F0000F91089514964D915C91DA01A61BB70BD7
:101A0000BD01DC0116964D915C91DA01AE1BBF0B56
:101A1000FD013197621B730BF7FDE9CFDC011696D0
:101A20004D915C91E417F50714F7AF010E942B0C60
:101A3000DECF16964D915C91DA01A61BB70BBD0166
:101A4000621B730BCECFFC0177FD64C0808591854E
:101A5000681779070CF05EC057FD5CC082859385DE
:101A6000481759070CF056C086898230B1F0833090
:101A700029F1813041F484819581841B950BAB0160
:101A8000BC01615071092130310509F108F443C0EE
:101A90002230310509F463C0089584819581DC0109
:101AA000A61BB70BBD016150710986819781DC01CE
:101AB000A41BB50BAD0141505109E5CF868197813B
:101AC000861B970BBA01AC0141505109DCCFCA010A
:101AD00057FD0796A3E095958795AA95E1F7A48110
:101AE000B5818A9F90018B9F300D9A9F300D1124F4
:101AF000620F731F078CF0A1E02DE60FF71F4770F0
:101B0000552721E030E001C0220F4A95EAF7808195
:101B1000822B80830895CA0157FD079633E095957F
:101B200087953A95E1F7A481B5818A9F90018B9FB3
:101B3000300D9A9F300D1124620F731F078CF0A196
:101B4000E02DE60FF71F4770552781E090E001C0B8
:101B5000880F4A95EAF7809590818923DACFCA01E8
:101B600057FD079623E0959587952A95E1F7A4817F
:101B7000B5818A9F90018B9F300D9A9F300D112463
:101B8000620F731F078CF0A1E02DE60FF71F47705F
:101B9000552721E030E001C0220F4A95EAF7808105
:101BA0008227B7CF20915802260F3327331F2132C7
:101BB0003105ECF420917C02FC0190E080E02430BF
:101BC00069F082E00895A09158022191AC01485C2F
:101BD0005D4FA40FB52FB11D2C930196861798F376
:101BE00080915802680F6093580280E0089581E068
:101BF00008959B01AC0160E074E284EF90E00E94E4
:101C0000F0332051310941095109569547953795CF
:101C100027952093B800089510927C0281E080936C
:101C20007E0210927D0261E082E10E94280961E05B
:101C300083E10E942809E9EBF0E080818E7F8083B8
:101C400080818D7F808388E48093B80085E48093D1
:101C5000BC000895CF93DF9391E0909337028823DF
:101C6000B9F0C091B800D091BA008091BC008A7BD5
:101C70008093BC0060E082E10E94280960E083E17B
:101C80000E9428090E940C0ED093BA00C093B8009D
:101C9000DF91CF910895E091AC028091AB02E817FB
:101CA00030F4F0E0EE5EFD4F808190E008958FEF1C
:101CB0009FEF08959091AC028091AB022FEF3FEF20
:101CC000981748F4E92FF0E0EE5EFD4F208130E0F8
:101CD0009F5F9093AC02C90108958091AB029091EF
:101CE000AC02891B990B0895CF92DF92EF92FF927D
:101CF0000F931F93CF93DF937C01CB018A01209137
:101D0000A302222389F0EB016B01C40ED51ECC1572
:101D1000DD0569F06991D701ED91FC910190F081A9
:101D2000E02DC7010995F3CF642F0E94D20DC801A1
:101D3000DF91CF911F910F91FF90EF90DF90CF90A7
:101D40000895CF93DF931F92CDB7DEB769832091BB
:101D5000A3022223F9F02091A902203258F021E0B9
:101D600030E0FC013383228390E080E00F90DF912C
:101D7000CF9108958091AA02E82FF0E0EE50FE4F37
:101D8000998190838F5F8093AA028093A90281E05A
:101D900090E0ECCF61E0CE0101960E94D20DF7CF2A
:101DA000CF92DF92EF92FF920F931F93CF93DF9327
:101DB000D091A90281E0D13208F09CC0C091A2026A
:101DC0000E9487096B017C0180917C0281116CC0AB
:101DD00082E080937C0281E080937E028FEF80938B
:101DE0007B021092A002D0939F02A2EFB1E0EFE736
:101DF000F2E080E0D8138DC01092A1028091A10280
:101E0000CC0FC82BC093A10280917D02813009F0D4
:101E100084C010927D020E9487096B017C01809131
:101E2000A1028093BB008091330290913402A09173
:101E30003502B0913602892B8A2B8B2BA1F00E94A0
:101E400087090091330210913402209135023091BC
:101E500036026C197D098E099F0906171707280796
:101E6000390708F442C08091BC0083FDD8CF85ECCF
:101E70008093BC000E9487096B017C0180917C02E9
:101E8000823009F44CC080917B028F3F09F469C015
:101E900080917B02803209F466C080917B0280339E
:101EA00009F463C084E026C080913302909134022B
:101EB000A0913502B0913602892B8A2B8B2B09F425
:101EC00083CF0E9487090091330210913402209140
:101ED0003502309136026C197D098E099F0906176B
:101EE00017072807390708F06FCF809132020E9448
:101EF0002A0E85E01092AA021092A9021092A30263
:101F0000DF91CF911F910F91FF90EF90DF90CF90D5
:101F100008959D9191938F5F6DCF85EEA9CF8091AC
:101F2000330290913402A0913502B0913602892B90
:101F30008A2B8B2B09F4A2CF0E94870900913302D0
:101F40001091340220913502309136026C197D09CE
:101F50008E099F09061717072807390708F08ECF43
:101F6000C4CF80E0C7CF82E0C5CF83E0C3CF089560
:101F70008EBD00000DB407FEFDCF8EB50895CF9243
:101F8000DF92EF92FF920F931F93CF93DF93EC01B9
:101F90006B01142F8D8D9E8D009709F454C029A1DB
:101FA00031E03093A3022093A2021092AA02109271
:101FB000A902DC01ED91FC910190F081E02D60E03F
:101FC00009957601CC24C394D12C01E011508D8D5C
:101FD0009E8D1F3F71F1B0E2CB16D104C0F00E947C
:101FE000D00E8D8D9E8D29A10093A3022093A20275
:101FF0001092AA021092A902DC01ED91FC910190CD
:10200000F081E02D60E00995CC24C394D12C8D8D16
:102010009E8DF7016491DC01ED91FC910190F081BE
:10202000E02D0995BFEFCB1ADB0AEFEFEE1AFE0A9F
:10203000CDCFDF91CF911F910F91FF90EF90DF9067
:10204000CF900C94D00EEDA5FEA590818BA9809524
:10205000892380837B01115070F1F70184912B8DCE
:102060003C8D232B31F00E94B80FFFEFEF1AFF0ACF
:10207000F2CF28E030E040E8E9A5FAA599A9582F69
:102080005423A9F05081952B9083EBA5FCA590815A
:102090005AA9952B9083EBA5FCA550819AA9909500
:1020A0009523908346952150310931F7DECF508139
:1020B00090959523E9CFDF91CF911F910F91FF90DC
:1020C000EF90DF90CF9008951F93CF93DF93EC01B3
:1020D0008D8D9E8D009721F1162F29A131E030932F
:1020E000A3022093A2021092AA021092A902DC017C
:1020F000ED91FC910190F081E02D60E009958D8DCE
:102100009E8DDC01ED91FC910190F081E02D612F1D
:1021100009958D8D9E8DDF91CF911F910C94D00EDE
:10212000ADA5BEA59C918BA9809589238C938B8DA1
:102130009C8D892B31F0862FDF91CF911F910C94CC
:10214000B80F28E030E080E8A9A5BAA599A9462FE4
:102150004823C1F04C91942B9C93ABA5BCA59C91BA
:102160004AA9942B9C93ABA5BCA54C919AA9909598
:1021700094239C9386952150310931F7DF91CF91BB
:102180001F9108954C9190959423E6CF8CBD9DBDF1
:102190000895CF93C82F80917D0390917E03892B62
:1021A00001F160919503709196038091970390914E
:1021B00098030E94F90D6C2F80E693E00E94641052
:1021C00080917D0390917E03892B11F16091990399
:1021D00070919A0380919B0390919C03CF910C94F2
:1021E000F90D80917B0390917C03892B31F08091D4
:1021F0009E0390919F030E94C610E0918F03F0917F
:102200009003908180919403809589238083D3CF1C
:10221000E0918F03F0919003808190919403892B3A
:102220008083CF910895CF93C82F80917D039091A3
:102230007E03892B41F16091950370919603809103
:102240009703909198030E94F90D61E880E693E06E
:102250000E94641060919D03C11160E080E693E0EC
:102260000E94641080917D0390917E03892B11F16F
:102270006091990370919A0380919B0390919C03C4
:10228000CF910C94F90D80917B0390917C03892B65
:1022900031F080919E0390919F030E94C610E091BF
:1022A0008F03F0919003908180919403809589230E
:1022B0008083CBCFE0918F03F09190038081909148
:1022C0009403892B8083CF9108951F93CF93DF933D
:1022D000EC01162F8D8D9E8D892BC9F06DA97EA9DD
:1022E0008FA998AD0E94F90D66EA111167EACE0137
:1022F0000E9464108D8D9E8D892BC9F069AD7AADD9
:102300008BAD9CADDF91CF911F910C94F90D8B8D0E
:102310009C8D892B21F08EAD9FAD0E94C610EFA53C
:10232000F8A990818CA9809589238083DDCFEFA5C2
:10233000F8A980819CA9892B8083DF91CF911F917F
:102340000895BF92CF92DF92EF92FF920F931F9367
:10235000CF93DF93EC018D8D9E8D892B09F476C090
:102360006DA97EA98FA998AD0E94F90D45E06CE199
:102370007CE0CE010E94BF0F6C816150CE010E94B3
:1023800064102E813F81C901079697FD079623E0CF
:10239000959587952A95E1F72C813D81829F700163
:1023A000839FF00C929FF00C11240F8D18A18D8D3E
:1023B0009E8DE00EF11E009709F46EC029A131E058
:1023C0003093A3022093A2021092AA021092A902B3
:1023D000DC01ED91FC910190F081E02D60E4099524
:1023E000CC24C394D12CBB24B3948D8D9E8DE01648
:1023F000F106E1F1B0E2CB16D104C0F00E94D00E9C
:102400008D8D9E8D29A1B092A3022093A2021092DD
:10241000AA021092A902DC01ED91FC910190F081D9
:10242000E02D60E40995CC24C394D12C8D8D9E8D34
:10243000F80161918F01DC01ED91FC910190F08137
:10244000E02D0995BFEFCB1ADB0ACFCF8B8D9C8D8A
:10245000892B21F08EAD9FAD0E94C610EFA5F8A983
:1024600090818CA980958923808380CF0E94D00E93
:102470008D8D9E8D892B09F444C069AD7AAD8BADED
:102480009CADDF91CF911F910F91FF90EF90DF9066
:10249000CF90BF900C94F90DEDA5FEA580819BA96E
:1024A000892B8083E016F10619F3F80181918F01E1
:1024B0002B8D3C8D232B19F00E94B80FF3CF28E011
:1024C00030E040E8E9A5FAA599A9582F5423A9F0CE
:1024D0005081952B9083EBA5FCA590815AA9952B53
:1024E0009083EBA5FCA550819AA9909595239083A4
:1024F00046952150310931F7D5CF508190959523DC
:10250000E9CFEFA5F8A980819CA9892B8083DF9171
:10251000CF911F910F91FF90EF90DF90CF90BF90E0
:1025200008950895FC016370668B848195812681EE
:102530003781613039F0633029F0918780873387A4
:1025400022870895318720879387828708952F9265
:102550003F924F925F926F927F928F929F92AF9233
:10256000BF92CF92DF92EF92FF920F931F93CF9380
:10257000DF93CDB7DEB76A970FB6F894DEBF0FBE14
:10258000CDBF9A8F898F7A8369834A01D22E1887AB
:102590000F833701BC2CDC0159962D913C915A9741
:1025A0002115310509F015C118968D919C91199747
:1025B000681779070CF0D7C11A968D919C9148172E
:1025C00059070CF0D0C14C2C512CB6E0CB9E600DBD
:1025D000711D11247C876B87161617060CF0C3C17A
:1025E000EA2DF0E0FA87E98793E0EE0FFF1F9A9556
:1025F000E1F7F88BEF87CF01840F951F18161906A6
:102600000CF0B1C1A98DBA8D58968C91811104C07E
:10261000BFEABD1508F4D394A98DBA8DED91FC9154
:1026200011970284F385E02DCD010995B5E0DB9E7D
:10263000C0011124E981FA81FC83EB83312C212C28
:102640009C01245E384F388F2F8B4A2D50E05E8BD3
:102650004D8BEF89F88DE20DF31D44919E828D82A2
:10266000D12CC12C69817A81620D731D7A8B698BA3
:10267000842F90E09C8B8B8BE98DFA8DA081B181AA
:1026800040FF82C0F1E0BF126FC0AF126DC01C9658
:10269000ED91FC912F813885A4014C0D5D1D698958
:1026A0007A89898D9A8D0995EB89FC89F595E7954D
:1026B0004E2F5FEFC51AD50A6D817E818D899E8967
:1026C000680F791F7E836D8398E0C916D10481F667
:1026D000AFEF2A1A3A0AEB81FC81E40DF51DFC8369
:1026E000EB83F5E02F16310409F0B3CF2F81388545
:1026F00026153705B9F0A98DBA8DED91FC91B1E0A1
:10270000BB1257C0AB1255C069817A816B5F7F4F96
:102710000088F189E02D830128E030E0A401898D53
:102720009A8D0995A98DBA8DED91FC911197068826
:10273000F789E02DCD016A960FB6F894DEBF0FBE83
:10274000CDBFDF91CF911F910F91FF90EF90DF9060
:10275000CF90BF90AF909F908F907F906F905F9041
:102760004F903F902F9009941E96ED91FC91EF8031
:10277000F88409851A8592014D815E816B817C8187
:10278000898D9A8D099590CF2F813885261537052B
:1027900009F48ACF31E0B31207C0A31205C01C961A
:1027A000ED91FC91930178CF1E96ED91FC91730110
:1027B000E0CF6B857C85641975090684F785E02D6B
:1027C00073010F8518899201A401898D9A8D09954D
:1027D000A9CFF90134969491329745915491D91A21
:1027E000B7E0DB9E400D511D1124F9012591349174
:1027F0003C8B2B8BFA0125903490FA013296749021
:1028000031963491398B329664903196449041E000
:102810004C1518F04A1508F07FC0662D062C000CE8
:10282000770B7C836B83842D042C000C990B9E8387
:102830008D83A98DBA8DED91FC9111970284F3855A
:10284000E02DCD010995512CD12CC12CEA2DF0E0C1
:10285000FA87E9872B2D30E03C872B87A401440DB4
:10286000511D47FC5A95588F4F8B69817A81660DAF
:10287000711D67FC7A957E876D877989C71608F088
:1028800051CF2C2D30E04D815E81420F531FA98521
:10289000BA854A9FC0014B9F900D5A9F900D1124FD
:1028A000FC01E80DF91DF88BEF87852D612C4F8910
:1028B000588D420F531F5E8B4D8B671408F050C02C
:1028C00044244394480E877041F4C1010196EB897A
:1028D000FC89E20DF31DD4901C01D7FE19C0A98D0F
:1028E000BA8DED91FC91662D70E0B1E0BB1219C07C
:1028F000AB1217C02D853E85620F731F0484F585CA
:10290000E02D2F8138854D895E89898D9A8D0995B5
:10291000DD0C6394842DD1CF1E821D821C821B820C
:1029200088CF4B815C81640F751FAB85BC856A9F26
:10293000C0016B9F900D7A9F900D112469817A815F
:10294000680F791F0684F785E02DEF80F8840985EC
:102950001A859D014F855889898D9A8D0995D8CF03
:10296000570CC3948ACF6A960FB6F894DEBF0FBE99
:10297000CDBFDF91CF911F910F91FF90EF90DF902E
:10298000CF90BF90AF909F908F907F906F905F900F
:102990004F903F902F9008958F929F92AF92CF9239
:1029A000EF92FF920F931F93CF93DF93EC01262FAB
:1029B000898D9A8D009709F051C06A30D1F41D8637
:1029C0001C868D8948E0849F900111248E859F8507
:1029D000820F931F9F878E8781E090E0DF91CF91D8
:1029E0001F910F91FF90EF90CF90AF909F908F909D
:1029F00008956D3089F3CC88AD888F898823C1F024
:102A00008C859D8536E0C39E800D911D11244885DF
:102A100059854817590764F44E855F851D861C86C5
:102A200038E0A39EC0011124840F951F9F878E87D5
:102A3000EA88FB88088919894E855F856C857D85C4
:102A4000CE010E94A7122C898C859D8546E0249F8B
:102A5000800D911D11249D878C87BECF6A3069F44B
:102A60001D861C86FC013896E4912D898E859F85F4
:102A7000E29F800D911D1124ADCF6D3009F4ACCFD4
:102A8000FC0134963491631708F4A6CF3296E49192
:102A9000E61708F4A1CFFC01329685909490462F5A
:102AA000431B342F47E0349F800C911C1124F40108
:102AB000329634913196E4913323A9F1EE2399F1C2
:102AC000CC88F4013596E491AD884F89442301F117
:102AD0000E2E000CFF0BE30FF11DCE9EA001CF9E2A
:102AE000500D11246C857D85460F571F68857985AB
:102AF000641775076CF44E855F851D861C86FC0186
:102B00003896E491AE9E400D511D11245F874E878B
:102B1000EA88FB88088919894E855F856C857D85E3
:102B2000CE010E94A712F4013496E4912C898C8581
:102B30009D85E29F800D911D11248DCF6F927F9214
:102B40008F929F92AF92BF92CF92DF92EF92FF92BD
:102B50000F931F93CF93DF93EC016B015A0139015F
:102B60004801E881F9810284F385E02D0995E88127
:102B7000F9810288F389E02D87019301A501B6014F
:102B8000CE010995A501480D591D41505109E88113
:102B9000F9810288F389E02D9301B601CE010995F0
:102BA000E881F9810088F189E02D9401A501B60141
:102BB000CE010995C60CD71CB60161507109E88198
:102BC000F9810088F189E02D9401A501CE010995D4
:102BD000E881F9810688F789E02DCE01DF91CF9158
:102BE0001F910F91FF90EF90DF90CF90BF90AF902B
:102BF0009F908F907F906F9009946F927F928F92A9
:102C00009F92AF92BF92CF92DF92EF92FF920F937B
:102C10001F93CF93DF935C01EB016A0149013801F7
:102C20008701DC01ED91FC916217730719F56416B9
:102C300075062CF0962D872D3A01C92ED82E9601B7
:102C4000261937092F5F3F4F048CF58DE02DA30126
:102C5000BE01C5010995DF91CF911F910F91FF90A2
:102C6000EF90DF90CF90BF90AF909F908F907F902C
:102C70006F9008954615570591F42617370724F0ED
:102C8000892D4B01C22FD82F9E01281939092F5F9A
:102C90003F4F068CF78DE02DA601B401DACF0284F8
:102CA000F385E02D0995D501ED91FC910488F58916
:102CB000E02D83019401A601BE01C5010995D5014E
:102CC000ED91FC910688F789E02DC501DF91CF9148
:102CD0001F910F91FF90EF90DF90CF90BF90AF903A
:102CE0009F908F907F906F900994EF92FF920F9337
:102CF0001F93DC011A960D911C911B9718962D912C
:102D00003C911997ED91FC9100A0F1A1E02D7B0180
:102D100050E040E070E060E009951F910F91FF9056
:102D2000EF9008954F925F926F927F928F929F9251
:102D3000AF92BF92CF92DF92EF92FF920F931F93C9
:102D4000CF93DF936C012B015A0139014801DC015B
:102D5000ED91FC910284F385E02D0995E201640C6C
:102D6000751CD601ED91FC91C615D7055CF4008861
:102D7000F189E02D87019401A501BE01C6010995E5
:102D80002196EFCF0688F789E02DC601DF91CF911C
:102D90001F910F91FF90EF90DF90CF90BF90AF9079
:102DA0009F908F907F906F905F904F9009948F923B
:102DB0009F92AF92BF92CF92DF92EF92FF920F93CA
:102DC0001F93CF93DF93EC015B014A016901E88116
:102DD000F9810284F385E02D099595012C0D3D1DA7
:102DE00021503109E881F9810488F589E02D7801C5
:102DF0008401A401B501CE010995E881F981068815
:102E0000F789E02DCE01DF91CF911F910F91FF90B7
:102E1000EF90DF90CF90BF90AF909F908F900994EC
:102E20008F929F92AF92BF92CF92DF92EF92FF92DA
:102E30000F931F93CF93DF93EC015B014A0169016C
:102E40007801E881F9810284F385E02D0995C80CA9
:102E5000D91C860101501109E881F9810488F5899E
:102E6000E02D9501A401B501CE010995E881F98114
:102E70000688F789E02DCE01DF91CF911F910F9148
:102E8000FF90EF90DF90CF90BF90AF909F908F908A
:102E90000994EF92FF920F931F93DC01ED91FC9147
:102EA00000A0F1A1E02D09951F910F91FF90EF90E7
:102EB00008950F931F93DC01ED91FC91068CF78D23
:102EC000E02D09951F910F9108950F931F93DC0139
:102ED000ED91FC91048CF58DE02D09951F910F91DA
:102EE0000895DC01ED91FC910084F185E02D0994B9
:102EF0003F924F925F926F927F928F929F92AF928A
:102F0000BF92CF92DF92EF92FF920F931F93CF93D6
:102F1000DF935C017B014A016901390187E0680E9A
:102F2000711C93E0759467949A95E1F72B01400E1C
:102F3000511E10E000E0312CD0E0C0E0CE018770DF
:102F40009927330C892B59F4FE0183E0F595E79519
:102F50008A95E1F7E00FF11FE80DF91D349037FE77
:102F60000AC021E030E0A701B5016C0F7D1F80E6AB
:102F700093E00E9471172196CC16DD06F9F68FEFCB
:102F8000E81AF80A060D171DE414F504A9F6DF91F6
:102F9000CF911F910F91FF90EF90DF90CF90BF9056
:102FA000AF909F908F907F906F905F904F903F90E9
:102FB00008952F923F924F925F926F927F928F92DD
:102FC0009F92AF92BF92CF92DF92EF92FF920F93B8
:102FD0001F93CF93DF9300D000D000D0CDB7DEB7E2
:102FE0003C016A013E832D83FC82EB825801A41AC6
:102FF000B50AB7FE03C0B194A194B1088D809E803C
:10300000861A970A97FE03C09194819491088A14B6
:103010009B045CF0902F812F0D811E819D838E83F8
:103020009C2D8D2D6B01692F782F0C151D055CF0E3
:103030009D818E817E836D83692F782F902F812FC4
:103040008601C92ED82E1601201A310A2B012D8196
:103050003E81421A530A57FE03C0519441945108CD
:10306000710137FE03C03FEFE31AF30AF594E794CA
:103070008D819E81861797075CF5A1E0B0E0BA8349
:10308000A983C016D1064CF1D301ED91FC910484C3
:10309000F585E02D2B813C81A8016D817E818A140C
:1030A0009B041CF04D815E81B801C3010995E418B1
:1030B000F508F7FE0AC02D813E8189819A81280F8B
:1030C000391F3E832D83E20CF31C0F5F1F4FD9CFB6
:1030D0002FEF3FEF3A832983D4CF26960FB6F8948B
:1030E000DEBF0FBECDBFDF91CF911F910F91FF903B
:1030F000EF90DF90CF90BF90AF909F908F907F9098
:103100006F905F904F903F902F900895089590E0BA
:1031100080E00895CF93DF93EC010E94DE0968837D
:1031200079838A839B83DF91CF910895FC0140814D
:10313000518182819381248135818417950768F0BC
:103140002817390790F44817590758F00895CA010D
:103150002417350750F4C90108C082179307B8F344
:103160000895CA0142175307B0F30895FC019081F6
:10317000222339F0941738F49F5F9083089591507B
:10318000FCCF6917E0F30895E091E403E150E830E3
:1031900008F07EC0282FF0E0E053F74E0C94123474
:1031A000D818F518FD181919201933193A194119A9
:1031B0004091EE036091ED0385EE93E00E94B61816
:1031C0008091E503833031F41092E60381E080932F
:1031D000F003089589E08093F0039091E6039A301C
:1031E00008F456C08093E60308954091F00360917F
:1031F000EF0386EE93E00C94B6184091F2036091D1
:10320000F10387EE93E00E94B6188091E7038130C6
:1032100031F48093E80382E08093F403089589E019
:103220008093F4039091E8039A3090F18093E8033F
:1032300008954091F4036091F30388EE93E0DBCFAF
:103240004091F6036091F50389EE93E00E94B61871
:103250008091E9038230E1F41092EA031092EB03CB
:103260001092EC0308954091F8036091F7038AEE01
:1032700093E0C1CF4091FA036091F9038BEE93E0A4
:10328000BACF4091FC036091FB038CEE93E0B3CF87
:1032900008951F93CF93DF93EC011C82611104C04A
:1032A0008A819B81892BF1F0162F0E94DE092881EB
:1032B0003981AB01421B530B9A01EA81FB81E93052
:1032C000F10508F041C0E959F64E0C94123470191A
:1032D00076197E19AD198619A4198E1996199619A1
:1032E00011112FC0DF91CF911F910895112361F12A
:1032F00044315105BCF322E030E01CC0112339F108
:10330000283532407CF328E030E014C0111122C08F
:10331000203931403CF325E030E00CC01123E9F0C6
:1033200044315105FCF227E030E004C029E030E0F0
:103330001111D8CF798368833B832A8381E08C8302
:10334000D1CF21E030E0F6CF30E020E0F3CF23E032
:1033500030E0F0CF26E030E0EDCF24E030E0EACFFF
:10336000FC01868190E0DC01AA0FBB1FAE0FBF1FDE
:103370006D937C93019663E070E00E94DC3386835A
:103380008781833010F48F5F87830895CF92DF9217
:10339000EF92FF920F931F93CF93DF93EC018EE494
:1033A00080937C0062E070E080E090E00E94AC09D5
:1033B00088E000E010E0980190917A00906490938A
:1033C0007A0090917A0096FDFCCF60917800709120
:1033D0007900060F171F211D311D815069F7A901C2
:1033E000980173E056954795379527957A95D1F7CB
:1033F0004427552762EA7BE181E691E40E94F0339D
:10340000CA01B9016C507E4F8F4F9F4F28EE33E0B9
:1034100040E050E00E94F03368E080E090E0DC01A2
:10342000E0E4E0937C0070917A00706470937A001D
:1034300070917A0076FDFCCFC0907800D090790032
:103440000D2C000CEE08FF088C0D9D1DAE1DBF1D40
:10345000615039F763E0B695A795979587956A957A
:10346000D1F76C017D01EE24FF24CA01B901882740
:103470009927A70196010E94B8332FEF33E040E06F
:1034800050E00E94F033C9016AE070E00E94C83346
:10349000798B688BCE010E94B0198F818823B1F19E
:1034A000CE010E949618EB89FC8920E0E817F90705
:1034B000A0F44D895E8924E68417950770F49C0179
:1034C0002E1B3F0BA4E6B0E00E94A9334E1B5F0BFE
:1034D0009A0150E040E00E94F0332A8B7E0188E0A0
:1034E000E80EF11C622F70E0C7010E94B0198F85B1
:1034F000882379F0C7010E949618DF91CF911F9120
:103500000F91FF90EF90DF90CF90089590E080E0D2
:10351000CACF80E0F2CF0F931F93CF931092C303D3
:103520001092C2031092CB031092CA038CEB93E06B
:103530000E94C619C3E0082F10E0B80184EC93E0A4
:103540000E94B0196091CC037091CD038CEB93E095
:103550000E94B019C15089F7CF911F910F91089522
:10356000FB0101900020E9F73197AF01461B570B93
:10357000DC01ED91FC910280F381E02D09948F92A2
:103580009F92AF92BF92EF92FF920F931F93CF93B0
:10359000DF93CDB7DEB7A1970FB6F894DEBF0FBEAD
:1035A000CDBF7C01FA01CB0119A2223008F42AE038
:1035B0008E010F5D1F4F822E912CB12CA12CBF01CB
:1035C000A50194010E94F033F901CA016A300CF59B
:1035D000605DD8016E938D01232B242B252B79F769
:1035E00090E080E0109721F0BD01C7010E94B01A61
:1035F000A1960FB6F894DEBF0FBECDBFDF91CF917D
:103600001F910F91FF90EF90BF90AF909F908F9080
:103610000895695CDECFCF92DF92EF92FF92CF9355
:10362000DF936C01990FEE08FF08F7FE23C06DE2EF
:1036300087EB92E00E94C10AEC0144275527BA01AA
:103640004C195D096E097F092AE087EB92E00E9420
:10365000BF1AC80FD91F6EE671E087EB92E00E9497
:10366000B01A8C0F9D1FDF91CF91FF90EF90DF90EC
:10367000CF9008952AE0B701A60187EB92E00E945F
:10368000BF1AEC01E8CFDF92EF92FF920F931F93E6
:10369000CF93DF938C01005C1F4FD8012D913C919B
:1036A0002115310509F45AC0EC01C9010E94C6195F
:1036B000D82ED801ED91FC91E088F188A70170E047
:1036C00060E02AE087EB92E00E94BF1A6EE671E0AC
:1036D00087EB92E00E94B01AD801ED91FC918389AA
:1036E00094898E159F05C0F5B3E6BD1510F483E6E9
:1036F000D82E81E08C8B8D8BF12CE12C08E010E032
:103700002EE130E050E040E064E670E0CE010E943F
:10371000921684E690E09D878C871F861E86E9E0DE
:10372000ED1520F060E2CE010E94CC144D2D50E04A
:1037300070E060E02AE0CE010E94BF1A65E2CE018F
:103740000E94CC14CE01DF91CF911F910F91FF9079
:10375000EF90DF900C94A111D12CCBCFDF91CF91C2
:103760001F910F91FF90EF90DF9008950F931F939B
:10377000CF93DF938C01D0E0C0E06115710519F0A3
:103780000E94B01AEC016EE671E0C8010E94B01A06
:103790008C0F9D1FDF91CF911F910F9108959F92E4
:1037A000AF92BF92CF92DF92EF92FF920F931F934F
:1037B000CF93DF9300D000D0CDB7DEB78091DE038A
:1037C00089838091DF038A838091DB038B838091DF
:1037D000DC038C8310E000E0CE0101966C01F12C3B
:1037E000E12CF60191906F015801AE0CBF1CC50190
:1037F0000E945133981621F0692DC5010E9459335A
:10380000FFEFEF1AFF0A84E0E816F10451F70C5FAE
:103810001F4F0C30110501F70F900F900F900F9074
:10382000DF91CF911F910F91FF90EF90DF90CF909C
:10383000BF90AF909F9008950E94FA35FC0180815F
:103840009181009711F00C94B4340895EF92FF9297
:103850000F931F93CF93DF93EC017B018A01888143
:103860009981009729F02A813B812417350788F434
:10387000B8016F5F7F4F0E943D35009791F09983AB
:1038800088831B830A832C813D81232B11F4FC0147
:1038900010821D830C83B701888199810E940F36A5
:1038A0000CC088819981009711F00E94B43419826C
:1038B00018821D821C821B821A82CE01DF91CF9159
:1038C0001F910F91FF90EF900895EF92FF920F9349
:1038D0001F93CF93DF93CDB7DEB762970FB6F894FF
:1038E000DEBF0FBECDBF8C01CB01F801118210826B
:1038F00013821282158214824AE09E012F5F3F4F8D
:103900007901B9010E941C33F70101900020E9F709
:103910003197AF014E195F09B701C8010E94261CFB
:1039200062960FB6F894DEBF0FBECDBFDF91CF9188
:103930001F910F91FF90EF900895EF92FF920F93D8
:103940001F93CF93DF93CDB7DEB729970FB6F894C7
:10395000DEBF0FBECDBF8C01862FF8011182108211
:1039600013821282158214824AE09E012F5F3F4F1C
:103970007901B90190E00E942733F70101900020FE
:10398000E9F73197AF014E195F09B701C8010E94ED
:10399000261C29960FB6F894DEBF0FBECDBFDF916F
:1039A000CF911F910F91FF90EF900895FC0111822C
:1039B000108213821282158214826115710551F0F2
:1039C000FB0101900020E9F73197AF01461B570B2F
:1039D0000C94261C0895FC01868197819C01295F27
:1039E0003F4F37FF02C0295F3F4F83E03595279552
:1039F0008A95E1F784819581289FA001299F500D28
:103A0000389F500D112470E060E0878D90A10C94D8
:103A10000836CF92DF92EF92FF920F931F93CF93CE
:103A2000DF93CDB7DEB76A970FB6F894DEBF0FBE4F
:103A3000CDBF182FD62E80E693E00E94EB1CE12E1E
:103A4000F12C8D2D90E001969F938F931F921F93E1
:103A500081E791E09F938F938E010F5F1F4F1F931C
:103A60000F930E941636B801CE0145960E94D61CCF
:103A700081E0809374038093750310926D0310921C
:103A80006C0310926F0310926E03BE016B5E7F4F4A
:103A900080E693E00E94130ACE0145960E941E1C08
:103AA0008701015011090FB6F894DEBF0FBECDBFDC
:103AB00043E0000F111F4A95E1F7D1105CC0005A96
:103AC0001C4FF801E355FF4F60817181CE0145968F
:103AD0000E94651C23E0F22EF0927403F0927503AD
:103AE00010926D0310926C033CE0C32ED12CD09247
:103AF0006F03C0926E03BE016B5E7F4F80E693E062
:103B00000E94130ACE0145960E941E1CF801E15541
:103B1000FF4F60817181CE0145960E94651CF09235
:103B20007403F092750380E490E090936D038093AA
:103B30006C03D0926F03C0926E03BE016B5E7F4F29
:103B400080E693E00E94130ACE0145960E941E1C57
:103B500080E693E00E94A1116A960FB6F894DEBF4A
:103B60000FBECDBFDF91CF911F910F91FF90EF90CE
:103B7000DF90CF9008950F5E1B4FF8016081718137
:103B8000CE0145960E94651C13E0109374031093B8
:103B9000750310926D0310926C038CE0C82ED12C2B
:103BA000D0926F03C0926E03BE016B5E7F4F80E6C2
:103BB00093E00E94130ACE0145960E941E1CF70155
:103BC00093E0EE0FFF1F9A95E1F7E55FFB4F6081F1
:103BD0007181CE0145960E94651C10937403109369
:103BE0007503A1CF85ED8093BC0080913302909145
:103BF0003402A0913502B09136020796A11DB11D85
:103C000023E0B695A795979587952A95D1F72091AA
:103C1000BC0024FD03C010927C0208954091330241
:103C2000509134026091350270913602452B462B3B
:103C3000472B69F30097A105B10541F02AE22A95C7
:103C4000F1F700C00197A109B109E1CF80913202DB
:103C50000C942A0E2CE2289FB001299F700D11248C
:103C600068597F4F4CE250E086EC91E00E940D33A2
:103C70001092F10186EC91E008950F931F93CF937A
:103C8000DF9300D000D000D0CDB7DEB780E693E060
:103C90000E94EB1C89E090E00E942A1EBC01CE012C
:103CA00001960E94D61CE0E6F3E081E0848B858BD0
:103CB0001586148617861686BE016F5F7F4FCF016B
:103CC0000E94130ACE0101960E941E1C80E693E01A
:103CD0000E94A11100E011E083ED98E0F8019183CA
:103CE0008083E9E6F0E080818C7F8083E89A30E091
:103CF00020E050E040E06AE070E086EB92E00E9455
:103D00002E0BE89884ED98E0F8019183808388EB8E
:103D100093E00E948A1826960FB6F894DEBF0FBE75
:103D2000CDBFDF91CF911F910F9108952091CC03CA
:103D30003091CD038091CF039091D003281739079C
:103D4000B0F580E693E00E94EB1C82E08093740360
:103D50008093750381E090E09093730380937203E6
:103D6000909371038093700310926D0310926C0313
:103D700010926F0310926E0385E090E00E942A1E5D
:103D8000BC0180E693E00E94B61B80E693E00E94AF
:103D9000A11168EB7BE080E090E00E94AC098EEA24
:103DA0000E94C9101092DD030E943D1EFFCF0895AE
:103DB0000F931F93CF93DF9300D000D000D0CDB7E7
:103DC000DEB78C010E94EB1C8091D5039091D60345
:103DD0008230910599F18430910599F10197A1F50F
:103DE00081E090E00E942A1EBC01CE0101960E9453
:103DF000D61C82E0F801848B858B158614868CE0B6
:103E000090E097878687BE016F5F7F4FC8010E9451
:103E1000130ACE0101960E941E1CC8010E94431B7A
:103E2000C8010E94A11126960FB6F894DEBF0FBEFE
:103E3000CDBFDF91CF911F910F91089582E090E067
:103E4000D1CF83E090E0CECF80E791E0CDCFCF928D
:103E5000DF92EF92FF920F931F93CF93DF93CDB733
:103E6000DEB72E970FB6F894DEBF0FBECDBF80E64B
:103E700093E00E94EB1C8FE190E00E942A1EBC019F
:103E8000CE0101960E94D61C80E6E82E83E0F82E33
:103E900081E0F701848B858B15861486178616863C
:103EA000BE016F5F7F4FC7010E94130ACE010196CA
:103EB0000E941E1C88E0EAE0F1E0DE01119601900C
:103EC0000D928A95E1F7E091E403EC0FFD2FF11DCF
:103ED000608170E001E010E029E030E04FE150E067
:103EE000C7010E94DC0C6091E503CE0109960E9497
:103EF0009D1C12E0F701148B158B158614869FE02C
:103F0000C92ED12CD786C686BE01675F7F4FC701F9
:103F10000E94130ACE0109960E941E1C6091E603BE
:103F2000CE0109960E949D1CF701148B158B8CE025
:103F300090E095878487D786C686BE01675F7F4FEE
:103F4000C7010E94130ACE0109960E941E1C62E856
:103F500071E0CE0109960E94D61CF701148B158BD7
:103F600084E190E095878487D786C686BE01675F27
:103F70007F4FC7010E94130ACE0109960E941E1CA2
:103F80006091E703CE0109960E949D1CF701148BF6
:103F9000158B8EE190E095878487D786C686BE0113
:103FA000675F7F4FC7010E94130ACE0109960E94E6
:103FB0001E1C6091E803CE0109960E949D1CF7012A
:103FC000148B158B8AE290E095878487D786C68606
:103FD000BE01675F7F4FC7010E94130ACE01099699
:103FE0000E941E1C62E871E0CE0109960E94D61C58
:103FF000F701148B158B82E390E095878487D78631
:10400000C686BE01675F7F4FC7010E94130ACE01BB
:1040100009960E941E1C6091E903CE0109960E9438
:104020009D1CF701148B158B8CE390E0958784879A
:10403000D786C686BE01675F7F4FC7010E94130AFD
:10404000CE0109960E941E1C6091EA03CE010996DA
:104050000E949D1CF701148B158B88E490E09587D6
:104060008487D786C686BE01675F7F4FC7010E94DF
:10407000130ACE0109960E941E1C6091EB03CE012B
:1040800009960E949D1CF701148B158B84E590E026
:1040900095878487D786C686BE01675F7F4FC70135
:1040A0000E94130ACE0109960E941E1C6091EC0327
:1040B000CE0109960E949D1CF701148B158B80E69A
:1040C00090E095878487D786C686BE01675F7F4F5D
:1040D000C7010E94130ACE0109960E941E1CC70147
:1040E0000E94A1112E960FB6F894DEBF0FBECDBF71
:1040F000DF91CF911F910F91FF90EF90DF90CF90C4
:104100000895EF92FF920F931F93CF93DF9300D008
:1041100000D000D0CDB7DEB780E693E00E94EB1C64
:104120008EE190E00E942A1EBC01CE0101960E9401
:10413000D61C81E0809374038093750310926D0305
:1041400010926C0310926F0310926E03BE016F5FAA
:104150007F4F80E693E00E94130ACE0101960E94F1
:104160001E1C8091E303813061F401E010E029E03E
:1041700030E04FE150E070E060E080E693E00E94C4
:10418000DC0C6091E003CE0101960E949D1C12E0C0
:10419000109374031093750310926D0310926C03C7
:1041A0008FE0E82EF12CF0926F03E0926E03BE01D7
:1041B0006F5F7F4F80E693E00E94130ACE01019665
:1041C0000E941E1C8091E303823058F16091E1034C
:1041D000CE0101960E949D1C1093740310937503E9
:1041E0008EE190E090936D0380936C03F0926F03E7
:1041F000E0926E03BE016F5F7F4F80E693E00E9406
:10420000130ACE0101960E941E1C01E010E029E075
:1042100030E04FE150E06EE170E080E693E00E9414
:10422000DC0C8091E303833070F16091E203CE01F6
:1042300001960E949D1C82E0809374038093750315
:104240008CE390E090936D0380936C038FE090E09B
:1042500090936F0380936E03BE016F5F7F4F80E684
:1042600093E00E94130ACE0101960E941E1C01E0F9
:1042700010E029E030E04FE150E06CE370E080E6D0
:1042800093E00E94DC0C80E693E00E94431B80E6F2
:1042900093E00E94A11126960FB6F894DEBF0FBEE0
:1042A000CDBFDF91CF911F910F91FF90EF900895B7
:1042B000CF93DF9300D000D000D0CDB7DEB780E63B
:1042C00093E00E94EB1C89E190E00E942A1EBC0151
:1042D000CE0101960E94D61C81E0809374038093E6
:1042E000750310926D0310926C0310926F0310927D
:1042F0006E03BE016F5F7F4F80E693E00E94130A5A
:10430000CE0101960E941E1C9091DA038091DF037A
:10431000911135C0882381F18BE190E00E942A1E23
:10432000BC01CE0101960E94D61C82E080937403EA
:104330008093750310926D0310926C038CE090E0F3
:1043400090936F0380936E03BE016F5F7F4F80E693
:1043500093E00E94130ACE0101960E941E1C80E683
:1043600093E00E94A11126960FB6F894DEBF0FBE0F
:10437000CDBFDF91CF9108958AE190E0CFCF882320
:1043800019F08CE190E0CACF8DE190E0C7CFCF93D8
:10439000DF9300D000D000D0CDB7DEB780E693E049
:1043A0000E94EB1C84E190E00E942A1EBC01CE0119
:1043B00001960E94D61C81E080937403809375035C
:1043C00010926D0310926C0310926F0310926E03A3
:1043D000BE016F5F7F4F80E693E00E94130ACE011B
:1043E00001960E941E1C8091D903811137C08091D3
:1043F000DC03882381F186E190E00E942A1EBC0143
:10440000CE0101960E94D61C82E0809374038093B3
:10441000750310926D0310926C038CE090E0909302
:104420006F0380936E03BE016F5F7F4F80E693E062
:104430000E94130ACE0101960E941E1C80E693E0A2
:104440000E94A11126960FB6F894DEBF0FBECDBF15
:10445000DF91CF91089585E190E0CFCF813051F485
:104460008091DB03882319F088E190E0C6CF87E1D3
:1044700090E0C3CF823019F489E190E0BECF83E1B0
:1044800090E0BBCF8F929F92AF92BF92CF92DF927C
:10449000EF92FF920F931F93CF93DF93CDB7DEB7C9
:1044A000AE970FB6F894DEBF0FBECDBF8091A703C5
:1044B0000E94FF0861E02091A9033091AA03281708
:1044C000390709F060E082EA93E00E94491980917F
:1044D000B0030E94FF0861E02091B2033091B30362
:1044E0002817390709F060E08BEA93E00E94491928
:1044F0008091A603882309F447C08091A40390917A
:10450000A503079709F040C08091AF038823E1F12C
:104510008091AD039091AE030797B1F58091DD03D3
:1045200011E081278093DD03811151C01092D803DF
:104530001092D70381E090E09093D6038093D50347
:1045400080E693E00E94EB1C64E871E0CE010196E6
:104550000E94D61C109374031093750310926D0380
:1045600010926C0310926F0310926E03BE016F5F86
:104570007F4F80E693E00E94130ACE0101960E94CD
:104580001E1C66E971E046C00E94DE0900913A04F3
:1045900010913B0420913C0430913D046017710759
:1045A0008207930708F071C0AE960FB6F894DEBF8D
:1045B0000FBECDBFDF91CF911F910F91FF90EF9074
:1045C000DF90CF90BF90AF909F908F90089580E63E
:1045D00093E00E94EB1C64E871E0CE0101960E941A
:1045E000D61C109374031093750310926D031092F0
:1045F0006C0310926F0310926E03BE016F5F7F4FCA
:1046000080E693E00E94130ACE0101960E941E1CD0
:104610006DE871E0CE0101960E94D61C82E0809385
:1046200074038093750310926D0310926C038CE0F9
:1046300090E090936F0380936E03BE016F5F7F4F96
:1046400080E693E00E94130ACE0101960E941E1C90
:1046500080E693E00E94A11168EE73E080E090E0B4
:104660000E94AC0980E693E00E94D81E0E94DE09F9
:1046700068517C4F8F4F9F4F60933A0470933B0477
:1046800080933C0490933D048FCF8091A6038823B0
:10469000D1F08091A4039091A5030597A1F488EB34
:1046A00093E00E948A188091D7039091D8038230BA
:1046B000910509F455C308F07AC2009709F48FC236
:1046C000019709F41FC38091A6038823C1F080914C
:1046D000A4039091A503079791F488EB93E00E94BF
:1046E0008A181092D8031092D70381E090E090933B
:1046F000D6038093D50380E693E00E94D81E809174
:10470000A6038823D1F08091A4039091A503089774
:10471000A1F488EB93E00E948A188091D7039091CE
:10472000D8038230910509F419C408F05DC30097DD
:1047300009F471C3019709F4F2C38091AF03882390
:10474000D1F08091AD039091AE030597C9F488EB49
:1047500093E00E948A188091D7039091D803823009
:10476000910509F44BC408F00FC4009709F424C460
:10477000019709F459C48091AF03882309F4AAC1B1
:104780008091AD039091AE03079709F08CC188EB3F
:1047900093E00E948A186DE971E087EB92E00E9435
:1047A000B61B8091D7039091D8030E940B1B809178
:1047B000D7039091D803019709F071C166EA71E0BF
:1047C00087EB92E00E94B61B8091DF0381117BC0D2
:1047D0002091E5038AE09091E603289F900D112433
:1047E0002091E703E091E803289FE00D1124209138
:1047F000E9034091EA03289F400D11243091EB0317
:104800002091EC03389F200D112430E054E6459FA1
:10481000200D311D1124E33010F421503109F0E056
:10482000EF5EFE4FE081E90FFF27FF1FE20FF31F4E
:10483000B9017695679576956795E60FF71FC901DB
:1048400060E971E00E94C833E60FF71FC90164E612
:1048500070E00E94C833CF01861B970B67E070E0C1
:104860000E94C8330A960E942A1E8C0180E693E0BB
:104870000E94EB1CB801CE0101960E94D61C82E07A
:10488000809374038093750310926D0310926C03F0
:104890008CE090E090936F0380936E03BE016F5F96
:1048A0007F4F80E693E00E94130ACE0101960E949A
:1048B0001E1C80E693E00E94A11168EB7BE080E083
:1048C00090E00E94AC094091DE0350E070E060E0AF
:1048D0002AE087EB92E00E94BF1A6EE671E087EB58
:1048E00092E00E94B01A8091DF0390E00E940B1BBF
:1048F00040912D0450E070E060E02AE087EB92E008
:104900000E94BF1A6EE671E087EB92E00E94B01A37
:104910008091DE03843009F0B8C08091DF038823E2
:1049200009F4CAC32091E0038091E303823009F0C7
:10493000ACC38091E10390E06AE0269F800D911D59
:10494000112420912D04821B91099C0197FF02C024
:104950002D5F3F4F3595279535952795820F931FEE
:10496000A901440F551F440F551F841B950B4091FF
:10497000FD03420F532F511D50930E0440930D041D
:104980004091FE03420F532F511D5093100440934A
:104990000F044091FF03420F532F511D50931204F7
:1049A0004093110440910004480F592F511D50931A
:1049B00014044093130440910104420F532F511DDE
:1049C000509316044093150440910204480F592F48
:1049D000511D509318044093170440910304420F53
:1049E000532F511D50931A0440931904409104040D
:1049F000420F532F511D50931C0440931B044091B0
:104A00000504480F592F511D50931E0440931D0457
:104A100040910604420F532F511D509320044093A0
:104A20001F0440910704420F532F511D509322043D
:104A30004093210440910804420F532F511D50937D
:104A400024044093230440910904420F532F511D25
:104A5000509326044093250440910A04420F532F9B
:104A6000511D509328044093270440910B04840F58
:104A7000911D90932A048093290480910C04280F9F
:104A8000311D30932C0420932B0460E081E00E94C0
:104A9000091D85E090E09093D8038093D70380911F
:104AA000AF038823B9F08091AD039091AE030897CE
:104AB00089F488EB93E00E948A188091D703909143
:104AC000D8038130910509F49FC308F471C3059799
:104AD00009F4B7C30E94DE0900913604109137042F
:104AE0002091380430913904601B710B820B930BB9
:104AF00060367A4E81059105A0F00E94DE09609330
:104B000036047093370480933804909339048CEB07
:104B100093E00E94C61980E693E00E94431B0E9426
:104B2000961E8091DB0360E0811101C062E080E6A7
:104B300093E00E9492120E94DE090091B803109146
:104B4000B9032091BA033091BB03601B710B820B38
:104B5000930B0091B4031091B5032091B6033091EB
:104B6000B703061717072807390708F01DCD8EEA87
:104B70000E94C9101092DD030E943D1E0E94EA09A6
:104B8000882309F411CD88EB93E00E948A188FEAFC
:104B90000E94C9100E948B1A1092D8031092D7035A
:104BA00080E693E00E94D81E0E94961E5FCD84305E
:104BB000910509F410C108F402C1059709F083CDED
:104BC0008091340490E0079687709927809334048D
:104BD000682F617086958F5F0E94091D74CD80914A
:104BE000D5039091D6038230910599F084309105D8
:104BF000B9F08130910509F066CD9093D803809388
:104C0000D7038091DF03882309F4A7C00E94812085
:104C10005ACD9093D8038093D7030E94C72153CDD8
:104C20009093D8038093D70380E693E00E94EB1C17
:104C300084E290E00E942A1EBC01CE0101960E94EF
:104C4000D61C11E0109374031093750310926D033A
:104C500010926C0310926F0310926E03BE016F5F8F
:104C60007F4F80E693E00E94130ACE0101960E94D6
:104C70001E1C85E290E00E942A1EBC01CE01019616
:104C80000E94D61C109374031093750310926D0349
:104C900010926C038AE090E090936F0380936E0310
:104CA000BE016F5F7F4F80E693E00E94130ACE0142
:104CB00001960E941E1C86E290E00E942A1EBC0102
:104CC000CE0101960E94D61C1093740310937503B5
:104CD00010926D0310926C0384E190E090936F0347
:104CE00080936E03BE016F5F7F4F80E693E00E946A
:104CF000130ACE0101960E941E1C80E693E00E94DA
:104D0000A111E1CC8091DF03882321F18091E4039C
:104D1000813049F48091E003882309F477CF8150F2
:104D20008093E00373CF823049F48091E1038823BC
:104D300009F46CCF81508093E10368CF833009F090
:104D400065CF8091E203882309F460CF815080937E
:104D5000E2035CCF80E00E94C4180E94271FB3CCFE
:104D60008091D90381110DC08091DC0391E08927E6
:104D70008093DC030E94CF1B8091DC030E941311FF
:104D80004CCF813081F49091DB0389278093DB0342
:104D900060E0811101C062E080E693E00E9492121F
:104DA0000E94CF1B3ACF823009F037CF83E090E0EA
:104DB0009093D8038093D7030E94582184CC81E03C
:104DC0009091DA03911180E08093DF030E945821D3
:104DD0000E94CF1B78CC1092D8031092D70380E6A4
:104DE00093E00E94D81E6FCC8430910509F4B6C0C0
:104DF00008F4C1C0059709F0A0CC81E090E0909341
:104E0000D8038093D7038091DF03882309F4A3C0DC
:104E10000E94812092CC85E08093E0038093E1039F
:104E20008093E20391E09093E3039093E4039093E3
:104E3000E5038093E6031092E7038093E8039093E1
:104E4000E90399E09093EA038093EB038093EC03EA
:104E5000EDE0F4E08DE294E0118210821382128280
:104E6000158214821782168238968E179F07A1F733
:104E700081E080932E0410922F041092300410923F
:104E800031041092320410923304109234040E94C0
:104E90008B1A80E693E00E94EB1C84E090E00E9475
:104EA0002A1EBC01CE0101960E94D61C82E080938E
:104EB00074038093750310926D0310926C038CE061
:104EC00090E090936F0380936E03BE016F5F7F4FFE
:104ED00080E693E00E94130ACE0101960E941E1CF8
:104EE00080E693E00E94A1111092DD031092D80396
:104EF0001092D70381E090E09093D6038093D5037E
:104F000068EE73E080E090E00E94AC0980E693E0F8
:104F10000E94D81E0E9442220E94961E0ECC8091B2
:104F2000E403813049F41092D8031092D70380E64D
:104F300093E00E94D81E01CC81509091DF03992309
:104F400041F09091E30391509093E3038093E40345
:104F50005FCF8093E4030E94271FEFCB1092DD0305
:104F60001092D8031092D70381E090E09093D6037B
:104F70008093D503DCCF82E090E09093D8038093B8
:104F8000D7030E94C721D9CB8430910509F478C09A
:104F900008F43FC0059709F0EECB8091340490E00F
:104FA00001968770992780933404682F61708695E5
:104FB0008F5F0E94091DDFCB8091D5039091D603AE
:104FC0008130910581F48091DD03882309F4D3CBEE
:104FD00082E090E09093D6038093D50380E693E03F
:104FE0000E94D81EC8CB8230910519F484E090E06D
:104FF000F1CF049799F781E090E0ECCF8091D9034D
:1050000090E00196837099278093D9030E94C7216D
:10501000B2CB8091DA0390E001968170992780935A
:10502000DA030E945821A7CB8091DF03882311F176
:105030008091E403813051F48091E003893018F4C9
:105040008F5F8093E0030E94812095CB823041F4F2
:105050008091E1038930B8F78F5F8093E103F3CF4C
:10506000833089F78091E203893068F78F5F8093FE
:10507000E203E9CF81E00E94C4180E94271F7BCB86
:105080001092D8031092D703A9CF833019F0822F42
:1050900090E057CC3091E103A4E62A9FC00111248F
:1050A000AC016AE0369F400D511D11248091E2034E
:1050B000840F952F911D45CC2091E7039AE08091B4
:1050C000E803299F800D11242091E9034091EA0310
:1050D000299F400D11243091EB032091EC03399F5F
:1050E000200D1124322F5091E5032091E603599FA2
:1050F000200D1124622F70E070930E0460930D0454
:1051000090E09093100480930F0450E050931204A9
:1051100040931104232F30E03093140420931304A0
:10512000F9013196F0931604E0931504FA013197D2
:10513000F0931804E0931704FC013397F0931A04DA
:10514000E0931904FB013396F0931C04E0931B04D5
:10515000FC013297F0931E04E0931D04FB0132968C
:10516000F0932004E0931F04F9013296F093220497
:10517000E0932104FA013297F0932404E09323048E
:105180004F5F5F4F5093260440932504215031090F
:1051900030932804209327046F5F7F4F70932A0475
:1051A00060932904019790932C0480932B046DCC79
:1051B0008EEA0E94C9101092DD030E943D1E0E94DB
:1051C000EA09882309F486CC88EB93E00E948A18C8
:1051D0008FEA0E94C9100E948B1A1092D803109275
:1051E000D70380E693E00E94D81E0E94DE09685132
:1051F0007C4F8F4F9F4F60933A0470933B04809392
:105200003C0490933D0466CC8091DF03882379F0C1
:105210008091E303833040F48F5F8093E3038091B8
:10522000E4038F5F8093E4030E94812053CC80913C
:10523000E403883019F08F5F8093E4030E94271FF6
:1052400049CC80913104833010F110923104809167
:105250002E04882361F080912F048F5F80932F04A8
:105260008430A8F010922E041092300410C0809167
:1052700032048111ABC0809130048F5F8093300481
:10528000843028F081E0809332041092330480E669
:1052900093E00E94EB1C809132048E010F5F1F4F40
:1052A000811193C16091310480912E04882309F407
:1052B000F1C040912F0450E0FA01EE0FFF1FE35FB1
:1052C000FB4F80819181FA01EE0FFF1FEB5EFB4FD8
:1052D00020813181FA01EE0FFF1FE35EFB4FA081B9
:1052E000B181613009F4A9C008F480C0623009F4CA
:1052F000B6C081E290E00E942A1EBC01CE018996D0
:105300000E94D61CFF24F394F0927403F09275036C
:1053100010926D0310926C0310926F0310926E0343
:10532000BE01675D7F4F80E693E00E94130ACE01C5
:1053300089960E941E1C60912F0470E06F5F7F4F62
:10534000CE0189960E94651CF0927403F092750359
:1053500084E190E090936D0380936C0310926F034F
:1053600010926E03BE01675D7F4F80E693E00E945E
:10537000130ACE0189960E941E1CB801CE0189969F
:105380000E94D61C82E08093740380937503109270
:105390006D0310926C038CE090E090936F03809308
:1053A0006E03BE01675D7F4F80E693E00E94130AA3
:1053B000CE0189960E941E1C80E693E00E94A111F6
:1053C000809131048F5F8093310484CB80913304CA
:1053D0008F5F80933304823008F459CF10923204E7
:1053E00081E080932E0410922F043ECFAC01420F37
:1053F000531F4436510590F05F934F933F932F9383
:1054000084EB91E09F938F931F930F930E94163626
:105410000FB6F894DEBF0FBECDBF6BCF5F934F9337
:105420003F932F939F938F938CEB91E09F938F9358
:105430001F930F930E941636EBCF820F931FAD017F
:10544000480F591F4436510528F05F934F93BF937F
:10545000AF93D6CF5F934F93BF93AF93E3CF440FF8
:10546000551FFA01EB5DFB4F40815181820F931F65
:105470008A0F9B1F9A01280F391F2436310528F007
:105480003F932F935F934F93BBCF3F932F935F93A4
:105490004F93C8CFE0913004F0E0AF0173E0440FC8
:1054A000551F7A95E1F7405A5C4FDA01A355BF4F7B
:1054B0008D919C91119712962D913C914F545F4F75
:1054C000DA014D915C91613009F450C040F16230D5
:1054D00009F45EC080E290E00E942A1EBC01CE0169
:1054E00089960E94D61CFF24F394F0927403F092E4
:1054F000750310926D0310926C0310926F0310925B
:105500006E03BE01675D7F4F80E693E00E94130A41
:10551000CE0189960E941E1C609130040ECFAC0112
:10552000420F531F4436510590F05F934F933F93C2
:105530002F9384EB91E09F938F931F930F930E947F
:1055400016360FB6F894DEBF0FBECDBFC3CF5F9344
:105550004F933F932F939F938F938CEB91E09F9367
:105560008F931F930F930E941636EBCF820F931FDA
:10557000BA01680F791F6436710528F07F936F9325
:105580005F934F93D6CF7F936F935F934F93E3CF08
:1055900063E0EE0FFF1F6A95E1F7ED5EFB4F608160
:1055A0007181820F931F840F951F9B01280F391F54
:1055B0002436310528F03F932F937F936F93B9CF13
:1055C0003F932F937F936F93C6CF809133048111C4
:1055D00046C0E0900D04F0900E0480901704909067
:1055E0001804A0902104B0902204C0902B04D09005
:1055F0002C0482E290E00E942A1EBC01C8010E9495
:10560000D61C81E0809374038093750310926D0320
:1056100010926C0310926F0310926E03B80180E633
:1056200093E00E94130AC8010E941E1C809131045D
:10563000813009F44EC030F1823009F09ECEE80C82
:10564000F91CEA0CFB1CC7018C0D9D1D84369105CD
:1056500008F451C09F938F93DF92CF921DC0E090CA
:105660001304F09014048090190490901A04A090F0
:105670001F04B0902004C0902504D090260483E23B
:1056800090E0B9CFC701880D991D8436910590F03F
:105690009F938F939F928F9284EB91E09F938F9330
:1056A0001F930F930E9416360FB6F894DEBF0FBEFD
:1056B000CDBF63CE9F938F939F928F92FF92EF9275
:1056C0008CEB91E09F938F931F930F930E9416365C
:1056D000EBCFE80CF91CC7018A0D9B1D84369105A0
:1056E00028F09F938F93BF92AF92D6CF9F938F93C3
:1056F000BF92AF92E3CF9F938F93DF92CF92DECF93
:105700001F920F920FB60F9211242F933F938F93F6
:105710009F93AF93BF938091AE029091AF02A091FF
:10572000B002B091B1023091AD0223E0230F2D37CA
:1057300058F50196A11DB11D2093AD028093AE02D4
:105740009093AF02A093B002B093B1028091B202E5
:105750009091B302A091B402B091B5020196A11D3F
:10576000B11D8093B2029093B302A093B402B093A0
:10577000B502BF91AF919F918F913F912F910F9063
:105780000FBE0F901F90189526E8230F0296A11DBB
:10579000B11DD2CF1F920F920FB60F9211242F93EB
:1057A0003F934F935F936F937F938F939F93AF93A9
:1057B000BF93EF93FF93E0910201F09103010995EC
:1057C000FF91EF91BF91AF919F918F917F916F91D9
:1057D0005F914F913F912F910F900FBE0F901F90AF
:1057E00018951F920F920FB60F9211242F933F938B
:1057F0004F935F936F937F938F939F93AF93BF93D9
:10580000EF93FF93E0910001F09101010995FF9161
:10581000EF91BF91AF919F918F917F916F915F9128
:105820004F913F912F910F900FBE0F901F901895A1
:105830001F920F920FB60F9211242F933F934F9305
:105840005F936F937F938F939F93AF93BF93EF93E8
:10585000FF9387EB92E00E949F0AFF91EF91BF9127
:10586000AF919F918F917F916F915F914F913F91F8
:105870002F910F900FBE0F901F9018951F920F92AF
:105880000FB60F9211242F938F939F93EF93FF9353
:10589000E091C702F091C8028081E091CD02F091C1
:1058A000CE0282FD1BC090818091D0028F5F8F73EA
:1058B0002091D102821741F0E091D002F0E0E9544A
:1058C000FD4F958F8093D002FF91EF919F918F9123
:1058D0002F910F900FBE0F901F9018958081F4CFDD
:1058E0001F920F920FB60F9211248F930FB6F89458
:1058F000A89580916000886180936000109260009C
:105900000FBE8F910F900FBE0F901F9018951F9292
:105910000F920FB60F9211242F933F934F935F93E3
:105920006F937F938F939F93AF93BF93EF93FF9367
:105930008091B900887F803609F44AC0F0F588323A
:1059400009F4A7C018F5803109F49BC0B8F4882386
:1059500009F4F9C0883009F494C0FF91EF91BF9128
:10596000AF919F918F917F916F915F914F913F91F7
:105970002F910F900FBE0F901F901895883109F44A
:1059800088C0803251F780937B0214C0803409F4C0
:105990009DC040F48033B9F38833F9F680937B02DD
:1059A00085ECB0C0803509F485C0883509F496C00F
:1059B000883499F60E94F21DD0CF883909F48CC042
:1059C00038F5883729F050F4883611F0803729F6F9
:1059D00083E080937C0210927A0257C0883809F4E1
:1059E0007BC0803919F0803809F0B7CF80917A02F6
:1059F000803208F071C0E0917A0281E08E0F8093CE
:105A00007A028091BB00F0E0E65AFD4F80833DC0F2
:105A1000803B39F0E0F4803A09F479C0883A09F023
:105A20009CCF84E080937C0210925902109258021D
:105A3000E091A702F091A802099580915802811186
:105A40000FC081E0809358021092380209C0803C58
:105A500009F4A6CF883C09F4A3CF883B09F07DCF99
:105A6000E091590281E08E0F80935902F0E0E85CEA
:105A7000FD4F80818093BB00909159028091580224
:105A800029C08091A1028093BB0085EC8093BC006B
:105A900064CF9091A00280919F02981758F5E091F1
:105AA000A00281E08E0F8093A002F0E0E158FD4F4C
:105AB0008081E9CFE091A00281E08E0F8093A00267
:105AC0008091BB00F0E0E158FD4F80839091A002EF
:105AD00080919F029817C8F285E8D8CFE091A00284
