:100000000C94A9080C942F2C0C94082C0C94D10857
:100010000C94D1080C94D1080C94AE2C0C94D108FB
:100020000C94D1080C94D1080C94D1080C94D108EC
:100030000C94D1080C94D1080C94D1080C94D108DC
:100040000C94BE2B0C94D1080C947C2C0C94562C44
:100050000C94D1080C94D1080C94D1080C94D108BC
:100060000C94C52C0C94D108203A2000000000000C
:100070000000000000000000000000000000000080
:100080000000000000000000000000000000000070
:1000900000000000535441525400000000000000D2
:1000A0000000000000000000000000000000000050
:1000B0000000000000000000000000000000000040
:1000C00053455454494E47530000000000000000BF
:1000D0000000000000000000000000000000000020
:1000E00000000000000000000000000043524544F2
:1000F0004954530000000000000000000000000010
:1001000000000000000000000000000000000000EF
:1001100000000000000000005265736574000000DC
:1001200000000000000000000000000000000000CF
:1001300000000000000000000000000000000000BF
:10014000000000004261742E204C6F7721000000F7
:10015000000000000000000000000000000000009F
:10016000000000000000000000000000000000008F
:1001700042617474657279204C6F77000000000052
:10018000000000000000000000000000000000006F
:1001900000000000000000000000000044697370CF
:1001A0006C617920696E697469616C697A617469DE
:1001B0006F6E206661696C65642E20526574727979
:1001C000696E672E2E2E0000535344313330362093
:1001D000626567696E206661696C65640000000095
:1001E000000000000000000000000000000000000F
:1001F00000000000536C656570696E672E2E2E003E
:1002000000000000000000000000000000000000EE
:1002100000000000000000000000000000000000DE
:1002200053756E646179000000000000000000005A
:1002300000000000000000000000000000000000BE
:100240000000000000000000000000004D6F6E6420
:1002500061790000000000000000000000000000C4
:10026000000000000000000000000000000000008E
:10027000000000000000000054756573646179009F
:10028000000000000000000000000000000000006E
:10029000000000000000000000000000000000005E
:1002A000000000005765646E6573646179000000AA
:1002B000000000000000000000000000000000003E
:1002C000000000000000000000000000000000002E
:1002D00054687572736461790000000000000000CA
:1002E000000000000000000000000000000000000E
:1002F0000000000000000000000000004672696479
:100300006179000000000000000000000000000013
:1003100000000000000000000000000000000000DD
:100320000000000000000000536174757264617980
:1003300000000000000000000000000000000000BD
:1003400000000000000000000000000000000000AD
:10035000000000002D2D2D2D204D61676963205375
:100360007175617265202D2D2D2D0000000000009B
:10037000000000000000000000000000000000007D
:100380002D2D2D2D2D2D2D2D2D2D2D2D2D2D2D2D9D
:100390002D2D2D2D2D2D000000000000000000004F
:1003A0000000000000000000000000007620323550
:1003B0002E30352E31330000000000000000000018
:1003C000000000000000000000000000000000002D
:1003D000000000000000000053657474696E6773CC
:1003E000000000000000000000000000000000000D
:1003F00000000000000000000000000000000000FD
:100400000000000044696D2053637265656E000052
:1004100000000000000000000000000000000000DC
:1004200000000000000000000000000000000000CC
:100430003E44696D2053637265656E0000000000E4
:1004400000000000000000000000000000000000AC
:100450000000000000000000000000004C65667411
:10046000796D6F646500000000000000000000006E
:10047000000000000000000000000000000000007C
:1004800000000000000000003E4C656674796D6F4E
:100490006465000000000000000000000000000093
:1004A000000000000000000000000000000000004C
:1004B000000000007365742053717561726500005F
:1004C000000000000000000000000000000000002C
:1004D000000000000000000000000000000000001C
:1004E0003478342053756D000000000000000000D7
:1004F00000000000000000000000000000000000FC
:100500000000000000000000000000003E203478E1
:10051000342053756D000000000000000000000052
:1005200000000000000000000000000000000000CB
:10053000000000000000000034783420446174653D
:1005400000000000000000000000000000000000AB
:10055000000000000000000000000000000000009B
:10056000000000003E2034783420446174650000AF
:10057000000000000000000000000000000000007B
:10058000000000000000000000000000000000006B
:10059000456E746572207468652073756D00000087
:1005A000000000000000000000000000000000004B
:1005B000000000000000000000000000456E7465AF
:1005C000722074686520646174650000000000009A
:1005D000000000000000000000000000000000001B
:1005E0000000000000000000526F770000000000D3
:1005F00000000000000000000000000000000000FB
:1006000000000000000000000000000000000000EA
:1006100000000000436F6C000000000000000000BC
:1006200000000000000000000000000000000000CA
:1006300000000000000000000000000000000000BA
:1006400044696167205C00000000000000000000B9
:10065000000000000000000000000000000000009A
:100660000000000000000000000000004469616715
:10067000202F00000000000000000000000000002B
:10068000000000000000000000000000000000006A
:100690000000000000000000437265617465642082
:1006A00062793A0000000000000000000000000035
:1006B000000000000000000000000000000000003A
:1006C000000000004368616E6E696E67204D6F6FB9
:1006D00073000000000000000000000000000000A7
:1006E000000000000000000000000000000000000A
:1006F00054696D20486F6C7A68617573656E00008F
:1007000000000000000000000000000000000000E9
:1007100000000000000000000000000000000000D9
:10072000003E5B4F5B3E3E6B4F6B3E1C3E7C3E1C77
:10073000183C7E3C181C577D571C1C5E7F5E1C00BD
:10074000183C1800FFE7C3E7FF0018241800FFE774
:10075000DBE7FF30483A060E2629792926407F0537
:100760000507407F05253F5A3CE73C5A7F3E1C1C4D
:1007700008081C1C3E7F14227F22145F5F005F5F0D
:1007800006097F017F006689956A606060606094F9
:10079000A2FFA29408047E040810207E20100808FE
:1007A0002A1C08081C2A08081E101010100C1E0C09
:1007B0001E0C30383E3830060E3E0E06000000009B
:1007C0000000005F00000007000700147F147F1482
:1007D000242A7F2A122313086462364956205000C7
:1007E00008070300001C2241000041221C002A1CB3
:1007F0007F1C2A08083E080800807030000808089E
:100800000808000060600020100804023E514945BD
:100810003E00427F400072494949462141494D33DB
:100820001814127F1027454545393C4A4949314142
:10083000211109073649494936464949291E000010
:100840001400000040340000000814224114141465
:100850001414004122140802015909063E415D5951
:100860004E7C1211127C7F494949363E414141225A
:100870007F4141413E7F494949417F090909013E84
:10088000414151737F0808087F00417F41002040AB
:10089000413F017F081422417F404040407F021CBD
:1008A000027F7F0408107F3E4141413E7F090909D4
:1008B000063E4151215E7F091929462649494932A0
:1008C00003017F01033F4040403F1F2040201F3F66
:1008D0004038403F631408146303047804036159EB
:1008E000494D43007F41414102040810200041412D
:1008F000417F0402010204404040404000030708D9
:100900000020545478407F284444383844444428D4
:10091000384444287F385454541800087E0902187B
:10092000A4A49C787F0804047800447D4000204003
:10093000403D007F1028440000417F40007C047847
:1009400004787C080404783844444438FC1824248F
:100950001818242418FC7C0804040848545454240F
:1009600004043F44243C4040207C1C2040201C3C8C
:100970004030403C44281028444C9090907C446483
:10098000544C440008364100000077000000413616
:10099000080002010204023C2623263C1EA1A1619C
:1009A000123A4040207A38545455592155557941CE
:1009B0002254547842215554784020545579400CA3
:1009C0001E52721239555555593954545459395586
:1009D0005454580000457C410002457D42000145C9
:1009E0007C407D1211127DF0282528F07C5455455D
:1009F000002054547C547C0A097F493249494932C9
:100A00003A4444443A324A4848303A4141217A3AD9
:100A100042402078009DA0A07D3D4242423D3D40A5
:100A200040403D3C24FF2424487E4943662B2FFC54
:100A30002F2BFF0929F620C0887E09032054547902
:100A4000410000447D413048484A32384040227AD3
:100A5000007A0A0A727D0D19317D2629292F282650
:100A60002929292630484D40203808080808080858
:100A70000808382F10C8ACBA2F102834FA00007BB1
:100A8000000008142A142222142A140855005500C4
:100A900055AA55AA55AAFF55FF55FF000000FF00B3
:100AA000101010FF00141414FF001010FF00FF10AE
:100AB00010F010F0141414FC001414F700FF0000E0
:100AC000FF00FF1414F404FC141417101F10101F5F
:100AD000101F1414141F00101010F0000000001F4D
:100AE000101010101F10101010F010000000FF1058
:100AF0001010101010101010FF10000000FF140054
:100B000000FF00FF00001F10170000FC04F4141485
:100B10001710171414F404F40000FF00F714141451
:100B200014141414F700F7141414171410101F10D1
:100B30001F141414F4141010F010F000001F101FF4
:100B40000000001F14000000FC140000F010F01062
:100B500010FF10FF141414FF141010101F000000D9
:100B600000F010FFFFFFFFFFF0F0F0F0F0FFFFFFDD
:100B70000000000000FFFF0F0F0F0F0F3844443834
:100B800044FC4A4A4A347E02020606027E027E0283
:100B900063554941633844443C04407E201E20068E
:100BA000027E020299A5E7A5991C2A492A1C4C72CB
:100BB00001724C304A4D4D303048784830BC625A52
:100BC000463D3E494949007E0101017E2A2A2A2AE2
:100BD0002A44445F444440514A444040444A5140BE
:100BE0000000FF0103E080FF000008086B6B08367F
:100BF00012362436060F090F0600001818000000F0
:100C00001010003040FF0101001F01011E00191DDE
:100C10001712003C3C3C3C00000000002200FF2179
:100C200000000103070F1F3F7F0080C0E0F0F8FCC9
:100C3000FEDB40A4A62EAF2000A1C8D300408DAE9D
:100C4000D580A80000600000000000000000000047
:100C500000000000E00000000000000000000000B4
:100C6000000001E0000000000000000000000000A3
:100C70000001F00000000000000000000000000083
:100C800003F000000000000000000000000000076A
:100C9000F00000000000000000000000000007F865
:100CA000000000000000000000000000000FF8003D
:100CB000000003C0007E000001E0007F0FF800008C
:100CC0000003C000FE000001E000FFEFF80000009C
:100CD00003C000FE000001E000FFFFF80000000379
:100CE000C000F00000000F007FFE7FC0000003C0C6
:100CF00000F00000000F003FFE7FF83FF1FBCFFC4B
:100D0000FEF3BC3DEFE01FFE7FFF7FFBFFDFFEFE3B
:100D1000FFBC3DEFE01FC6FFFF7FFBFFDFFEFEFFD6
:100D2000BC3DEFE00FE3C7FE787BC3DE1EF0FFBCE7
:100D30003DEF0007FF87FC787BC3DE1EF0F83C3DEB
:100D4000EF0001FFFFF0007BC3C01EF0F03C3DEF61
:100D50000001F37FE03FFBC3CFFEF0F03C3DEF002E
:100D600003E33F807FFBC3DFFEF0F03C3DEF000775
:100D7000E73C00787BC3DE1EF0F03C3DEF0007FF50
:100D8000BE00787BC3DE1EF0F03C3DEF0007FFFEA7
:100D900000787BC3DE1EF0F03C3DEF000FFFFE004D
:100DA0007FFBFFDFFEF0F03FFDEFE00FFFFF007F76
:100DB000FBFFDFFEF0F03FFDEFE00FF9FF003E79B3
:100DC000F9CF9EF0F01F3DE7E01FF1FF00000000AB
:100DD00000000000000000001F80FF007FFFFFFFF9
:100DE000FFFFFFFFFFFFE01C007F007FFFFFFFFE14
:100DF000B46D888D18E000001F007FFFFFFFFE9597
:100E0000AD7DB577E000000F007FFFFFFFFEA5ADD1
:100E10009D8D19E0000006007FFFFFFFFEB5ADEDE0
:100E2000B57EE0000000000001800000000000002E
:100E3000000000038000000000000000000007C068
:100E400000000000000000000007C00000000000DB
:100E5000000000000FC00000000000000000001FA4
:100E6000E00000000000000000001FE000000000A3
:100E700000000000003FE000000000000000000053
:100E80003FF00000000000000000007FF0000000C4
:100E9000000000001FF87FF0000000000000003F8D
:100EA000FE7FF0000000000000003FFF7FF0000028
:100EB00000000000001FFFFBE00000000000000039
:100EC0000FFFF9FFC00000000000000FFFF9FFF85E
:100ED00000000000000007FFF1FFFF00000000001D
:100EE0000003FC73FFFF80000000000001FE3FFFD5
:100EF000FF80000000000000FF1E0FFF0000000048
:100F00000000007FFE1FFC000000000000003FFF0B
:100F1000FFF8000000000000000FDFFFE00000000D
:100F2000000000001F19FFC0000000000000003F8B
:100F30003CFF00000000000000007E7CF800000084
:100F400000000000007FFE7C0000000000000000A8
:100F5000FFFFFC0000000000000000FFFFFE00009B
:100F6000000000000000FFFFFE0000000000000085
:100F700001FFEFFE0000000000000001FFCFFE00B7
:100F800000000000000003FF07FE0000000000005A
:100F90000003FC07FE0000000000000003F003FE59
:100FA00000000000000000018000FE0000000000C2
:100FB00000000000007E00000000000000000000B3
:100FC0003E000000000000000000000C00000000D7
:100FD0000000078000FC000003C000000007800143
:100FE000FC000003C0000000078001FC000003C0FB
:100FF000000000078001E00000001E0000000780E4
:1010000001E00000001E007FE3F79FF9FDE7787B19
:10101000DFC0FFF7FFBFFDFDFF787BDFC0FFF7FFFD
:10102000BFFDFDFF787BDFC0F0F787BC3DE1FF78B7
:101030007BDE00F0F787BC3DE1F0787BDE0000F757
:1010400087803DE1E0787BDE007FF7879FFDE1E070
:10105000787BDE00FFF787BFFDE1E0787BDE00F004
:10106000F787BC3DE1E0787BDE00F0F787BC3DE12F
:10107000E0787BDE00F0F787BC3DE1E0787BDE00C6
:10108000FFF7FFBFFDE1E07FFBDFC0FFF7FFBFFD24
:10109000E1E07FFBDFC07CF3F39F3DE1E03E7BCFEF
:1010A000C00000000000000000000000FFFFFFFF84
:1010B000FFFFFFFFFFFFC0FFFFFFFFFD68DB111A0F
:1010C00031C0FFFFFFFFFD2B5AFB6AEFC0FFFFFFA0
:1010D000FFFD4B5B3B1A33C0FFFFFFFFFD6B5BDB8C
:1010E0006AFDC000000000240027002A0000000064
:1010F00000250028002B0000000000230026002906
:1011000000040404040404040402020202020203B0
:1011100003030303030102040810204080010204BA
:10112000081020010204081020000000080002013D
:10113000000003040700000000000000000906038F
:1011400010040F0A050E01080B070C0D0200E42D18
:101150003C3311241FBECFEFD8E0DEBFCDBF24E06B
:10116000ACECB1E001C01D92A834B207E1F711E088
:10117000A0E0B1E0E4E0F2E702C005900D92AC3CE3
:10118000B107D9F718E0C8EAD8E004C02197FE01FA
:101190000E945034C73AD107C9F70E94BB2F0C9464
:1011A000F5380C940000089508950895833081F077
:1011B00028F4813099F08230A9F008958730A9F0A1
:1011C0008830C9F08430B1F4809180008F7D03C0F5
:1011D000809180008F7780938000089584B58F7709
:1011E00084BD089584B58F7DFBCF8091B0008F774B
:1011F0008093B00008958091B0008F7DF9CFCF9398
:10120000DF93282F30E0F901E75DFE4E8491F9016C
:10121000EB5EFE4ED491F901EF5FFE4EC491CC23FC
:10122000A1F081110E94D608EC2FF0E0EE0FFF1F15
:10123000E950FF4EA591B491EC91ED2381E090E04F
:1012400009F480E0DF91CF91089580E090E0FACF3B
:101250001F93CF93DF93282F30E0F901E75DFE4E17
:101260008491F901EB5EFE4ED491F901EF5FFE4EE1
:10127000C491CC23A9F0162F81110E94D608EC2F1F
:10128000F0E0EE0FFF1FE351FF4EA591B4918FB731
:10129000F894EC91111108C0D095DE23DC938FBF38
:1012A000DF91CF911F910895DE2BF8CFCF93DF937D
:1012B00090E0FC01EB5EFE4E24918F5F9E4EFC01A0
:1012C00084918823D1F090E0880F991FFC01ED51A3
:1012D000FF4EA591B491FC01E351FF4EC591D4910D
:1012E000623071F49FB7F8943C91822F80958323EC
:1012F0008C93E8812E2B28839FBFDF91CF91089597
:101300008FB7F894EC912E2B2C938FBFF6CF3FB76D
:10131000F8948091B8029091B902A091BA02B0916C
:10132000BB0226B5A89B05C02F3F19F00196A11D51
:10133000B11D3FBFBA2FA92F982F8827BC01CD011F
:10134000620F711D811D911D42E0660F771F881F7E
:10135000991F4A95D1F708958F929F92AF92BF92AD
:10136000CF92DF92EF92FF924B015C010E948709BE
:101370006B017C010E9487096C197D098E099F0908
:10138000683E734081059105A8F321E0821A910817
:10139000A108B10888EEC80E83E0D81EE11CF11C3C
:1013A00081149104A104B10429F7FF90EF90DF901C
:1013B000CF90BF90AF909F908F9008952FB7F894E3
:1013C0006091B4027091B5028091B6029091B7021B
:1013D0002FBF0895CF92DF92EF92FF920E94DE0915
:1013E0006B017C010E94DE096C197D098E099F0941
:1013F000683B7B408105910560F482E00E94FF0814
:10140000019769F06AE070E080E090E00E94AC092A
:10141000E9CF81E0FF90EF90DF90CF90089580E0DA
:10142000F9CF08950895DB0114964D915C911597BD
:101430006D917C91DC01ED91FC910280F381E02DB6
:101440000994AF92BF92CF92DF92EF92FF920F93E7
:101450001F93CF93DF936C017B018B01040F151F4A
:10146000EB015E01AE18BF08C017D10759F06991B2
:10147000D601ED91FC910190F081E02DC601099516
:10148000892B79F7C501DF91CF911F910F91FF90C3
:10149000EF90DF90CF90BF90AF900895FC01538DF7
:1014A000448D252F30E0842F90E0821B930B54173E
:1014B00010F0CF96089501970895FC01918D828DCB
:1014C000981761F0A28DAE0FBF2FB11D5D968C9164
:1014D000928D9F5F9F73928F90E008958FEF9FEFA3
:1014E0000895FC01918D828D981731F0828DE80F5F
:1014F000F11D858D90E008958FEF9FEF0895FC0119
:10150000918D228D892F90E0805C9F4F821B9109E5
:101510008F73992708958DEB92E00E947F0A21E056
:10152000892B09F420E0822F089580E090E0892B38
:1015300029F00E948B0A81110C9400000895FC018F
:10154000A48DA80FB92FB11DA35ABF4F2C91848D24
:1015500090E001968F739927848FA689B7892C9381
:10156000A089B1898C91837080648C93938D848DD4
:10157000981306C00288F389E02D80818F7D8083D7
:101580000895EF92FF920F931F93CF93DF93EC0197
:1015900081E0888F9B8D8C8D98131AC0E889F9891A
:1015A000808185FF15C09FB7F894EE89FF8960831D
:1015B000E889F98980818370806480839FBF81E09E
:1015C00090E0DF91CF911F910F91FF90EF900895E0
:1015D000F62E0B8D10E00F5F1F4F0F731127E02EBB
:1015E0008C8D8E110CC00FB607FCFACFE889F989F3
:1015F000808185FFF5CFCE010E949F0AF1CFEB8D50
:10160000EC0FFD2FF11DE35AFF4FF0829FB7F894C6
:101610000B8FEA89FB8980818062CFCFCF93DF93E4
:10162000EC01888D8823B9F0AA89BB89E889F989FA
:101630008C9185FD03C0808186FD0DC00FB607FC2F
:10164000F7CF8C9185FFF2CF808185FFEDCFCE0162
:101650000E949F0AE9CFDF91CF910895411551056E
:1016600029F4EAE7F0E080818F7780836A307105A2
:10167000B9F0CB01880F991F880F991F807267708E
:101680006860682B88E10FB6F894A8958093600095
:101690000FBE60936000E0E6F0E0808180648083AC
:1016A000232BD9F483B7817F846083BFF89483B7F9
:1016B000816083BF85B7806685BF8F7D85BF789445
:1016C000889583B78E7F83BF7894452B29F4EAE70A
:1016D000F0E0808180688083089583B7817F846093
:1016E00083BFF89483B7816083BF7894889583B76C
:1016F0008E7F83BF7894E9CFEF92FF920F931F9371
:10170000CF93DF93EC01EC80FD806E157F050CF02C
:1017100070C057FF04C0240F351F50E040E08E8199
:101720009F81FA01E20FF31F8E179F071CF49C01A3
:10173000241B350B121613060CF05BC0922F842F5E
:101740008695869586958E9DD0018F9DB00D11242E
:101750006A0F7B1FAF8DB8A1A60FB71F477049F165
:1017600088E0841B482F682F70E0FB01E75DF34F92
:10177000E491281708F063C0621B71092FEF30E075
:1017800002C0359527956A95E2F7E22301301105ED
:1017900039F0B0F10230110561F58C91E82702C0F3
:1017A0008C91E82BEC93941720F12C813D81A20FB2
:1017B000B31FE92FE41BE83078F00230110521F562
:1017C0008E2F9C9190959C932C813D81A20FB31FED
:1017D00088508830B0F7E770EE2359F0F0E0EF5D05
:1017E000F34FE49101301105F9F010F102301105C9
:1017F00019F1DF91CF911F910F91FF90EF90089514
:10180000E0958C91E823CECF81E00115110509F414
:1018100080E081959E2F8C932C813D81A20FB31F78
:1018200098509830C0F7D7CF8C91E82BEC93E1CF4C
:10183000E0958C91E823FACF8C91E827F7CF01301F
:10184000110509F4ADCFE0F20230110509F4A5CF7E
:10185000AE0DBF1DAECF0F931F93CF93DF9377FFD6
:1018600004C0260F371F70E060E0DC011496CD91B4
:10187000DC91FB01E20FF31FCE17DF071CF49E0182
:10188000261B370B121613064CF5FA0157FD379637
:10189000A3E0F595E795AA95E1F7EC9FD001ED9FC0
:1018A000B00DFC9FB00D11246A0F7B1FDC015F9609
:1018B000ED91FC91E60FF71F4770552781E090E00E
:1018C00001C0880F4A95EAF7482F0130110559F0F9
:1018D000A8F02E0F3F1F02301105E1F0DF91CF91EC
:1018E0001F910F9108952E0F3F1FE217F307B1F3D9
:1018F0008191DF011197842B8C93F7CF80952E0F68
:101900003F1FE217F30751F39191DF0111979823DD
:101910009C93F7CFE217F30709F38191DF01119749
:1019200084278C93F7CF0F931F93FA01DC0156960F
:101930004C9156974230E9F04330A1F1413061F5C6
:1019400014964D915C91DA01AE1BBF0BFD01E21BB9
:10195000F30B77FD0BC0DC0116964D915C9164177B
:10196000750724F4AB01BF010E942B0C1F910F914E
:10197000089514964D915C91DA01A61BB70BBD0139
:1019800061507109DC0116964D915C91DA01AE1B34
:10199000BF0BFD01E21BF30B77FDE8CFAF010E9407
:1019A0007C0BE4CF16964D915C91DA01A61BB70B28
:1019B000BD0161507109CDCF0F931F93FA01DC0176
:1019C00056964C9156974230A9F0433091F14130F0
:1019D00019F514964D915C91DA01AE1BBF0BFD0118
:1019E0003197F7FD04C0AB01BF010E947C0B1F9132
:1019F0000F91089514964D915C91DA01A61BB70BD7
:101A0000BD01DC0116964D915C91DA01AE1BBF0B56
:101A1000FD013197621B730BF7FDE9CFDC011696D0
:101A20004D915C91E417F50714F7AF010E942B0C60
:101A3000DECF16964D915C91DA01A61BB70BBD0166
:101A4000621B730BCECFFC0177FD64C0808591854E
:101A5000681779070CF05EC057FD5CC082859385DE
:101A6000481759070CF056C086898230B1F0833090
:101A700029F1813041F484819581841B950BAB0160
:101A8000BC01615071092130310509F108F443C0EE
:101A90002230310509F463C0089584819581DC0109
:101AA000A61BB70BBD016150710986819781DC01CE
:101AB000A41BB50BAD0141505109E5CF868197813B
:101AC000861B970BBA01AC0141505109DCCFCA010A
:101AD00057FD0796A3E095958795AA95E1F7A48110
:101AE000B5818A9F90018B9F300D9A9F300D1124F4
:101AF000620F731F078CF0A1E02DE60FF71F4770F0
:101B0000552721E030E001C0220F4A95EAF7808195
:101B1000822B80830895CA0157FD079633E095957F
:101B200087953A95E1F7A481B5818A9F90018B9FB3
:101B3000300D9A9F300D1124620F731F078CF0A196
:101B4000E02DE60FF71F4770552781E090E001C0B8
:101B5000880F4A95EAF7809590818923DACFCA01E8
:101B600057FD079623E0959587952A95E1F7A4817F
:101B7000B5818A9F90018B9F300D9A9F300D112463
:101B8000620F731F078CF0A1E02DE60FF71F47705F
:101B9000552721E030E001C0220F4A95EAF7808105
:101BA0008227B7CF20915E02260F3327331F2132C1
:101BB0003105ECF420918202FC0190E080E02430B9
:101BC00069F082E00895A0915E022191AC01425C2F
:101BD0005D4FA40FB52FB11D2C930196861798F376
:101BE00080915E02680F60935E0280E0089581E05C
:101BF00008959B01AC0160E074E284EF90E00E94E4
:101C00002E34205131094109510956954795379590
:101C100027952093B80008951092820281E0809366
:101C200084021092830261E082E10E94280961E04F
:101C300083E10E942809E9EBF0E080818E7F8083B8
:101C400080818D7F808388E48093B80085E48093D1
:101C5000BC000895CF93DF9391E090933D028823D9
:101C6000B9F0C091B800D091BA008091BC008A7BD5
:101C70008093BC0060E082E10E94280960E083E17B
:101C80000E9428090E940C0ED093BA00C093B8009D
:101C9000DF91CF910895E091B2028091B102E817EF
:101CA00030F4F0E0E85EFD4F808190E008958FEF22
:101CB0009FEF08959091B2028091B1022FEF3FEF14
:101CC000981748F4E92FF0E0E85EFD4F208130E0FE
:101CD0009F5F9093B202C90108958091B1029091E3
:101CE000B202891B990B0895CF92DF92EF92FF9277
:101CF0000F931F93CF93DF937C01CB018A01209137
:101D0000A902222389F0EB016B01C40ED51ECC156C
:101D1000DD0569F06991D701ED91FC910190F081A9
:101D2000E02DC7010995F3CF642F0E94D20DC801A1
:101D3000DF91CF911F910F91FF90EF90DF90CF90A7
:101D40000895CF93DF931F92CDB7DEB769832091BB
:101D5000A9022223F9F02091AF02203258F021E0AD
:101D600030E0FC013383228390E080E00F90DF912C
:101D7000CF9108958091B002E82FF0E0E850FE4F37
:101D8000998190838F5F8093B0028093AF0281E04E
:101D900090E0ECCF61E0CE0101960E94D20DF7CF2A
:101DA000CF92DF92EF92FF920F931F93CF93DF9327
:101DB000D091AF0281E0D13208F09CC0C091A8025E
:101DC0000E9487096B017C018091820281116CC0A5
:101DD00082E08093820281E0809384028FEF80937F
:101DE00081021092A602D093A502A8EFB1E0E5E827
:101DF000F2E080E0D8138DC01092A7028091A70274
:101E0000CC0FC82BC093A70280918302813009F0C8
:101E100084C0109283020E9487096B017C0180912B
:101E2000A7028093BB008091390290913A02A09161
:101E30003B02B0913C02892B8A2B8B2BA1F00E9494
:101E400087090091390210913A0220913B023091AA
:101E50003C026C197D098E099F0906171707280790
:101E6000390708F442C08091BC0083FDD8CF85ECCF
:101E70008093BC000E9487096B017C0180918202E3
:101E8000823009F44CC0809181028F3F09F469C00F
:101E900080918102803209F466C080918102803392
:101EA00009F463C084E026C08091390290913A021F
:101EB000A0913B02B0913C02892B8A2B8B2B09F419
:101EC00083CF0E9487090091390210913A02209134
:101ED0003B0230913C026C197D098E099F0906175F
:101EE00017072807390708F06FCF809138020E9442
:101EF0002A0E85E01092B0021092AF021092A90251
:101F0000DF91CF911F910F91FF90EF90DF90CF90D5
:101F100008959D9191938F5F6DCF85EEA9CF8091AC
:101F2000390290913A02A0913B02B0913C02892B78
:101F30008A2B8B2B09F4A2CF0E94870900913902CA
:101F400010913A0220913B0230913C026C197D09BC
:101F50008E099F09061717072807390708F08ECF43
:101F6000C4CF80E0C7CF82E0C5CF83E0C3CF089560
:101F70008EBD00000DB407FEFDCF8EB50895CF9243
:101F8000DF92EF92FF920F931F93CF93DF93EC01B9
:101F90006B01142F8D8D9E8D009709F454C029A1DB
:101FA00031E03093A9022093A8021092B00210925F
:101FB000AF02DC01ED91FC910190F081E02D60E039
:101FC00009957601CC24C394D12C01E011508D8D5C
:101FD0009E8D1F3F71F1B0E2CB16D104C0F00E947C
:101FE000D00E8D8D9E8D29A10093A9022093A80269
:101FF0001092B0021092AF02DC01ED91FC910190C1
:10200000F081E02D60E00995CC24C394D12C8D8D16
:102010009E8DF7016491DC01ED91FC910190F081BE
:10202000E02D0995BFEFCB1ADB0AEFEFEE1AFE0A9F
:10203000CDCFDF91CF911F910F91FF90EF90DF9067
:10204000CF900C94D00EEDA5FEA590818BA9809524
:10205000892380837B01115070F1F70184912B8DCE
:102060003C8D232B31F00E94B80FFFEFEF1AFF0ACF
:10207000F2CF28E030E040E8E9A5FAA599A9582F69
:102080005423A9F05081952B9083EBA5FCA590815A
:102090005AA9952B9083EBA5FCA550819AA9909500
:1020A0009523908346952150310931F7DECF508139
:1020B00090959523E9CFDF91CF911F910F91FF90DC
:1020C000EF90DF90CF9008951F93CF93DF93EC01B3
:1020D0008D8D9E8D009721F1162F29A131E030932F
:1020E000A9022093A8021092B0021092AF02DC0164
:1020F000ED91FC910190F081E02D60E009958D8DCE
:102100009E8DDC01ED91FC910190F081E02D612F1D
:1021100009958D8D9E8DDF91CF911F910C94D00EDE
:10212000ADA5BEA59C918BA9809589238C938B8DA1
:102130009C8D892B31F0862FDF91CF911F910C94CC
:10214000B80F28E030E080E8A9A5BAA599A9462FE4
:102150004823C1F04C91942B9C93ABA5BCA59C91BA
:102160004AA9942B9C93ABA5BCA54C919AA9909598
:1021700094239C9386952150310931F7DF91CF91BB
:102180001F9108954C9190959423E6CF8CBD9DBDF1
:102190000895CF93C82F8091830390918403892B56
:1021A00001F160919B0370919C0380919D0390913C
:1021B0009E030E94F90D6C2F86E693E00E94641046
:1021C0008091830390918403892B11F160919F0387
:1021D0007091A0038091A1039091A203CF910C94E0
:1021E000F90D8091810390918203892B31F08091C8
:1021F000A4039091A5030E94C610E0919503F0916D
:102200009603908180919A03809589238083D3CF10
:10221000E0919503F0919603808190919A03892B28
:102220008083CF910895CF93C82F8091830390919D
:102230008403892B41F160919B0370919C038091F1
:102240009D0390919E030E94F90D61E886E693E05C
:102250000E9464106091A303C11160E086E693E0E0
:102260000E9464108091830390918403892B11F163
:1022700060919F037091A0038091A1039091A203AC
:10228000CF910C94F90D8091810390918203892B59
:1022900031F08091A4039091A5030E94C610E091B3
:1022A0009503F0919603908180919A0380958923FC
:1022B0008083CBCFE0919503F0919603808190913C
:1022C0009A03892B8083CF9108951F93CF93DF9337
:1022D000EC01162F8D8D9E8D892BC9F06DA97EA9DD
:1022E0008FA998AD0E94F90D66EA111167EACE0137
:1022F0000E9464108D8D9E8D892BC9F069AD7AADD9
:102300008BAD9CADDF91CF911F910C94F90D8B8D0E
:102310009C8D892B21F08EAD9FAD0E94C610EFA53C
:10232000F8A990818CA9809589238083DDCFEFA5C2
:10233000F8A980819CA9892B8083DF91CF911F917F
:102340000895BF92CF92DF92EF92FF920F931F9367
:10235000CF93DF93EC018D8D9E8D892B09F476C090
:102360006DA97EA98FA998AD0E94F90D45E06CE199
:102370007CE0CE010E94BF0F6C816150CE010E94B3
:1023800064102E813F81C901079697FD079623E0CF
:10239000959587952A95E1F72C813D81829F700163
:1023A000839FF00C929FF00C11240F8D18A18D8D3E
:1023B0009E8DE00EF11E009709F46EC029A131E058
:1023C0003093A9022093A8021092B0021092AF029B
:1023D000DC01ED91FC910190F081E02D60E4099524
:1023E000CC24C394D12CBB24B3948D8D9E8DE01648
:1023F000F106E1F1B0E2CB16D104C0F00E94D00E9C
:102400008D8D9E8D29A1B092A9022093A8021092D1
:10241000B0021092AF02DC01ED91FC910190F081CD
:10242000E02D60E40995CC24C394D12C8D8D9E8D34
:10243000F80161918F01DC01ED91FC910190F08137
:10244000E02D0995BFEFCB1ADB0ACFCF8B8D9C8D8A
:10245000892B21F08EAD9FAD0E94C610EFA5F8A983
:1024600090818CA980958923808380CF0E94D00E93
:102470008D8D9E8D892B09F444C069AD7AAD8BADED
:102480009CADDF91CF911F910F91FF90EF90DF9066
:10249000CF90BF900C94F90DEDA5FEA580819BA96E
:1024A000892B8083E016F10619F3F80181918F01E1
:1024B0002B8D3C8D232B19F00E94B80FF3CF28E011
:1024C00030E040E8E9A5FAA599A9582F5423A9F0CE
:1024D0005081952B9083EBA5FCA590815AA9952B53
:1024E0009083EBA5FCA550819AA9909595239083A4
:1024F00046952150310931F7D5CF508190959523DC
:10250000E9CFEFA5F8A980819CA9892B8083DF9171
:10251000CF911F910F91FF90EF90DF90CF90BF90E0
:1025200008950895FC016370668B848195812681EE
:102530003781613039F0633029F0918780873387A4
:1025400022870895318720879387828708952F9265
:102550003F924F925F926F927F928F929F92AF9233
:10256000BF92CF92DF92EF92FF920F931F93CF9380
:10257000DF93CDB7DEB76A970FB6F894DEBF0FBE14
:10258000CDBF9A8F898F7A8369834A01D22E1887AB
:102590000F833701BC2CDC0159962D913C915A9741
:1025A0002115310509F015C118968D919C91199747
:1025B000681779070CF0D7C11A968D919C9148172E
:1025C00059070CF0D0C14C2C512CB6E0CB9E600DBD
:1025D000711D11247C876B87161617060CF0C3C17A
:1025E000EA2DF0E0FA87E98793E0EE0FFF1F9A9556
:1025F000E1F7F88BEF87CF01840F951F18161906A6
:102600000CF0B1C1A98DBA8D58968C91811104C07E
:10261000BFEABD1508F4D394A98DBA8DED91FC9154
:1026200011970284F385E02DCD010995B5E0DB9E7D
:10263000C0011124E981FA81FC83EB83312C212C28
:102640009C01245E384F388F2F8B4A2D50E05E8BD3
:102650004D8BEF89F88DE20DF31D44919E828D82A2
:10266000D12CC12C69817A81620D731D7A8B698BA3
:10267000842F90E09C8B8B8BE98DFA8DA081B181AA
:1026800040FF82C0F1E0BF126FC0AF126DC01C9658
:10269000ED91FC912F813885A4014C0D5D1D698958
:1026A0007A89898D9A8D0995EB89FC89F595E7954D
:1026B0004E2F5FEFC51AD50A6D817E818D899E8967
:1026C000680F791F7E836D8398E0C916D10481F667
:1026D000AFEF2A1A3A0AEB81FC81E40DF51DFC8369
:1026E000EB83F5E02F16310409F0B3CF2F81388545
:1026F00026153705B9F0A98DBA8DED91FC91B1E0A1
:10270000BB1257C0AB1255C069817A816B5F7F4F96
:102710000088F189E02D830128E030E0A401898D53
:102720009A8D0995A98DBA8DED91FC911197068826
:10273000F789E02DCD016A960FB6F894DEBF0FBE83
:10274000CDBFDF91CF911F910F91FF90EF90DF9060
:10275000CF90BF90AF909F908F907F906F905F9041
:102760004F903F902F9009941E96ED91FC91EF8031
:10277000F88409851A8592014D815E816B817C8187
:10278000898D9A8D099590CF2F813885261537052B
:1027900009F48ACF31E0B31207C0A31205C01C961A
:1027A000ED91FC91930178CF1E96ED91FC91730110
:1027B000E0CF6B857C85641975090684F785E02D6B
:1027C00073010F8518899201A401898D9A8D09954D
:1027D000A9CFF90134969491329745915491D91A21
:1027E000B7E0DB9E400D511D1124F9012591349174
:1027F0003C8B2B8BFA0125903490FA013296749021
:1028000031963491398B329664903196449041E000
:102810004C1518F04A1508F07FC0662D062C000CE8
:10282000770B7C836B83842D042C000C990B9E8387
:102830008D83A98DBA8DED91FC9111970284F3855A
:10284000E02DCD010995512CD12CC12CEA2DF0E0C1
:10285000FA87E9872B2D30E03C872B87A401440DB4
:10286000511D47FC5A95588F4F8B69817A81660DAF
:10287000711D67FC7A957E876D877989C71608F088
:1028800051CF2C2D30E04D815E81420F531FA98521
:10289000BA854A9FC0014B9F900D5A9F900D1124FD
:1028A000FC01E80DF91DF88BEF87852D612C4F8910
:1028B000588D420F531F5E8B4D8B671408F050C02C
:1028C00044244394480E877041F4C1010196EB897A
:1028D000FC89E20DF31DD4901C01D7FE19C0A98D0F
:1028E000BA8DED91FC91662D70E0B1E0BB1219C07C
:1028F000AB1217C02D853E85620F731F0484F585CA
:10290000E02D2F8138854D895E89898D9A8D0995B5
:10291000DD0C6394842DD1CF1E821D821C821B820C
:1029200088CF4B815C81640F751FAB85BC856A9F26
:10293000C0016B9F900D7A9F900D112469817A815F
:10294000680F791F0684F785E02DEF80F8840985EC
:102950001A859D014F855889898D9A8D0995D8CF03
:10296000570CC3948ACF6A960FB6F894DEBF0FBE99
:10297000CDBFDF91CF911F910F91FF90EF90DF902E
:10298000CF90BF90AF909F908F907F906F905F900F
:102990004F903F902F9008958F929F92AF92CF9239
:1029A000EF92FF920F931F93CF93DF93EC01262FAB
:1029B000898D9A8D009709F051C06A30D1F41D8637
:1029C0001C868D8948E0849F900111248E859F8507
:1029D000820F931F9F878E8781E090E0DF91CF91D8
:1029E0001F910F91FF90EF90CF90AF909F908F909D
:1029F00008956D3089F3CC88AD888F898823C1F024
:102A00008C859D8536E0C39E800D911D11244885DF
:102A100059854817590764F44E855F851D861C86C5
:102A200038E0A39EC0011124840F951F9F878E87D5
:102A3000EA88FB88088919894E855F856C857D85C4
:102A4000CE010E94A7122C898C859D8546E0249F8B
:102A5000800D911D11249D878C87BECF6A3069F44B
:102A60001D861C86FC013896E4912D898E859F85F4
:102A7000E29F800D911D1124ADCF6D3009F4ACCFD4
:102A8000FC0134963491631708F4A6CF3296E49192
:102A9000E61708F4A1CFFC01329685909490462F5A
:102AA000431B342F47E0349F800C911C1124F40108
:102AB000329634913196E4913323A9F1EE2399F1C2
:102AC000CC88F4013596E491AD884F89442301F117
:102AD0000E2E000CFF0BE30FF11DCE9EA001CF9E2A
:102AE000500D11246C857D85460F571F68857985AB
:102AF000641775076CF44E855F851D861C86FC0186
:102B00003896E491AE9E400D511D11245F874E878B
:102B1000EA88FB88088919894E855F856C857D85E3
:102B2000CE010E94A712F4013496E4912C898C8581
:102B30009D85E29F800D911D11248DCF6F927F9214
:102B40008F929F92AF92BF92CF92DF92EF92FF92BD
:102B50000F931F93CF93DF93EC016B015A0139015F
:102B60004801E881F9810284F385E02D0995E88127
:102B7000F9810288F389E02D87019301A501B6014F
:102B8000CE010995A501480D591D41505109E88113
:102B9000F9810288F389E02D9301B601CE010995F0
:102BA000E881F9810088F189E02D9401A501B60141
:102BB000CE010995C60CD71CB60161507109E88198
:102BC000F9810088F189E02D9401A501CE010995D4
:102BD000E881F9810688F789E02DCE01DF91CF9158
:102BE0001F910F91FF90EF90DF90CF90BF90AF902B
:102BF0009F908F907F906F9009946F927F928F92A9
:102C00009F92AF92BF92CF92DF92EF92FF920F937B
:102C10001F93CF93DF935C01EB016A0149013801F7
:102C20008701DC01ED91FC916217730719F56416B9
:102C300075062CF0962D872D3A01C92ED82E9601B7
:102C4000261937092F5F3F4F048CF58DE02DA30126
:102C5000BE01C5010995DF91CF911F910F91FF90A2
:102C6000EF90DF90CF90BF90AF909F908F907F902C
:102C70006F9008954615570591F42617370724F0ED
:102C8000892D4B01C22FD82F9E01281939092F5F9A
:102C90003F4F068CF78DE02DA601B401DACF0284F8
:102CA000F385E02D0995D501ED91FC910488F58916
:102CB000E02D83019401A601BE01C5010995D5014E
:102CC000ED91FC910688F789E02DC501DF91CF9148
:102CD0001F910F91FF90EF90DF90CF90BF90AF903A
:102CE0009F908F907F906F900994EF92FF920F9337
:102CF0001F93DC011A960D911C911B9718962D912C
:102D00003C911997ED91FC9100A0F1A1E02D7B0180
:102D100050E040E070E060E009951F910F91FF9056
:102D2000EF9008954F925F926F927F928F929F9251
:102D3000AF92BF92CF92DF92EF92FF920F931F93C9
:102D4000CF93DF936C012B015A0139014801DC015B
:102D5000ED91FC910284F385E02D0995E201640C6C
:102D6000751CD601ED91FC91C615D7055CF4008861
:102D7000F189E02D87019401A501BE01C6010995E5
:102D80002196EFCF0688F789E02DC601DF91CF911C
:102D90001F910F91FF90EF90DF90CF90BF90AF9079
:102DA0009F908F907F906F905F904F9009948F923B
:102DB0009F92AF92BF92CF92DF92EF92FF920F93CA
:102DC0001F93CF93DF93EC015B014A016901E88116
:102DD000F9810284F385E02D099595012C0D3D1DA7
:102DE00021503109E881F9810488F589E02D7801C5
:102DF0008401A401B501CE010995E881F981068815
:102E0000F789E02DCE01DF91CF911F910F91FF90B7
:102E1000EF90DF90CF90BF90AF909F908F900994EC
:102E20008F929F92AF92BF92CF92DF92EF92FF92DA
:102E30000F931F93CF93DF93EC015B014A0169016C
:102E40007801E881F9810284F385E02D0995C80CA9
:102E5000D91C860101501109E881F9810488F5899E
:102E6000E02D9501A401B501CE010995E881F98114
:102E70000688F789E02DCE01DF91CF911F910F9148
:102E8000FF90EF90DF90CF90BF90AF909F908F908A
:102E90000994EF92FF920F931F93DC01ED91FC9147
:102EA00000A0F1A1E02D09951F910F91FF90EF90E7
:102EB00008950F931F93DC01ED91FC91068CF78D23
:102EC000E02D09951F910F9108950F931F93DC0139
:102ED000ED91FC91048CF58DE02D09951F910F91DA
:102EE0000895DC01ED91FC910084F185E02D0994B9
:102EF0003F924F925F926F927F928F929F92AF928A
:102F0000BF92CF92DF92EF92FF920F931F93CF93D6
:102F1000DF935C017B014A016901390187E0680E9A
:102F2000711C93E0759467949A95E1F72B01400E1C
:102F3000511E10E000E0312CD0E0C0E0CE018770DF
:102F40009927330C892B59F4FE0183E0F595E79519
:102F50008A95E1F7E00FF11FE80DF91D349037FE77
:102F60000AC021E030E0A701B5016C0F7D1F86E6A5
:102F700093E00E9471172196CC16DD06F9F68FEFCB
:102F8000E81AF80A060D171DE414F504A9F6DF91F6
:102F9000CF911F910F91FF90EF90DF90CF90BF9056
:102FA000AF909F908F907F906F905F904F903F90E9
:102FB00008952F923F924F925F926F927F928F92DD
:102FC0009F92AF92BF92CF92DF92EF92FF920F93B8
:102FD0001F93CF93DF9300D000D000D0CDB7DEB7E2
:102FE0003C016A013E832D83FC82EB825801A41AC6
:102FF000B50AB7FE03C0B194A194B1088D809E803C
:10300000861A970A97FE03C09194819491088A14B6
:103010009B045CF0902F812F0D811E819D838E83F8
:103020009C2D8D2D6B01692F782F0C151D055CF0E3
:103030009D818E817E836D83692F782F902F812FC4
:103040008601C92ED82E1601201A310A2B012D8196
:103050003E81421A530A57FE03C0519441945108CD
:10306000710137FE03C03FEFE31AF30AF594E794CA
:103070008D819E81861797075CF5A1E0B0E0BA8349
:10308000A983C016D1064CF1D301ED91FC910484C3
:10309000F585E02D2B813C81A8016D817E818A140C
:1030A0009B041CF04D815E81B801C3010995E418B1
:1030B000F508F7FE0AC02D813E8189819A81280F8B
:1030C000391F3E832D83E20CF31C0F5F1F4FD9CFB6
:1030D0002FEF3FEF3A832983D4CF26960FB6F8948B
:1030E000DEBF0FBECDBFDF91CF911F910F91FF903B
:1030F000EF90DF90CF90BF90AF909F908F907F9098
:103100006F905F904F903F902F900895089590E0BA
:1031100080E00895CF93DF93EC010E94DE0968837D
:1031200079838A839B83DF91CF910895FC0140814D
:10313000518182819381248135818417950768F0BC
:103140002817390790F44817590758F00895CA010D
:103150002417350750F4C90108C082179307B8F344
:103160000895CA0142175307B0F30895FC019081F6
:10317000222339F0941738F49F5F9083089591507B
:10318000FCCF6917E0F30895E091EA03E150E830DD
:1031900008F07EC0282FF0E0E053F74E0C94503436
:1031A000D818F518FD181919201933193A194119A9
:1031B0004091F4036091F3038BEE93E00E94B61804
:1031C0008091EB03833031F41092EC0381E0809323
:1031D000F603089589E08093F6039091EC039A300A
:1031E00008F456C08093EC0308954091F603609173
:1031F000F5038CEE93E00C94B6184091F8036091BF
:10320000F7038DEE93E00E94B6188091ED038130B4
:1032100031F48093EE0382E08093FA03089589E00D
:103220008093FA039091EE039A3090F18093EE032D
:1032300008954091FA036091F9038EEE93E0DBCF9D
:103240004091FC036091FB038FEE93E00E94B6185F
:103250008091EF038230E1F41092F0031092F103B9
:103260001092F20308954091FE036091FD0380EFF8
:1032700093E0C1CF409100046091FF0381EF93E0A0
:10328000BACF409102046091010482EF93E0B3CF82
:1032900008951F93CF93DF93EC011C82611104C04A
:1032A0008A819B81892BF1F0162F0E94DE092881EB
:1032B0003981AB01421B530B9A01EA81FB81E93052
:1032C000F10508F041C0E959F64E0C9450347019DC
:1032D00076197E19AD198619A4198E1996199619A1
:1032E00011112FC0DF91CF911F910895112361F12A
:1032F00044315105BCF322E030E01CC0112339F108
:10330000283532407CF328E030E014C0111122C08F
:10331000203931403CF325E030E00CC01123E9F0C6
:1033200044315105FCF227E030E004C029E030E0F0
:103330001111D8CF798368833B832A8381E08C8302
:10334000D1CF21E030E0F6CF30E020E0F3CF23E032
:1033500030E0F0CF26E030E0EDCF24E030E0EACFFF
:10336000FC01868190E0DC01AA0FBB1FAE0FBF1FDE
:103370006D937C93019663E070E00E941A3486831B
:103380008781833010F48F5F87830895CF92DF9217
:10339000EF92FF920F931F93CF93DF93EC018EE494
:1033A00080937C0062E070E080E090E00E94AC09D5
:1033B00088E000E010E0980190917A00906490938A
:1033C0007A0090917A0096FDFCCF60917800709120
:1033D0007900060F171F211D311D815069F7A901C2
:1033E000980173E056954795379527957A95D1F7CB
:1033F0004427552762EA7BE181E691E40E942E345E
:10340000CA01B9016C507E4F8F4F9F4F28EE33E0B9
:1034100040E050E00E942E3468E080E090E0DC0163
:10342000E0E4E0937C0070917A00706470937A001D
:1034300070917A0076FDFCCFC0907800D090790032
:103440000D2C000CEE08FF088C0D9D1DAE1DBF1D40
:10345000615039F763E0B695A795979587956A957A
:10346000D1F76C017D01EE24FF24CA01B901882740
:103470009927A70196010E94F6332FEF33E040E031
:1034800050E00E942E34C9016AE070E00E940634C8
:10349000798B688BCE010E94B0198F818823B1F19E
:1034A000CE010E949618EB89FC8920E0E817F90705
:1034B000A0F44D895E8924E68417950770F49C0179
:1034C0002E1B3F0BA4E6B0E00E94E7334E1B5F0BC0
:1034D0009A0150E040E00E942E342A8B7E0188E061
:1034E000E80EF11C622F70E0C7010E94B0198F85B1
:1034F000882379F0C7010E949618DF91CF911F9120
:103500000F91FF90EF90DF90CF90089590E080E0D2
:10351000CACF80E0F2CF0F931F93CF931092C903CD
:103520001092C8031092D1031092D00382EC93E062
:103530000E94C619C3E0082F10E0B8018AEC93E09E
:103540000E94B0196091D2037091D30382EC93E092
:103550000E94B019C15089F7CF911F910F91089522
:10356000FB0101900020E9F73197AF01461B570B93
:10357000DC01ED91FC910280F381E02D09948F92A2
:103580009F92AF92BF92EF92FF920F931F93CF93B0
:10359000DF93CDB7DEB7A1970FB6F894DEBF0FBEAD
:1035A000CDBF7C01FA01CB0119A2223008F42AE038
:1035B0008E010F5D1F4F822E912CB12CA12CBF01CB
:1035C000A50194010E942E34F901CA016A300CF55C
:1035D000605DD8016E938D01232B242B252B79F769
:1035E00090E080E0109721F0BD01C7010E94B01A61
:1035F000A1960FB6F894DEBF0FBECDBFDF91CF917D
:103600001F910F91FF90EF90BF90AF909F908F9080
:103610000895695CDECF8F929F92AF92BF92DF9246
:10362000EF92FF920F931F93CF93DF938C01005C77
:103630001F4FD8012D913C912115310509F474C01B
:10364000EC01C9010E94C619D82ED801ED91FC9158
:10365000E088F1884701B12CA12C2AE0B501A7012F
:103660008DEB92E00E94BF1A6EE671E08DEB92E066
:103670000E94B01AD801ED91FC91838994898E152E
:103680009F0508F04FC0B3E6BD1510F483E6D82EB1
:1036900081E08C8B8D8BF12CE12C08E010E022E393
:1036A00030E050E040E070E060E0CE010E94921611
:1036B0002EE130E050E040E064E670E0CE010E9490
:1036C00092161D861C861F861E862AE0B501A4015F
:1036D000CE010E94BF1A84E690E09D878C871F86EA
:1036E0001E86E9E0ED1520F060E2CE010E94CC14C8
:1036F0004D2D50E070E060E02AE0CE010E94BF1A3C
:1037000065E2CE010E94CC14CE01DF91CF911F91D2
:103710000F91FF90EF90DF90BF90AF909F908F90B0
:103720000C94A111D12CB4CFDF91CF911F910F91A7
:10373000FF90EF90DF90BF90AF909F908F90089593
:103740009F92AF92BF92CF92DF92EF92FF920F9330
:103750001F93CF93DF9300D000D0CDB7DEB7809119
:10376000E40389838091E5038A838091E1038B835D
:103770008091E2038C8310E000E0CE0101966C01A1
:10378000F12CE12CF60191906F015801AE0CBF1C99
:10379000C5010E948F33981621F0692DC5010E9442
:1037A0009733FFEFEF1AFF0A84E0E816F10451F7B0
:1037B0000C5F1F4F0C30110501F70F900F900F9009
:1037C0000F90DF91CF911F910F91FF90EF90DF90BD
:1037D000CF90BF90AF909F9008950E943836FC0123
:1037E00080819181009711F00C94F2340895EF924A
:1037F000FF920F931F93CF93DF93EC017B018A011C
:1038000088819981009729F02A813B812417350707
:1038100088F4B8016F5F7F4F0E947B35009791F06D
:10382000998388831B830A832C813D81232B11F488
:10383000FC0110821D830C83B701888199810E944D
:103840004D360CC088819981009711F00E94F234A6
:10385000198218821D821C821B821A82CE01DF917E
:10386000CF911F910F91FF90EF900895EF92FF92EB
:103870000F931F93CF93DF93CDB7DEB762970FB649
:10388000F894DEBF0FBECDBF8C01CB01F8011182D1
:10389000108213821282158214824AE09E012F5FE9
:1038A0003F4F7901B9010E945A33F701019000207E
:1038B000E9F73197AF014E195F09B701C8010E94BE
:1038C000F71B62960FB6F894DEBF0FBECDBFDF9137
:1038D000CF911F910F91FF90EF900895EF92FF927B
:1038E0000F931F93CF93DF93CDB7DEB729970FB612
:1038F000F894DEBF0FBECDBF8C01862FF801118278
:10390000108213821282158214824AE09E012F5F78
:103910003F4F7901B90190E00E946533F7010190B2
:103920000020E9F73197AF014E195F09B701C801CF
:103930000E94F71B29960FB6F894DEBF0FBECDBFCD
:10394000DF91CF911F910F91FF90EF900895FC01AF
:103950001182108213821282158214826115710500
:1039600051F0FB0101900020E9F73197AF01461BB0
:10397000570B0C94F71B0895FC01868197819C01DD
:10398000295F3F4F37FF02C0295F3F4F83E03595E6
:1039900027958A95E1F784819581289FA001299F29
:1039A000500D389F500D112470E060E0878D90A17C
:1039B0000C944636CF92DF92EF92FF920F931F93B3
:1039C000CF93DF93CDB7DEB76A970FB6F894DEBF1B
:1039D0000FBECDBF182FD62E86E693E00E94BC1CEA
:1039E000E12EF12C8D2D90E001969F938F931F92E5
:1039F0001F9381E791E09F938F938E010F5F1F4F7D
:103A00001F930F930E945436B801CE0145960E9431
:103A1000A71C81E080937A0380937B031092730349
:103A2000109272031092750310927403BE016B5EC4
:103A30007F4F86E693E00E94130ACE0145960E94CE
:103A4000EF1B8701015011090FB6F894DEBF0FBEBE
:103A5000CDBF43E0000F111F4A95E1F7D1105CC0C4
:103A60000A591C4FF801E355FF4F60817181CE0167
:103A700045960E94361C23E0F22EF0927A03F092D3
:103A80007B0310927303109272033CE0C32ED12C7F
:103A9000D0927503C0927403BE016B5E7F4F86E6C1
:103AA00093E00E94130ACE0145960E94EF1BF80195
:103AB000E155FF4F60817181CE0145960E94361C11
:103AC000F0927A03F0927B0380E490E0909373038A
:103AD00080937203D0927503C0927403BE016B5E33
:103AE0007F4F86E693E00E94130ACE0145960E941E
:103AF000EF1B86E693E00E94A1116A960FB6F89438
:103B0000DEBF0FBECDBFDF91CF911F910F91FF9010
:103B1000EF90DF90CF900895095E1B4FF801608110
:103B20007181CE0145960E94361C13E010937A03F2
:103B300010937B0310927303109272038CE0C82ED3
:103B4000D12CD0927503C0927403BE016B5E7F4F7F
:103B500086E693E00E94130ACE0145960E94EF1B71
:103B6000F70193E0EE0FFF1F9A95E1F7EF5EFB4F31
:103B700060817181CE0145960E94361C10937A03B4
:103B800010937B03A1CF85ED8093BC008091390217
:103B900090913A02A0913B02B0913C020796A11D80
:103BA000B11D23E0B695A795979587952A95D1F7EE
:103BB0002091BC0024FD03C0109282020895409120
:103BC000390250913A0260913B0270913C02452BC0
:103BD000462B472B69F30097A105B10541F02AE276
:103BE0002A95F1F700C00197A109B109E1CF8091B1
:103BF00038020C942A0E2CE2289FB001299F700DE8
:103C0000112468597F4F4CE250E08CEC91E00E9407
:103C10004B331092F7018CEC91E008950F931F93B2
:103C2000CF93DF9300D000D000D0CDB7DEB786E6CB
:103C300093E00E94BC1C89E090E00E94FB1DBC0147
:103C4000CE0101960E94A71CE6E6F3E081E0848B9A
:103C5000858B1586148617861686BE016F5F7F4F8B
:103C6000CF010E94130ACE0101960E94EF1B86E647
:103C700093E00E94A11100E011E083ED98E0F801CB
:103C800091838083E9E6F0E080818C7F8083E89AED
:103C900030E020E050E040E06AE070E08CEB92E041
:103CA0000E942E0BE89884ED98E0F80191838083C0
:103CB0008EEB93E00E948A1826960FB6F894DEBF2A
:103CC0000FBECDBFDF91CF911F910F91089520912D
:103CD000D2033091D3038091D5039091D603281756
:103CE0003907F0F586E693E00E94BC1C82E08093E1
:103CF0007A0380937B0381E090E090937903809333
:103D00007803909377038093760310927303109255
:103D10007203109275031092740385E090E00E9484
:103D2000FB1D009729F0BC0186E693E00E94B01AC3
:103D30006EE671E086E693E00E94B01A86E693E0B4
:103D40000E94A11168EB7BE080E090E00E94AC094A
:103D50008EEA0E94C9101092E3030E940E1EFFCF4C
:103D600008950F931F93CF93DF9300D000D000D01E
:103D7000CDB7DEB78C010E94BC1C8091DB03909113
:103D8000DC038230910599F18430910599F1019716
:103D9000A1F581E090E00E94FB1DBC01CE010196DF
:103DA0000E94A71C82E0F801848B858B15861486FF
:103DB0008CE090E097878687BE016F5F7F4FC801D8
:103DC0000E94130ACE0101960E94EF1BC8010E94B7
:103DD0000B1BC8010E94A11126960FB6F894DEBFF6
:103DE0000FBECDBFDF91CF911F910F91089582E05B
:103DF00090E0D1CF83E090E0CECF80E791E0CDCFCF
:103E0000CF92DF92FF920F931F93CF93DF9300D057
:103E100000D000D0CDB7DEB786E693E00E94BC1C90
:103E200062E871E0CE0101960E94A71C06E613E04D
:103E300081E0F801848B858B15861486178616869B
:103E4000BE016F5F7F4FC8010E94130ACE01019629
:103E50000E94EF1B6BE871E0CE0101960E94A71C47
:103E600082E0F82EF801F48AF58A158614868CE033
:103E700090E097878687BE016F5F7F4FC8010E94E1
:103E8000130ACE0101960E94EF1BC8010E94A111E6
:103E900068EE73E080E090E00E94AC09C8010E94E7
:103EA000BC1C62E971E0CE0101960E94A71CF801DA
:103EB000F48AF58A1586148617861686BE016F5F0A
:103EC0007F4FC8010E94130ACE0101960E94EF1B8A
:103ED00069E971E0CE0101960E94A71CF801F48AFD
:103EE000F58A1586148692E1C92ED12CD786C6860E
:103EF000BE016F5F7F4FC8010E94130ACE01019679
:103F00000E94EF1BC8010E94A11168EE73E080E0DF
:103F100090E00E94AC09C8010E94BC1C6FE971E0EE
:103F2000CE0101960E94A71CF801F48AF58A158635
:103F3000148617861686BE016F5F7F4FC8010E94E8
:103F4000130ACE0101960E94EF1B65EA71E0CE01D3
:103F500001960E94A71CF801F48AF58A158614863A
:103F6000D786C686BE016F5F7F4FC8010E94130AC5
:103F7000CE0101960E94EF1BC8010E94A11168EEBC
:103F800073E080E090E00E94AC09C8010E94B11E7D
:103F900026960FB6F894DEBF0FBECDBFDF91CF914E
:103FA0001F910F91FF90DF90CF900895CF92DF92F5
:103FB000EF92FF920F931F93CF93DF93CDB7DEB7AE
:103FC0002E970FB6F894DEBF0FBECDBF86E693E006
:103FD0000E94BC1C8FE190E00E94FB1DBC01CE0141
:103FE00001960E94A71C86E6E82E83E0F82E81E069
:103FF000F701848B858B1586148617861686BE017D
:104000006F5F7F4FC7010E94130ACE0101960E9485
:10401000EF1B88E0EAE0F1E0DE01119601900D92DD
:104020008A95E1F7E091EA03EC0FFD2FF11D608125
:1040300070E001E010E029E030E04FE150E0C7011E
:104040000E94DC0C6091EB03CE0109960E946E1C6D
:1040500012E0F701148B158B158614869FE0C92E8C
:10406000D12CD786C686BE01675F7F4FC7010E94ED
:10407000130ACE0109960E94EF1B6091EC03CE015A
:1040800009960E946E1CF701148B158B8CE090E052
:1040900095878487D786C686BE01675F7F4FC70135
:1040A0000E94130ACE0109960E94EF1B6FEA71E08D
:1040B000CE0109960E94A71CF701148B158B84E191
:1040C00090E095878487D786C686BE01675F7F4F5D
:1040D000C7010E94130ACE0109960E94EF1B60914E
:1040E000ED03CE0109960E946E1CF701148B158B0F
:1040F0008EE190E095878487D786C686BE01675F8C
:104100007F4FC7010E94130ACE0109960E94EF1B40
:104110006091EE03CE0109960E946E1CF701148B8C
:10412000158B8AE290E095878487D786C686BE0184
:10413000675F7F4FC7010E94130ACE0109960E9454
:10414000EF1B6FEA71E0CE0109960E94A71CF701F0
:10415000148B158B82E390E095878487D786C6867B
:10416000BE01675F7F4FC7010E94130ACE01099607
:104170000E94EF1B6091EF03CE0109960E946E1C16
:10418000F701148B158B8CE390E095878487D78695
:10419000C686BE01675F7F4FC7010E94130ACE012A
:1041A00009960E94EF1B6091F003CE0109960E94D0
:1041B0006E1CF701148B158B88E490E0958784873B
:1041C000D786C686BE01675F7F4FC7010E94130A6C
:1041D000CE0109960E94EF1B6091F103CE01099672
:1041E0000E946E1CF701148B158B84E590E0958777
:1041F0008487D786C686BE01675F7F4FC7010E944E
:10420000130ACE0109960E94EF1B6091F203CE01C2
:1042100009960E946E1CF701148B158B80E690E0C6
:1042200095878487D786C686BE01675F7F4FC701A3
:104230000E94130ACE0109960E94EF1BC7010E943B
:10424000A1112E960FB6F894DEBF0FBECDBFDF9141
:10425000CF911F910F91FF90EF90DF90CF90089535
:10426000EF92FF920F931F93CF93DF9300D000D074
:1042700000D0CDB7DEB786E693E00E94BC1C8EE18D
:1042800090E00E94FB1DBC01CE0101960E94A71C7C
:1042900081E080937A0380937B03109273031092E2
:1042A00072031092750310927403BE016F5F7F4F0B
:1042B00086E693E00E94130ACE0101960E94EF1B4E
:1042C0008091E903813061F401E010E029E030E001
:1042D0004FE150E070E060E086E693E00E94DC0C85
:1042E0006091E603CE0101960E946E1C12E01093CD
:1042F0007A0310937B0310927303109272038FE082
:10430000E82EF12CF0927503E0927403BE016F5F0A
:104310007F4F86E693E00E94130ACE0101960E9429
:10432000EF1B8091E903823058F16091E703CE01E1
:1043300001960E946E1C10937A0310937B038EE10A
:1043400090E09093730380937203F0927503E09270
:104350007403BE016F5F7F4F86E693E00E94130AED
:10436000CE0101960E94EF1B01E010E029E030E051
:104370004FE150E06EE170E086E693E00E94DC0CD5
:104380008091E903833070F16091E803CE010196DA
:104390000E946E1C82E080937A0380937B038CE3FF
:1043A00090E090937303809372038FE090E090937A
:1043B000750380937403BE016F5F7F4F86E693E0C1
:1043C0000E94130ACE0101960E94EF1B01E010E04B
:1043D00029E030E04FE150E06CE370E086E693E0E6
:1043E0000E94DC0C86E693E00E940B1B86E693E0BD
:1043F0000E94A11126960FB6F894DEBF0FBECDBF66
:10440000DF91CF911F910F91FF90EF900895CF937F
:10441000DF9300D000D000D0CDB7DEB786E693E0C2
:104420000E94BC1C89E190E00E94FB1DBC01CE01F2
:1044300001960E94A71C81E080937A0380937B03FE
:10444000109273031092720310927503109274030A
:10445000BE016F5F7F4F86E693E00E94130ACE0194
:1044600001960E94EF1B9091E0038091E50391116A
:1044700035C0882381F18BE190E00E94FB1DBC01D7
:10448000CE0101960E94A71C82E080937A0380935C
:104490007B0310927303109272038CE090E0909370
:1044A000750380937403BE016F5F7F4F86E693E0D0
:1044B0000E94130ACE0101960E94EF1B86E693E04C
:1044C0000E94A11126960FB6F894DEBF0FBECDBF95
:1044D000DF91CF9108958AE190E0CFCF882319F042
:1044E0008CE190E0CACF8DE190E0C7CFCF93DF930E
:1044F00000D000D000D0CDB7DEB786E693E00E94B2
:10450000BC1C84E190E00E94FB1DBC01CE01019621
:104510000E94A71C81E080937A0380937B03109212
:104520007303109272031092750310927403BE010C
:104530006F5F7F4F86E693E00E94130ACE010196DB
:104540000E94EF1B8091DF03811137C08091E2034D
:10455000882381F186E190E00E94FB1DBC01CE0121
:1045600001960E94A71C82E080937A0380937B03CC
:1045700010927303109272038CE090E09093750395
:1045800080937403BE016F5F7F4F86E693E00E94C5
:10459000130ACE0101960E94EF1B86E693E00E946B
:1045A000A11126960FB6F894DEBF0FBECDBFDF91E6
:1045B000CF91089585E190E0CFCF813051F4809183
:1045C000E103882319F088E190E0C6CF87E190E00D
:1045D000C3CF823019F489E190E0BECF83E190E04F
:1045E000BBCF8F929F92AF92BF92CF92DF92EF920A
:1045F000FF920F931F93CF93DF93CDB7DEB7AE97A4
:104600000FB6F894DEBF0FBECDBF8091AD030E9400
:10461000FF0861E02091AF033091B00328173907FC
:1046200009F060E088EA93E00E9449198091B6039E
:104630000E94FF0861E02091B8033091B903281768
:10464000390709F060E081EB93E00E9449198091FD
:10465000AC03882329F18091AA039091AB030797BB
:10466000F9F48091B5038823D9F08091B303909138
:10467000B4030797A9F48091E30311E081278093A5
:10468000E303811130C01092DE031092DD0381E05C
:1046900090E09093DC038093DB030E94001F72C0C4
:1046A0000E94DE09009140041091410420914204CF
:1046B00030914304601771078207930708F071C0B7
:1046C000AE960FB6F894DEBF0FBECDBFDF91CF918F
:1046D0001F910F91FF90EF90DF90CF90BF90AF9020
:1046E0009F908F90089586E693E00E94BC1C62E83C
:1046F00071E0CE0101960E94A71C10937A031093DB
:104700007B03109273031092720310927503109240
:104710007403BE016F5F7F4F86E693E00E94130A29
:10472000CE0101960E94EF1B61EB71E0CE01019674
:104730000E94A71C82E080937A0380937B031092EF
:104740007303109272038CE090E090937503809352
:104750007403BE016F5F7F4F86E693E00E94130AE9
:10476000CE0101960E94EF1B86E693E00E94A11104
:1047700068EE73E080E090E00E94AC0986E693E08A
:104780000E94B11E0E94DE0968517C4F8F4F9F4FDF
:1047900060934004709341048093420490934304D7
:1047A0008FCF8091AC038823D1F08091AA039091A0
:1047B000AB030597A1F48EEB93E00E948A188091D9
:1047C000DD039091DE038230910509F41EC308F0E9
:1047D00043C2009709F458C2019709F4E8C28091D6
:1047E000AC038823C1F08091AA039091AB03079793
:1047F00091F48EEB93E00E948A181092DE031092DF
:10480000DD0381E090E09093DC038093DB0386E698
:1048100093E00E94B11E8091AC038823D1F0809177
:10482000AA039091AB030897A1F48EEB93E00E944A
:104830008A188091DD039091DE038230910509F49E
:10484000BBC308F026C3009709F43AC3019709F4E3
:10485000AFC38091B5038823D1F08091B3039091C9
:10486000B4030597A1F48EEB93E00E948A1880911F
:10487000DD039091DE038230910509F4FDC308F059
:10488000BFC3009709F4D4C3019709F40BC4809106
:10489000B503882309F473C18091B3039091B403E5
:1048A000079709F055C18EEB93E00E948A1880911A
:1048B000DD039091DE03019709F046C18091E50385
:1048C00081117BC02091EB038AE09091EC03289F3B
:1048D000900D11242091ED03E091EE03289FE00D4F
:1048E00011242091EF034091F003289F400D1124E3
:1048F0003091F1032091F203389F200D112430E014
:1049000054E6459F200D311D1124E33010F4215051
:104910003109F0E0EF5EFE4FE081E90FFF27FF1F56
:10492000E20FF31FB9017695679576956795E60FC7
:10493000F71FC90160E971E00E940634E60FF71F16
:10494000C90164E670E00E940634CF01861B970B14
:1049500067E070E00E9406340A960E94FB1D8C01FD
:1049600086E693E00E94BC1CB801CE0101960E942D
:10497000A71C82E080937A0380937B0310927303D9
:10498000109272038CE090E090937503809374030F
:10499000BE016F5F7F4F86E693E00E94130ACE014F
:1049A00001960E94EF1B86E693E00E94A11168EB3E
:1049B0007BE080E090E00E94AC098091E4038430C9
:1049C00009F0B8C08091E503882309F4B3C32091AE
:1049D000E6038091E903823009F095C38091E703F3
:1049E00090E06AE0269F800D911D112420913304F0
:1049F000821B91099C0197FF02C02D5F3F4F3595A7
:104A0000279535952795820F931FA901440F551FB0
:104A1000440F551F841B950B40910304420F532FE5
:104A2000511D509314044093130440910404420F09
:104A3000532F511D509316044093150440910504C3
:104A4000420F532F511D5093180440931704409167
:104A50000604480F592F511D50931A04409319040E
:104A600040910704420F532F511D50931C04409353
:104A70001B0440910804480F592F511D50931E04E8
:104A800040931D0440910904420F532F511D509330
:104A9000200440931F0440910A04420F532F511DDC
:104AA000509322044093210440910B04480F592F46
:104AB000511D509324044093230440910C04420F51
:104AC000532F511D509326044093250440910D040B
:104AD000420F532F511D50932804409327044091B7
:104AE0000E04420F532F511D50932A044093290462
:104AF00040910F04420F532F511D50932C044093AB
:104B00002B0440911004420F532F511D50932E043B
:104B100040932D0440911104840F911D9093300413
:104B200080932F0480911204280F311D309332049A
:104B30002093310460E081E00E94DA1C85E090E07F
:104B40009093DE038093DD038091B5038823B9F051
:104B50008091B3039091B403089789F48EEB93E0AE
:104B60000E948A188091DD039091DE0381309105C7
:104B700009F488C308F45AC3059709F4A0C30E9436
:104B8000DE0900913C0410913D0420913E043091D7
:104B90003F04601B710B820B930B60367A4E8105CC
:104BA0009105A0F00E94DE0960933C0470933D04DF
:104BB00080933E0490933F0482EC93E00E94C619D8
:104BC00086E693E00E940B1B0E94671E8091E10322
:104BD00060E0811101C062E086E693E00E949212DB
:104BE0000E94DE090091BE031091BF032091C00313
:104BF0003091C103601B710B820B930B0091BA03C0
:104C00001091BB032091BC033091BD030617170719
:104C10002807390708F054CD8EEA0E94C910109277
:104C2000E3030E940E1E0E94EA09882309F448CD7E
:104C30008EEB93E00E948A188FEA0E94C9100E94AE
:104C40008B1A1092DE031092DD0386E693E00E9439
:104C5000B11E0E94671E96CD8430910509F410C1E3
:104C600008F402C1059709F0BACD80913A0490E0AA
:104C700007968770992780933A04682F617086950C
:104C80008F5F0E94DA1CABCD8091DB039091DC0337
:104C90008230910599F084309105B9F08130910509
:104CA00009F09DCD9093DE038093DD038091E503B1
:104CB000882309F4A7C00E94302191CD9093DE0390
:104CC0008093DD030E9476228ACD9093DE03809349
:104CD000DD0386E693E00E94BC1C84E290E00E9423
:104CE000FB1DBC01CE0101960E94A71C11E0109390
:104CF0007A0310937B031092730310927203109245
:104D0000750310927403BE016F5F7F4F86E693E0D8
:104D10000E94130ACE0101960E94EF1B85E290E0EB
:104D20000E94FB1DBC01CE0101960E94A71C10939E
:104D30007A0310937B0310927303109272038AE03C
:104D400090E09093750380937403BE016F5F7F4F73
:104D500086E693E00E94130ACE0101960E94EF1BA3
:104D600086E290E00E94FB1DBC01CE0101960E94EC
:104D7000A71C10937A0310937B0310927303109275
:104D8000720384E190E09093750380937403BE01F5
:104D90006F5F7F4F86E693E00E94130ACE01019673
:104DA0000E94EF1B86E693E00E94A11118CD80912E
:104DB000E503882321F18091EA03813049F4809151
:104DC000E603882309F477CF81508093E60373CFFD
:104DD000823049F48091E703882309F46CCF815035
:104DE0008093E70368CF833009F065CF8091E803B3
:104DF000882309F460CF81508093E8035CCF80E082
:104E00000E94C4180E94D61FEACC8091DF03811152
:104E10000DC08091E20391E089278093E2030E9414
:104E2000A01B8091E2030E9413114CCF813081F4CA
:104E30009091E10389278093E10360E0811101C033
:104E400062E086E693E00E9492120E94A01B3ACF95
:104E5000823009F037CF83E090E09093DE038093B7
:104E6000DD030E940722BBCC81E09091E003911109
:104E700080E08093E5030E9407220E94A01BAFCC34
:104E80001092DE031092DD0386E693E00E94B11ECD
:104E9000A6CC8430910509F48FC008F4A8C005970A
:104EA00009F0D7CC81E090E09093DE038093DD039E
:104EB0008091E503882309F497C00E943021C9CC72
:104EC00085E08093E6038093E7038093E80391E015
:104ED0009093E9039093EA039093EB038093EC03A0
:104EE0001092ED038093EE039093EF0399E090937B
:104EF000F0038093F1038093F203E3E1F4E083E3B2
:104F000094E0118210821382128215821482178219
:104F1000168238968E179F07A1F781E0809334049C
:104F2000109235041092360410923704109238040F
:104F30001092390410923A040E948B1A86E693E08C
:104F40000E94BC1C84E090E00E94FB1DBC01CE01CD
:104F500001960E94A71C82E080937A0380937B03D2
:104F600010927303109272038CE090E0909375039B
:104F700080937403BE016F5F7F4F86E693E00E94CB
:104F8000130ACE0101960E94EF1B86E693E00E9471
:104F9000A11168EE73E080E090E00E94AC0986E623
:104FA00093E00E94B11E0E94F1220E94671E51CC24
:104FB0008091EA03813049F41092DE031092DD0300
:104FC00086E693E00E94B11E44CC81509091E503A7
:104FD000992341F09091E90391509093E9038093D4
:104FE000EA036BCF8093EA030E94D61F32CC82E0A3
:104FF00090E09093DE038093DD030E94762229CC1B
:105000008430910509F47AC008F441C0059709F08D
:105010003ECC80913A0490E0019687709927809366
:105020003A04682F617086958F5F0E94DA1C2FCC3E
:105030008091DB039091DC038130910591F48091A4
:10504000E303882359F082E090E09093DC0380939F
:10505000DB0386E693E00E94B11E19CC0E94001F7C
:1050600016CC8230910519F484E090E0EECF0497DD
:1050700081F781E090E0E9CF8091DF0390E0019635
:10508000837099278093DF030E94762200CC809161
:10509000E00390E00196817099278093E0030E94DD
:1050A0000722F5CB8091E503882311F18091EA0373
:1050B000813051F48091E603893018F48F5F80933A
:1050C000E6030E943021E3CB823041F48091E70374
:1050D0008930B8F78F5F8093E703F3CF833089F788
:1050E0008091E803893068F78F5F8093E803E9CF08
:1050F00081E00E94C4180E94D61FC9CB1092DE0323
:105100001092DD03A6CF833019F0822F90E06ECC91
:105110003091E703A4E62A9FC0011124AC016AE0A4
:10512000369F400D511D11248091E803840F952F67
:10513000911D5CCC2091ED039AE08091EE03299FB4
:10514000800D11242091EF034091F003299F400D21
:1051500011243091F1032091F203399F200D112485
:10516000322F5091EB032091EC03599F200D112415
:10517000622F70E0709314046093130490E0909396
:1051800016048093150450E05093180440931704BC
:10519000232F30E030931A0420931904F90131963B
:1051A000F0931C04E0931B04FA013197F0931E0462
:1051B000E0931D04FC013397F0932004E0931F0457
:1051C000FB013396F0932204E0932104FC01329713
:1051D000F0932404E0932304FB013296F093260419
:1051E000E0932504F9013296F0932804E093270414
:1051F000FA013297F0932A04E09329044F5F5F4F3E
:1052000050932C0440932B042150310930932E04E9
:1052100020932D046F5F7F4F7093300460932F04B1
:105220000197909332048093310484CC8EEA0E94DB
:10523000C9101092E3030E940E1E0E94EA098823FF
:1052400009F49DCC8EEB93E00E948A188FEA0E94AD
:10525000C9100E948B1A1092DE031092DD0386E6BD
:1052600093E00E94B11E0E94DE0968517C4F8F4F6F
:105270009F4F609340047093410480934204909345
:1052800043047DCC8091E503882379F08091E90384
:10529000833040F48F5F8093E9038091EA038F5F4E
:1052A0008093EA030E9430216ACC8091EA0388301F
:1052B00019F08F5F8093EA030E94D61F60CC809123
:1052C0003704833010F1109237048091340488231E
:1052D00061F0809135048F5F809335048430A8F0AD
:1052E000109234041092360410C080913804811159
:1052F000ABC0809136048F5F80933604843028F0F1
:1053000081E0809338041092390486E693E00E948D
:10531000BC1C809138048E010F5F1F4F811193C117
:105320006091370480913404882309F4F1C04091DE
:10533000350450E0FA01EE0FFF1FED5EFB4F808158
:105340009181FA01EE0FFF1FE55EFB4F2081318155
:10535000FA01EE0FFF1FED5DFB4FA081B1816130BF
:1053600009F4A9C008F480C0623009F4B6C081E233
:1053700090E00E94FB1DBC01CE0189960E94A71CF3
:10538000FF24F394F0927A03F0927B03109273035C
:10539000109272031092750310927403BE01675D40
:1053A0007F4F86E693E00E94130ACE0189960E9401
:1053B000EF1B6091350470E06F5F7F4FCE018996DF
:1053C0000E94361CF0927A03F0927B0384E190E015
:1053D0009093730380937203109275031092740379
:1053E000BE01675D7F4F86E693E00E94130ACE01FF
:1053F00089960E94EF1BB801CE0189960E94A71CD6
:1054000082E080937A0380937B031092730310925F
:1054100072038CE090E09093750380937403BE0157
:10542000675D7F4F86E693E00E94130ACE0189965E
:105430000E94EF1B86E693E00E94A1118091370441
:105440008F5F809337049BCB809139048F5F80936B
:105450003904823008F459CF1092380481E08093E7
:105460003404109235043ECFAC01420F531F443632
:10547000510590F05F934F933F932F938AEB91E008
:105480009F938F931F930F930E9454360FB6F894F7
:10549000DEBF0FBECDBF6BCF5F934F933F932F9374
:1054A0009F938F9382EC91E09F938F931F930F9321
:1054B0000E945436EBCF820F931FAD01480F591F46
:1054C0004436510528F05F934F93BF93AF93D6CFE7
:1054D0005F934F93BF93AF93E3CF440F551FFA01F0
:1054E000E55DFB4F40815181820F931F8A0F9B1F07
:1054F0009A01280F391F2436310528F03F932F9346
:105500005F934F93BBCF3F932F935F934F93C8CF3E
:10551000E0913604F0E0AF0173E0440F551F7A9537
:10552000E1F74A595C4FDA01A355BF4F8D919C9129
:10553000119712962D913C914F545F4FDA014D9186
:105540005C91613009F450C040F1623009F45EC0F2
:1055500080E290E00E94FB1DBC01CE0189960E9472
:10556000A71CFF24F394F0927A03F0927B0310922D
:105570007303109272031092750310927403BE01AC
:10558000675D7F4F86E693E00E94130ACE018996FD
:105590000E94EF1B609136040ECFAC01420F531FE7
:1055A0004436510590F05F934F933F932F938AEBCE
:1055B00091E09F938F931F930F930E9454360FB6E1
:1055C000F894DEBF0FBECDBFC3CF5F934F933F9321
:1055D0002F939F938F9382EC91E09F938F931F93D0
:1055E0000F930E945436EBCF820F931FBA01680FBE
:1055F000791F6436710528F07F936F935F934F9303
:10560000D6CF7F936F935F934F93E3CF63E0EE0F1B
:10561000FF1F6A95E1F7E75EFB4F60817181820FA2
:10562000931F840F951F9B01280F391F24363105C6
:1056300028F03F932F937F936F93B9CF3F932F938E
:105640007F936F93C6CF80913904811146C0E0905B
:105650001304F090140480901D0490901E04A090F8
:105660002704B0902804C0903104D090320482E224
:1056700090E00E94FB1DBC01C8010E94A71C81E0B4
:1056800080937A0380937B031092730310927203CA
:105690001092750310927403B80186E693E00E949D
:1056A000130AC8010E94EF1B80913704813009F46E
:1056B0004EC030F1823009F09ECEE80CF91CEA0CA5
:1056C000FB1CC7018C0D9D1D8436910508F451C04B
:1056D0009F938F93DF92CF921DC0E0901904F090BA
:1056E0001A0480901F0490902004A0902504B0908C
:1056F0002604C0902B04D0902C0483E290E0B9CF14
:10570000C701880D991D8436910590F09F938F9362
:105710009F928F928AEB91E09F938F931F930F93A9
:105720000E9454360FB6F894DEBF0FBECDBF63CED5
:105730009F938F939F928F92FF92EF9282EC91E0D2
:105740009F938F931F930F930E945436EBCFE80CD7
:10575000F91CC7018A0D9B1D8436910528F09F9383
:105760008F93BF92AF92D6CF9F938F93BF92AF92FA
:10577000E3CF9F938F93DF92CF92DECF1F920F9252
:105780000FB60F9211242F933F938F939F93AF9354
:10579000BF938091B4029091B502A091B602B091EE
:1057A000B7023091B30223E0230F2D3758F501964D
:1057B000A11DB11D2093B3028093B4029093B50252
:1057C000A093B602B093B7028091B8029091B9024B
:1057D000A091BA02B091BB020196A11DB11D8093A8
:1057E000B8029093B902A093BA02B093BB02BF91E2
:1057F000AF919F918F913F912F910F900FBE0F907E
:105800001F90189526E8230F0296A11DB11DD2CF37
:105810001F920F920FB60F9211242F933F934F9325
:105820005F936F937F938F939F93AF93BF93EF9308
:10583000FF93E0910201F09103010995FF91EF912F
:10584000BF91AF919F918F917F916F915F914F9198
:105850003F912F910F900FBE0F901F9018951F92A0
:105860000F920FB60F9211242F933F934F935F9394
:105870006F937F938F939F93AF93BF93EF93FF9318
:10588000E0910001F09101010995FF91EF91BF9125
:10589000AF919F918F917F916F915F914F913F91C8
:1058A0002F910F900FBE0F901F9018951F920F927F
:1058B0000FB60F9211242F933F934F935F936F93E3
:1058C0007F938F939F93AF93BF93EF93FF938DEB52
:1058D00092E00E949F0AFF91EF91BF91AF919F913B
:1058E0008F917F916F915F914F913F912F910F9089
:1058F0000FBE0F901F9018951F920F920FB60F9228
:1059000011242F938F939F93EF93FF93E091CD02F8
:10591000F091CE028081E091D302F091D40282FD19
:105920001BC090818091D6028F5F8F732091D70228
:10593000821741F0E091D602F0E0E354FD4F958FDD
:105940008093D602FF91EF919F918F912F910F90AD
:105950000FBE0F901F9018958081F4CF1F920F9269
:105960000FB60F9211248F930FB6F894A8958091DB
:105970006000886180936000109260000FBE8F917C
:105980000F900FBE0F901F9018951F920F920FB699
:105990000F9211242F933F934F935F936F937F93B5
:1059A0008F939F93AF93BF93EF93FF938091B90031
:1059B000887F803609F44AC0F0F5883209F4A7C020
:1059C00018F5803109F49BC0B8F4882309F4F9C0B4
:1059D000883009F494C0FF91EF91BF91AF919F91EE
:1059E0008F917F916F915F914F913F912F910F9088
:1059F0000FBE0F901F901895883109F488C080322F
:105A000051F78093810214C0803409F49DC040F4A2
:105A10008033B9F38833F9F68093810285ECB0C006
:105A2000803509F485C0883509F496C0883499F624
:105A30000E94C31DD0CF883909F48CC038F588374F
:105A400029F050F4883611F0803729F683E08093EE
:105A500082021092800257C0883809F47BC08039D6
:105A600019F0803809F0B7CF80918002803208F0B9
:105A700071C0E091800281E08E0F8093800280915E
:105A8000BB00F0E0E05AFD4F80833DC0803B39F021
:105A9000E0F4803A09F479C0883A09F09CCF84E0B8
:105AA0008093820210925F0210925E02E091AD023A
:105AB000F091AE02099580915E0281110FC081E0E4
:105AC00080935E0210923E0209C0803C09F4A6CF8A
:105AD000883C09F4A3CF883B09F07DCFE0915F02B9
