:100000000C9470050C9414200C94ED1F0C9498051E
:100010000C9498050C9498050C9493200C949805D6
:100020000C9498050C9498050C9498050C949805DC
:100030000C9498050C9498050C9498050C949805CC
:100040000C94A31F0C9498050C9461200C943B20F5
:100050000C9498050C9498050C9498050C949805AC
:100060000C94AA200C94980500000000003E5B4F01
:100070005B3E3E6B4F6B3E1C3E7C3E1C183C7E3C08
:10008000181C577D571C1C5E7F5E1C00183C180016
:10009000FFE7C3E7FF0018241800FFE7DBE7FF30A6
:1000A000483A060E2629792926407F050507407F14
:1000B00005253F5A3CE73C5A7F3E1C1C08081C1C87
:1000C0003E7F14227F22145F5F005F5F06097F017D
:1000D0007F006689956A606060606094A2FFA29468
:1000E00008047E040810207E201008082A1C080836
:1000F0001C2A08081E101010100C1E0C1E0C303884
:100100003E3830060E3E0E06000000000000005F84
:1001100000000007000700147F147F14242A7F2AA0
:100120001223130864623649562050000807030062
:10013000001C2241000041221C002A1C7F1C2A08AE
:10014000083E080800807030000808080808000011
:1001500060600020100804023E5149453E00427F85
:10016000400072494949462141494D331814127FD4
:100170001027454545393C4A494931412111090774
:100180003649494936464949291E000014000000F5
:1001900040340000000814224114141414140041C7
:1001A00022140802015909063E415D594E7C121184
:1001B000127C7F494949363E414141227F414141BC
:1001C0003E7F494949417F090909013E4141517337
:1001D0007F0808087F00417F41002040413F017FA8
:1001E000081422417F404040407F021C027F7F0470
:1001F00008107F3E4141413E7F090909063E4151B9
:10020000215E7F09192946264949493203017F01A8
:10021000033F4040403F1F2040201F3F4038403FA9
:10022000631408146303047804036159494D4300BF
:100230007F4141410204081020004141417F0402F6
:10024000010204404040404000030708002054548D
:1002500078407F284444383844444428384444286B
:100260007F385454541800087E090218A4A49C78BE
:100270007F0804047800447D40002040403D007F1A
:100280001028440000417F40007C047804787C08FA
:100290000404783844444438FC18242418182424CE
:1002A00018FC7C08040408485454542404043F44B3
:1002B000243C4040207C1C2040201C3C4030403CE2
:1002C00044281028444C9090907C4464544C440042
:1002D00008364100000077000000413608000201A6
:1002E0000204023C2623263C1EA1A161123A404092
:1002F000207A38545455592155557941225454780F
:1003000042215554784020545579400C1E527212A7
:100310003955555559395454545939555454580030
:1003200000457C410002457D420001457C407D1234
:1003300011127DF0282528F07C5455450020545496
:100340007C547C0A097F4932494949323A44444441
:100350003A324A4848303A4141217A3A424020787C
:10036000009DA0A07D3D4242423D3D4040403D3C7D
:1003700024FF2424487E4943662B2FFC2F2BFF09A2
:1003800029F620C0887E0903205454794100004496
:100390007D413048484A32384040227A007A0A0A81
:1003A000727D0D19317D2629292F282629292926F4
:1003B00030484D4020380808080808080808382F39
:1003C00010C8ACBA2F102834FA00007B00000814C3
:1003D0002A142222142A14085500550055AA55AA99
:1003E00055AAFF55FF55FF000000FF00101010FF39
:1003F00000141414FF001010FF00FF1010F010F094
:10040000141414FC001414F700FF0000FF00FF1484
:1004100014F404FC141417101F10101F101F1414D0
:10042000141F00101010F0000000001F101010101A
:100430001F10101010F010000000FF10101010100E
:1004400010101010FF10000000FF140000FF00FF4C
:1004500000001F10170000FC04F4141417101714E8
:1004600014F404F40000FF00F7141414141414140A
:10047000F700F7141414171410101F101F1414147D
:10048000F4141010F010F000001F101F0000001FE7
:1004900014000000FC140000F010F01010FF10FF1A
:1004A000141414FF141010101F00000000F010FFAF
:1004B000FFFFFFFFF0F0F0F0F0FFFFFF0000000093
:1004C00000FFFF0F0F0F0F0F3844443844FC4A4A17
:1004D0004A347E02020606027E027E0263554941CC
:1004E000633844443C04407E201E2006027E020203
:1004F00099A5E7A5991C2A492A1C4C7201724C3017
:100500004A4D4D303048784830BC625A463D3E49ED
:100510004949007E0101017E2A2A2A2A2A44445F91
:10052000444440514A444040444A51400000FF0185
:1005300003E080FF000008086B6B08361236243693
:10054000060F090F060000181800000010100030F8
:1005500040FF0101001F01011E00191D1712003C80
:100560003C3C3C0000000000000103070F1F3F7FE0
:100570000080C0E0F0F8FCFEDB40A4A62EAF200017
:10058000A1C8D300408DAED580A800006000000057
:100590000000000000000000000000E0000000007B
:1005A00000000000000000000001E000000000006A
:1005B000000000000000000001F00000000000004A
:1005C0000000000000000003F00000000000000038
:1005D00000000000000007F0000000000000000024
:1005E000000000000007F80000000000000000000C
:1005F000000000000FF800000003C0007E000001B2
:10060000E0007F0FF800000003C000FE000001E0E2
:1006100000FFEFF800000003C000FE000001E00052
:10062000FFFFF800000003C000F00000000F007F93
:10063000FE7FC0000003C000F00000000F003FFE7E
:100640007FF83FF1FBCFFCFEF3BC3DEFE01FFE7FE8
:10065000FF7FFBFFDFFEFEFFBC3DEFE01FC6FFFF9D
:100660007FFBFFDFFEFEFFBC3DEFE00FE3C7FE7840
:100670007BC3DE1EF0FFBC3DEF0007FF87FC787BED
:10068000C3DE1EF0F83C3DEF0001FFFFF0007BC32E
:10069000C01EF0F03C3DEF0001F37FE03FFBC3CF15
:1006A000FEF0F03C3DEF0003E33F807FFBC3DFFE45
:1006B000F0F03C3DEF0007E73C00787BC3DE1EF026
:1006C000F03C3DEF0007FFBE00787BC3DE1EF0F07C
:1006D0003C3DEF0007FFFE00787BC3DE1EF0F03CE0
:1006E0003DEF000FFFFE007FFBFFDFFEF0F03FFD60
:1006F000EFE00FFFFF007FFBFFDFFEF0F03FFDEFBD
:10070000E00FF9FF003E79F9CF9EF0F01F3DE7E0E2
:100710001FF1FF0000000000000000000000001FAB
:1007200080FF007FFFFFFFFFFFFFFFFFFFE01C00D8
:100730007F007FFFFFFFFEB46D888D18E000001F73
:10074000007FFFFFFFFE95AD7DB577E000000F0055
:100750007FFFFFFFFEA5AD9D8D19E0000006007F25
:10076000FFFFFFFEB5ADEDB57EE00000000000012B
:100770008000000000000000000003800000000076
:10078000000000000007C0000000000000000000A2
:1007900007C00000000000000000000FC0000000C3
:1007A0000000000000001FE000000000000000004A
:1007B000001FE00000000000000000003FE000001B
:1007C000000000000000003FF000000000000000FA
:1007D00000007FF0000000000000001FF87FF00024
:1007E0000000000000003FFE7FF00000000000005D
:1007F000003FFF7FF0000000000000001FFFFBE053
:10080000000000000000000FFFF9FFC00000000022
:1008100000000FFFF9FFF800000000000007FFF1E3
:10082000FFFF00000000000003FC73FFFF800000DA
:1008300000000001FE3FFFFF80000000000000FFFD
:100840001E0FFF000000000000007FFE1FFC0000E4
:1008500000000000003FFFFFF80000000000000063
:100860000FDFFFE0000000000000001F19FFC000C4
:100870000000000000003F3CFF00000000000000FE
:10088000007E7CF800000000000000007FFE7C007D
:1008900000000000000000FFFFFC0000000000005E
:1008A0000000FFFFFE0000000000000000FFFFFE50
:1008B0000000000000000001FFEFFE00000000004B
:1008C000000001FFCFFE0000000000000003FF0752
:1008D000FE0000000000000003FC07FE0000000016
:1008E00000000003F003FE00000000000000018093
:1008F00000FE000000000000000000007E0000007C
:10090000000000000000003E0000000000000000A9
:1009100000000C000000000000078000FC00000345
:10092000C0000000078001FC000003C000000007B9
:100930008001FC000003C0000000078001E000000F
:10094000001E000000078001E00000001E007FE3A1
:10095000F79FF9FDE7787BDFC0FFF7FFBFFDFDFFE5
:10096000787BDFC0FFF7FFBFFDFDFF787BDFC0F0C6
:10097000F787BC3DE1FF787BDE00F0F787BC3DE107
:10098000F0787BDE0000F787803DE1E0787BDE00D9
:100990007FF7879FFDE1E0787BDE00FFF787BFFDF3
:1009A000E1E0787BDE00F0F787BC3DE1E0787BDEBC
:1009B00000F0F787BC3DE1E0787BDE00F0F787BC14
:1009C0003DE1E0787BDE00FFF7FFBFFDE1E07FFB6C
:1009D000DFC0FFF7FFBFFDE1E07FFBDFC07CF3F38B
:1009E0009F3DE1E03E7BCFC0000000000000000022
:1009F000000000FFFFFFFFFFFFFFFFFFFFC0FFFF43
:100A0000FFFFFD68DB111A31C0FFFFFFFFFD2B5A0E
:100A1000FB6AEFC0FFFFFFFFFD4B5B3B1A33C0FFDC
:100A2000FFFFFFFD6B5BDB6AFDC053534431333086
:100A30003620626567696E206661696C6564002DA9
:100A40002D2D2D2D2D2D2D2D2D2D2D2D2D2D2D2DD6
:100A50002D2D2D2D2D002D2D2D2D204D6167696300
:100A600020537175617265202D2D2D2D0000000021
:100A700000240027002A0000000000250028002B89
:100A800000000000002300260029000404040404E0
:100A9000040404020202020202030303030303012B
:100AA0000204081020408001020408102001020402
:100AB00008102000000008000201000003040700E5
:100AC000000000000000002200FF210009060310C2
:100AD000040F0A050E01080B070C0D02E021E12DA1
:100AE00011241FBECFEFD8E0DEBFCDBF12E0A0E0E3
:100AF000B1E0E4E0FCE602C005900D92A23AB10735
:100B0000D9F724E0A2EAB2E001C01D92A33EB207E9
:100B1000E1F715E0CFE6D5E004C02197FE010E9481
:100B20005031CE36D107C9F70E94A7230C94F53572
:100B30000C940000089508950895833081F028F4FE
:100B4000813099F08230A9F008958730A9F088307B
:100B5000C9F08430B1F4809180008F7D03C0809112
:100B600080008F7780938000089584B58F7784BD4F
:100B7000089584B58F7DFBCF8091B0008F778093EF
:100B8000B00008958091B0008F7DF9CFCF93DF93AF
:100B9000282F30E0F901ED54F54F8491F901E15629
:100BA000F54FD491F901E557F54FC491CC23A1F04D
:100BB00081110E949D05EC2FF0E0EE0FFF1FEF5713
:100BC000F54FA591B491EC91ED2381E090E009F40B
:100BD00080E0DF91CF91089580E090E0FACF1F93FD
:100BE000CF93DF93282F30E0F901ED54F54F849136
:100BF000F901E156F54FD491F901E557F54FC4914C
:100C0000CC23A9F0162F81110E949D05EC2FF0E056
:100C1000EE0FFF1FE958F54FA591B4918FB7F894E7
:100C2000EC91111108C0D095DE23DC938FBFDF91CA
:100C3000CF911F910895DE2BF8CFCF93DF9390E0F3
:100C4000FC01E156F54F24918557954FFC018491A5
:100C50008823D1F090E0880F991FFC01E359F54FEC
:100C6000A591B491FC01E958F54FC591D49162303A
:100C700071F49FB7F8943C91822F809583238C93D5
:100C8000E8812E2B28839FBFDF91CF9108958FB7E6
:100C9000F894EC912E2B2C938FBFF6CF3FB7F8949E
:100CA00080915E0390915F03A0916003B091610316
:100CB00026B5A89B05C02F3F19F00196A11DB11DB7
:100CC0003FBFBA2FA92F982F8827BC01CD01620FF3
:100CD000711D811D911D42E0660F771F881F991FAE
:100CE0004A95D1F708958F929F92AF92BF92CF927B
:100CF000DF92EF92FF924B015C010E944E066B0166
:100D00007C010E944E066C197D098E099F09683E80
:100D1000734081059105A8F321E0821A9108A1088A
:100D2000B10888EEC80E83E0D81EE11CF11C8114C6
:100D30009104A104B10429F7FF90EF90DF90CF90C8
:100D4000BF90AF909F908F9008952FB7F8946091C7
:100D50005A0370915B0380915C0390915D032FBFF8
:100D60000895CF92DF92EF92FF920E94A5066B0149
:100D70007C010E94A5066C197D098E099F09683BBC
:100D80007B408105910560F482E00E94C6050197D1
:100D900069F06AE070E080E090E00E947306E9CFBD
:100DA00081E0FF90EF90DF90CF90089580E0F9CF41
:100DB00008950895AF92BF92CF92DF92EF92FF9283
:100DC0000F931F93CF93DF936C017B018B01040F73
:100DD000151FEB015E01AE18BF08C017D10759F00F
:100DE0006991D601ED91FC910190F081E02DC60151
:100DF0000995892B79F7C501DF91CF911F910F914B
:100E0000FF90EF90DF90CF90BF90AF900895FC01DE
:100E1000448155816081718180E194E00C94DA060F
:100E2000FC01538D448D252F30E0842F90E0821BF0
:100E3000930B541710F0CF96089501970895FC0175
:100E4000918D828D981761F0A28DAE0FBF2FB11DCD
:100E50005D968C91928D9F5F9F73928F90E0089525
:100E60008FEF9FEF0895FC01918D828D981731F0DF
:100E7000828DE80FF11D858D90E008958FEF9FEF33
:100E80000895FC01918D228D892F90E0805C9F4F09
:100E9000821B91098F739927089587E693E00E943A
:100EA000410721E0892B09F420E0822F089580E09A
:100EB00090E0892B29F00E944D0781110C940000CD
:100EC0000895FC01A48DA80FB92FB11DA35ABF4FDF
:100ED0002C91848D90E001968F739927848FA68939
:100EE000B7892C93A089B1898C91837080648C938D
:100EF000938D848D981306C00288F389E02D80813C
:100F00008F7D80830895EF92FF920F931F93CF936D
:100F1000DF93EC0181E0888F9B8D8C8D98131AC034
:100F2000E889F989808185FF15C09FB7F894EE891B
:100F3000FF896083E889F989808183708064808378
:100F40009FBF81E090E0DF91CF911F910F91FF90C3
:100F5000EF900895F62E0B8D10E00F5F1F4F0F736B
:100F60001127E02E8C8D8E110CC00FB607FCFACF26
:100F7000E889F989808185FFF5CFCE010E9461075C
:100F8000F1CFEB8DEC0FFD2FF11DE35AFF4FF082F7
:100F90009FB7F8940B8FEA89FB8980818062CFCF5D
:100FA000CF93DF93EC01888D8823B9F0AA89BB89A0
:100FB000E889F9898C9185FD03C0808186FD0DC08B
:100FC0000FB607FCF7CF8C9185FFF2CF808185FFAC
:100FD000EDCFCE010E946107E9CFDF91CF91089557
:100FE0004115510529F4EAE7F0E080818F7780838D
:100FF0006A307105B9F0CB01880F991F880F991FCE
:10100000807267706860682B88E10FB6F894A895C5
:10101000809360000FBE60936000E0E6F0E08081A6
:1010200080648083232BD9F483B7817F846083BF5E
:10103000F89483B7816083BF85B7806685BF8F7D55
:1010400085BF7894889583B78E7F83BF7894452B2E
:1010500029F4EAE7F0E0808180688083089583B70F
:10106000817F846083BFF89483B7816083BF789465
:10107000889583B78E7F83BF7894E9CF2F923F9274
:101080004F925F926F927F928F929F92AF92BF9298
:10109000CF92DF92EF92FF920F931F93CF93DF9344
:1010A00000D01F92CDB7DEB7DC0112962C9122231F
:1010B00009F4ECC09B838A83FC0180818111A2C06A
:1010C000EE24E394F12C10E000E0AA81BB81169697
:1010D000AD90BC9017971496CD90DC901597129612
:1010E0008C918E151F0409F008F488C045018E0C00
:1010F0009F1CF401F081F98384E0F89FF001112432
:10110000EC0DFD1D4080518062807380D501EC9113
:10111000B4E0EB9FF0011124EC0DFD1D2081318125
:1011200042815381C301B2010E943D2E18160CF07A
:101130005CC0EA81FB818085811130C05701850147
:1011400001501109D401EE914D01B4E0EB9FF00183
:101150001124EC0DFD1D2081318142815381C30199
:10116000B2010E943D2E87FD02C0850104C05801D6
:101170000115110521F7C701AA81BB8116962D9192
:101180003C91F901E80FF91F0817190788F5019735
:10119000280F391FD9012C912083EECF813059F7C8
:1011A0008701312C212CC80182199309029718F369
:1011B0004801820C931C96948794F501E80DF91D63
:1011C000E08184E0E89FF0011124EC0DFD1D2081F9
:1011D000318142815381C301B2010E943D2E87FDBE
:1011E00002C01401E0CF8401DECF10E000E0C3CFE5
:1011F000B981B083EFEFEE1AFE0A67CF81E0AA81D2
:10120000BB818C93EA81FB81428124813581868177
:101210009781E42FE695E80FF92FF11DA08184E076
:10122000A89FD0011124A20FB31F6D917D918D91C4
:101230009C9140FD15C031974081A4E04A9FA001D8
:101240001124240F351FF9012081318142815381FE
:101250000E940A3020E030E040E05FE30E94A32ECD
:101260000F900F900F90DF91CF911F910F91FF90F2
:10127000EF90DF90CF90BF90AF909F908F907F9036
:101280006F905F904F903F902F90089560E070E0D6
:1012900080EC9FE7E5CFCF93DF93FC01248135817C
:1012A0009381A1E0A90FA383B4E09B9FC001112407
:1012B000820F931FEC01488359836A837B8391815A
:1012C000A91708F013828281891710F48F5F828337
:1012D0001082DF91CF910895FC0112821382108257
:1012E00090E08181981738F4A681B781A90FB11DCC
:1012F0009C939F5FF6CF0895EF92FF920F931F93F9
:10130000CF93DF93EC01EC80FD806E157F050CF030
:1013100070C057FF04C0240F351F50E040E08E819D
:101320009F81FA01E20FF31F8E179F071CF49C01A7
:10133000241B350B121613060CF05BC0922F842F62
:101340008695869586958E9DD0018F9DB00D112432
:101350006A0F7B1FAF8DB8A1A60FB71F477049F169
:1013600088E0841B482F682F70E0FB01E059FA4F9A
:10137000E491281708F063C0621B71092FEF30E079
:1013800002C0359527956A95E2F7E22301301105F1
:1013900039F0B0F10230110561F58C91E82702C0F7
:1013A0008C91E82BEC93941720F12C813D81A20FB6
:1013B000B31FE92FE41BE83078F00230110521F566
:1013C0008E2F9C9190959C932C813D81A20FB31FF1
:1013D00088508830B0F7E770EE2359F0F0E0E85914
:1013E000FA4FE49101301105F9F010F102301105C6
:1013F00019F1DF91CF911F910F91FF90EF90089518
:10140000E0958C91E823CECF81E00115110509F418
:1014100080E081959E2F8C932C813D81A20FB31F7C
:1014200098509830C0F7D7CF8C91E82BEC93E1CF50
:10143000E0958C91E823FACF8C91E827F7CF013023
:10144000110509F4ADCFE0F20230110509F4A5CF82
:10145000AE0DBF1DAECF0F931F93CF93DF9377FFDA
:1014600004C0260F371F70E060E0DC011496CD91B8
:10147000DC91FB01E20FF31FCE17DF071CF49E0186
:10148000261B370B121613064CF5FA0157FD37963B
:10149000A3E0F595E795AA95E1F7EC9FD001ED9FC4
:1014A000B00DFC9FB00D11246A0F7B1FDC015F960D
:1014B000ED91FC91E60FF71F4770552781E090E012
:1014C00001C0880F4A95EAF7482F0130110559F0FD
:1014D000A8F02E0F3F1F02301105E1F0DF91CF91F0
:1014E0001F910F9108952E0F3F1FE217F307B1F3DD
:1014F0008191DF011197842B8C93F7CF80952E0F6C
:101500003F1FE217F30751F39191DF0111979823E1
:101510009C93F7CFE217F30709F38191DF0111974D
:1015200084278C93F7CF0F931F93FA01DC01569613
:101530004C9156974230E9F04330A1F1413061F5CA
:1015400014964D915C91DA01AE1BBF0BFD01E21BBD
:10155000F30B77FD0BC0DC0116964D915C9164177F
:10156000750724F4AB01BF010E942B0A1F910F9154
:10157000089514964D915C91DA01A61BB70BBD013D
:1015800061507109DC0116964D915C91DA01AE1B38
:10159000BF0BFD01E21BF30B77FDE8CFAF010E940B
:1015A0007C09E4CF16964D915C91DA01A61BB70B2E
:1015B000BD0161507109CDCF0F931F93FA01DC017A
:1015C00056964C9156974230A9F0433091F14130F4
:1015D00019F514964D915C91DA01AE1BBF0BFD011C
:1015E0003197F7FD04C0AB01BF010E947C091F9138
:1015F0000F91089514964D915C91DA01A61BB70BDB
:10160000BD01DC0116964D915C91DA01AE1BBF0B5A
:10161000FD013197621B730BF7FDE9CFDC011696D4
:101620004D915C91E417F50714F7AF010E942B0A66
:10163000DECF16964D915C91DA01A61BB70BBD016A
:10164000621B730BCECFFC0177FD64C08085918552
:10165000681779070CF05EC057FD5CC082859385E2
:10166000481759070CF056C086898230B1F0833094
:1016700029F1813041F484819581841B950BAB0164
:10168000BC01615071092130310509F108F443C0F2
:101690002230310509F463C0089584819581DC010D
:1016A000A61BB70BBD016150710986819781DC01D2
:1016B000A41BB50BAD0141505109E5CF868197813F
:1016C000861B970BBA01AC0141505109DCCFCA010E
:1016D00057FD0796A3E095958795AA95E1F7A48114
:1016E000B5818A9F90018B9F300D9A9F300D1124F8
:1016F000620F731F078CF0A1E02DE60FF71F4770F4
:10170000552721E030E001C0220F4A95EAF7808199
:10171000822B80830895CA0157FD079633E0959583
:1017200087953A95E1F7A481B5818A9F90018B9FB7
:10173000300D9A9F300D1124620F731F078CF0A19A
:10174000E02DE60FF71F4770552781E090E001C0BC
:10175000880F4A95EAF7809590818923DACFCA01EC
:1017600057FD079623E0959587952A95E1F7A48183
:10177000B5818A9F90018B9F300D9A9F300D112467
:10178000620F731F078CF0A1E02DE60FF71F477063
:10179000552721E030E001C0220F4A95EAF7808109
:1017A0008227B7CF20910803260F3327331F21321A
:1017B0003105ECF420912C03FC0190E080E0243012
:1017C00069F082E00895A09108032191AC0148518D
:1017D0005D4FA40FB52FB11D2C930196861798F37A
:1017E00080910803680F6093080380E0089581E00A
:1017F00008959B01AC0160E074E284EF90E00E94E8
:10180000D82F2051310941095109569547953795EF
:1018100027952093B800089510922C0381E08093BF
:101820002E0310922D0361E082E10E94EF0561E03A
:1018300083E10E94EF05E9EBF0E080818E7F8083F9
:1018400080818D7F808388E48093B80085E48093D5
:10185000BC000895CF93DF9391E09093E702882333
:10186000B9F0C091B800D091BA008091BC008A7BD9
:101870008093BC0060E082E10E94EF0560E083E1BC
:101880000E94EF050E940C0CD093BA00C093B800E0
:10189000DF91CF910895E091580380915703E817A5
:1018A00030F4F0E0EE53FD4F808190E008958FEF2B
:1018B0009FEF089590915803809157032FEF3FEFCA
:1018C000981748F4E92FF0E0EE53FD4F208130E007
:1018D0009F5F90935803C901089580915703909199
:1018E0005803891B990B0895CF92DF92EF92FF92D4
:1018F0000F931F93CF93DF937C01CB018A0120913B
:101900006603222389F0EB016B01C40ED51ECC15B2
:10191000DD0569F06991D701ED91FC910190F081AD
:10192000E02DC7010995F3CF642F0E94D20BC801A7
:10193000DF91CF911F910F91FF90EF90DF90CF90AB
:101940000895CF93DF931F92CDB7DEB769832091BF
:1019500066032223F9F020916303203258F021E03E
:1019600030E0FC013383228390E080E00F90DF9130
:10197000CF91089580916403E82FF0E0EE55FD4F7C
:10198000998190838F5F809364038093630381E0E8
:1019900090E0ECCF61E0CE0101960E94D20BF7CF30
:1019A000CF92DF92EF92FF920F931F93CF93DF932B
:1019B000D091630381E0D13208F09CC0C0916503EF
:1019C0000E944E066B017C0180912C0381116CC03A
:1019D00082E080932C0381E080932E038FEF80932D
:1019E0002B0310925003D0934F03A2EAB2E0EFE230
:1019F000F3E080E0D8138DC0109251038091510321
:101A0000CC0FC82BC093510380912D03813009F076
:101A100084C010922D030E944E066B017C018091C0
:101A200051038093BB008091E3029091E402A09166
:101A3000E502B091E602892B8A2B8B2BA1F00E9444
:101A40004E060091E3021091E4022091E5023091EC
:101A5000E6026C197D098E099F09061717072807EA
:101A6000390708F442C08091BC0083FDD8CF85ECD3
:101A70008093BC000E944E066B017C0180912C0378
:101A8000823009F44CC080912B038F3F09F469C068
:101A900080912B03803209F466C080912B03803340
:101AA00009F463C084E026C08091E3029091E402CF
:101AB000A091E502B091E602892B8A2B8B2B09F4C9
:101AC00083CF0E944E060091E3021091E402209120
:101AD000E5023091E6026C197D098E099F0906170F
:101AE00017072807390708F06FCF8091E2020E949C
:101AF0002A0C85E01092640310926303109266032F
:101B0000DF91CF911F910F91FF90EF90DF90CF90D9
:101B100008959D9191938F5F6DCF85EEA9CF8091B0
:101B2000E3029091E402A091E502B091E602892BD4
:101B30008A2B8B2B09F4A2CF0E944E060091E30260
:101B40001091E4022091E5023091E6026C197D09C2
:101B50008E099F09061717072807390708F08ECF47
:101B6000C4CF80E0C7CF82E0C5CF83E0C3CF089564
:101B70008EBD00000DB407FEFDCF8EB50895EF9227
:101B8000FF920F931F93CF93DF937C01C62F809119
:101B90002D0490912E04009709F459C0209131042E
:101BA00031E0309366032093650310926403109232
:101BB0006303DC01ED91FC910190F081E02D60E088
:101BC00009958701EE24E394F12CD1E0C150809176
:101BD0002D0490912E04CF3F91F1B0E2EB16F10469
:101BE000D8F00E94D00C80912D0490912E04209169
:101BF0003104D0936603209365031092640310921E
:101C00006303DC01ED91FC910190F081E02D60E037
:101C10000995EE24E394F12C80912D0490912E04EB
:101C2000F8016491DC01ED91FC910190F081E02DCF
:101C30000995BFEFEB1AFB0A0F5F1F4FC7CFDF916C
:101C4000CF911F910F91FF90EF900C94D00CE091E9
:101C50003D04F0913E049081809143048095892356
:101C600080838701C15008F438C0F8018491209125
:101C70002B0430912C04232B29F00E94B80D0F5F08
:101C80001F4FF0CF28E030E040E8E0913904F091B8
:101C90003A0490914104582F5423D9F05081952B48
:101CA0009083E0913B04F0913C0490815091420478
:101CB000952B9083E0913B04F0913C0450819091EE
:101CC0004204909595239083469521503109E9F679
:101CD000D6CF508190959523E3CFDF91CF911F917F
:101CE0000F91FF90EF9008951F93CF93DF93EC0136
:101CF0008D8D9E8D009721F1162F29A131E0309313
:101D00006603209365031092640310926303DC0161
:101D1000ED91FC910190F081E02D60E009958D8DB1
:101D20009E8DDC01ED91FC910190F081E02D612F01
:101D300009958D8D9E8DDF91CF911F910C94D00CC4
:101D4000ADA5BEA59C918BA9809589238C938B8D85
:101D50009C8D892B31F0862FDF91CF911F910C94B0
:101D6000B80D28E030E080E8A9A5BAA599A9462FCA
:101D70004823C1F04C91942B9C93ABA5BCA59C919E
:101D80004AA9942B9C93ABA5BCA54C919AA990957C
:101D900094239C9386952150310931F7DF91CF919F
:101DA0001F9108954C9190959423E6CF8CBD9DBDD5
:101DB0000895DF92EF92FF920F931F93CF93DF93DB
:101DC00080912D0490912E04892B09F48AC0609192
:101DD00045047091460480914704909148040E9404
:101DE000F90B65E087EC9AE00E94BF0D6091140446
:101DF000615080E194E00E94740E209116043091AD
:101E00001704C901079697FD079623E095958795D6
:101E10002A95E1F72091140430911504829F8001E6
:101E2000839F100D929F100D1124C0912F04D0910B
:101E3000300480912D0490912E040C0F1D1F0097EB
:101E400009F480C02091310431E03093660320937F
:101E500065031092640310926303DC01ED91FC9121
:101E60000190F081E02D60E40995EE24E394F12CDB
:101E7000DD24D39480912D0490912E040C171D071E
:101E800009F446C0B0E2EB16F104D8F00E94D00C81
:101E900080912D0490912E0420913104D0926603FC
:101EA000209365031092640310926303DC01ED91AB
:101EB000FC910190F081E02D60E40995EE24E3941B
:101EC000F12C80912D0490912E046991DC01ED910B
:101ED000FC910190F081E02D0995BFEFEB1AFB0A10
:101EE000C9CF80912B0490912C04892B31F08091E3
:101EF0004E0490914F040E94D60EE0913F04F09161
:101F0000400490818091440480958923808369CF27
:101F10000E94D00C80912D0490912E04892B09F4FD
:101F200052C06091490470914A0480914B04909191
:101F30004C04DF91CF911F910F91FF90EF90DF90B4
:101F40000C94F90BE0913D04F0913E048081909156
:101F50004304892B80830C171D07E1F2899120919E
:101F60002B0430912C04232B19F00E94B80DF3CFD1
:101F700028E030E040E8E0913904F0913A04909193
:101F80004104582F5423D9F05081952B9083E09130
:101F90003B04F0913C04908150914204952B908336
:101FA000E0913B04F0913C04508190914204909563
:101FB00095239083469521503109E9F6CCCF508185
:101FC00090959523E3CFE0913F04F0914004808108
:101FD00090914404892B8083DF91CF911F910F91C1
:101FE000FF90EF90DF900895CF93C82F80912D043C
:101FF00090912E04892B01F1609145047091460463
:1020000080914704909148040E94F90B6C2F80E165
:1020100094E00E94740E80912D0490912E04892BDF
:1020200011F16091490470914A0480914B049091A0
:102030004C04CF910C94F90B80912B0490912C04BB
:10204000892B31F080914E0490914F040E94D60E5E
:10205000E0913F04F0914004908180914404809588
:1020600089238083D3CFE0913F04F09140048081A5
:1020700090914404892B8083CF9108951F93CF932F
:10208000DF93EC01162F8D8D9E8D892BC9F06DA9E4
:102090007EA98FA998AD0E94F90B66EA111167EA33
:1020A000CE010E94740E8D8D9E8D892BC9F069AD75
:1020B0007AAD8BAD9CADDF91CF911F910C94F90B54
:1020C0008B8D9C8D892B21F08EAD9FAD0E94D60EFD
:1020D000EFA5F8A990818CA9809589238083DDCF15
:1020E000EFA5F8A980819CA9892B8083DF91CF91EE
:1020F0001F9108950895FC016370668B848195811A
:1021000026813781613039F0633029F091878087EB
:1021100033872287089531872087938782870895A0
:102120002F923F924F925F926F927F928F929F92E7
:10213000AF92BF92CF92DF92EF92FF920F931F93D5
:10214000CF93DF93CDB7DEB76A970FB6F894DEBFB3
:102150000FBECDBF9A8F898F7A8369834A01D22EB1
:1021600018870F833701BC2CDC0159962D913C91C7
:102170005A972115310509F015C118968D919C913A
:102180001997681779070CF0D7C11A968D919C9111
:10219000481759070CF0D0C14C2C512CB6E0CB9EFF
:1021A000600D711D11247C876B87161617060CF0C5
:1021B000C3C1EA2DF0E0FA87E98793E0EE0FFF1F35
:1021C0009A95E1F7F88BEF87CF01840F951F1816CA
:1021D00019060CF0B1C1A98DBA8D58968C91811158
:1021E00004C0BFEABD1508F4D394A98DBA8DED9152
:1021F000FC9111970284F385E02DCD010995B5E09E
:10220000DB9EC0011124E981FA81FC83EB83312C30
:10221000212C9C0128593F4F388F2F8B4A2D50E09D
:102220005E8B4D8BEF89F88DE20DF31D44919E82FC
:102230008D82D12CC12C69817A81620D731D7A8BBC
:10224000698B842F90E09C8B8B8BE98DFA8DA0811C
:10225000B18140FF82C0F1E0BF126FC0AF126DC00C
:102260001C96ED91FC912F813885A4014C0D5D1DCC
:1022700069897A89898D9A8D0995EB89FC89F5950B
:10228000E7954E2F5FEFC51AD50A6D817E818D8946
:102290009E89680F791F7E836D8398E0C916D104EB
:1022A00081F6AFEF2A1A3A0AEB81FC81E40DF51DA5
:1022B000FC83EB83F5E02F16310409F0B3CF2F81B7
:1022C000388526153705B9F0A98DBA8DED91FC91A9
:1022D000B1E0BB1257C0AB1255C069817A816B5F08
:1022E0007F4F0088F189E02D830128E030E0A401D0
:1022F000898D9A8D0995A98DBA8DED91FC911197D3
:102300000688F789E02DCD016A960FB6F894DEBFF6
:102310000FBECDBFDF91CF911F910F91FF90EF9036
:10232000DF90CF90BF90AF909F908F907F906F90F5
:102330005F904F903F902F9009941E96ED91FC91E5
:10234000EF80F88409851A8592014D815E816B8149
:102350007C81898D9A8D099590CF2F81388526159E
:10236000370509F48ACF31E0B31207C0A31205C0C4
:102370001C96ED91FC91930178CF1E96ED91FC9106
:102380007301E0CF6B857C85641975090684F78538
:10239000E02D73010F8518899201A401898D9A8D12
:1023A0000995A9CFF90134969491329745915491AA
:1023B000D91AB7E0DB9E400D511D1124F90125917A
:1023C00034913C8B2B8BFA0125903490FA01329694
:1023D000749031963491398B329664903196449052
:1023E00041E04C1518F04A1508F07FC0662D062C08
:1023F000000C770B7C836B83842D042C000C990BD1
:102400009E838D83A98DBA8DED91FC9111970284E5
:10241000F385E02DCD010995512CD12CC12CEA2D4D
:10242000F0E0FA87E9872B2D30E03C872B87A40169
:10243000440D511D47FC5A95588F4F8B69817A8105
:10244000660D711D67FC7A957E876D877989C71641
:1024500008F051CF2C2D30E04D815E81420F531F8B
:10246000A985BA854A9FC0014B9F900D5A9F900D38
:102470001124FC01E80DF91DF88BEF87852D612CE7
:102480004F89588D420F531F5E8B4D8B671408F098
:1024900050C044244394480E877041F4C101019612
:1024A000EB89FC89E20DF31DD4901C01D7FE19C005
:1024B000A98DBA8DED91FC91662D70E0B1E0BB1253
:1024C00019C0AB1217C02D853E85620F731F04849F
:1024D000F585E02D2F8138854D895E89898D9A8D0E
:1024E0000995DD0C6394842DD1CF1E821D821C8240
:1024F0001B8288CF4B815C81640F751FAB85BC85C7
:102500006A9FC0016B9F900D7A9F900D1124698185
:102510007A81680F791F0684F785E02DEF80F884B3
:1025200009851A859D014F855889898D9A8D099550
:10253000D8CF570CC3948ACF6A960FB6F894DEBFF3
:102540000FBECDBFDF91CF911F910F91FF90EF9004
:10255000DF90CF90BF90AF909F908F907F906F90C3
:102560005F904F903F902F9008958F929F92AF92DF
:10257000CF92EF92FF920F931F93CF93DF93EC01D3
:10258000262F898D9A8D009709F051C06A30D1F4B9
:102590001D861C868D8948E0849F900111248E85BC
:1025A0009F85820F931F9F878E8781E090E0DF9148
:1025B000CF911F910F91FF90EF90CF90AF909F9090
:1025C0008F9008956D3089F3CC88AD888F898823EA
:1025D000C1F08C859D8536E0C39E800D911D112430
:1025E000488559854817590764F44E855F851D86CF
:1025F0001C8638E0A39EC0011124840F951F9F877D
:102600008E87EA88FB88088919894E855F856C85E5
:102610007D85CE010E9490102C898C859D8546E099
:10262000249F800D911D11249D878C87BECF6A3019
:1026300069F41D861C86FC013896E4912D898E85EF
:102640009F85E29F800D911D1124ADCF6D3009F45F
:10265000ACCFFC0134963491631708F4A6CF3296C0
:10266000E491E61708F4A1CFFC013296859094908E
:10267000462F431B342F47E0349F800C911C1124BC
:10268000F401329634913196E4913323A9F1EE238B
:1026900099F1CC88F4013596E491AD884F894423B3
:1026A00001F10E2E000CFF0BE30FF11DCE9EA001D9
:1026B000CF9E500D11246C857D85460F571F688570
:1026C0007985641775076CF44E855F851D861C86B9
:1026D000FC013896E491AE9E400D511D11245F8798
:1026E0004E87EA88FB88088919894E855F856C8545
:1026F0007D85CE010E949010F4013496E4912C89DE
:102700008C859D85E29F800D911D11248DCF6F9248
:102710007F928F929F92AF92BF92CF92DF92EF9271
:10272000FF920F931F93CF93DF93EC016B015A013C
:1027300039014801E881F9810284F385E02D09958A
:10274000E881F9810288F389E02D87019301A501D1
:10275000B601CE010995A501480D591D41505109F9
:10276000E881F9810288F389E02D9301B601CE0159
:102770000995E881F9810088F189E02D9401A5018E
:10278000B601CE010995C60CD71CB601615071097E
:10279000E881F9810088F189E02D9401A501CE013D
:1027A0000995E881F9810688F789E02DCE01DF914E
:1027B000CF911F910F91FF90EF90DF90CF90BF903E
:1027C000AF909F908F907F906F9009946F927F92BF
:1027D0008F929F92AF92BF92CF92DF92EF92FF9231
:1027E0000F931F93CF93DF935C01EB016A014901C3
:1027F00038018701DC01ED91FC916217730719F52F
:10280000641675062CF0962D872D3A01C92ED82E08
:102810009601261937092F5F3F4F048CF58DE02D67
:10282000A301BE01C5010995DF91CF911F910F91C1
:10283000FF90EF90DF90CF90BF90AF909F908F90E0
:102840007F906F9008954615570591F42617370726
:1028500024F0892D4B01C22FD82F9E012819390948
:102860002F5F3F4F068CF78DE02DA601B401DACF24
:102870000284F385E02D0995D501ED91FC91048842
:10288000F589E02D83019401A601BE01C5010995DA
:10289000D501ED91FC910688F789E02DC501DF9106
:1028A000CF911F910F91FF90EF90DF90CF90BF904D
:1028B000AF909F908F907F906F900994EF92FF92CE
:1028C0000F931F93DC011A960D911C911B9718967C
:1028D0002D913C911997ED91FC9100A0F1A1E02D73
:1028E0007B0150E040E070E060E009951F910F919E
:1028F000FF90EF9008954F925F926F927F928F9228
:102900009F92AF92BF92CF92DF92EF92FF920F937E
:102910001F93CF93DF936C012B015A0139014801BA
:10292000DC01ED91FC910284F385E02D0995E20133
:10293000640C751CD601ED91FC91C615D7055CF4AD
:102940000088F189E02D87019401A501BE01C6012F
:1029500009952196EFCF0688F789E02DC601DF9112
:10296000CF911F910F91FF90EF90DF90CF90BF908C
:10297000AF909F908F907F906F905F904F90099451
:102980008F929F92AF92BF92CF92DF92EF92FF927F
:102990000F931F93CF93DF93EC015B014A01690111
:1029A000E881F9810284F385E02D099595012C0DCC
:1029B0003D1D21503109E881F9810488F589E02D18
:1029C00078018401A401B501CE010995E881F9815E
:1029D0000688F789E02DCE01DF91CF911F910F91ED
:1029E000FF90EF90DF90CF90BF90AF909F908F902F
:1029F00009948F929F92AF92BF92CF92DF92EF9203
:102A0000FF920F931F93CF93DF93EC015B014A0179
:102A100069017801E881F9810284F385E02D099547
:102A2000C80CD91C860101501109E881F98104887C
:102A3000F589E02D9501A401B501CE010995E88144
:102A4000F9810688F789E02DCE01DF91CF911F91A2
:102A50000F91FF90EF90DF90CF90BF90AF909F903D
:102A60008F900994EF92FF920F931F93DC01ED91E9
:102A7000FC9100A0F1A1E02D09951F910F91FF900D
:102A8000EF9008950F931F93DC01ED91FC91068C5C
:102A9000F78DE02D09951F910F9108950F931F93C6
:102AA000DC01ED91FC91048CF58DE02D09951F91D1
:102AB0000F910895DC01ED91FC910084F185E02DEA
:102AC00009943F924F925F926F927F928F929F9262
:102AD000AF92BF92CF92DF92EF92FF920F931F932C
:102AE000CF93DF935C017B014A016901390187E0E3
:102AF000680E711C93E0759467949A95E1F72B0129
:102B0000400E511E10E000E0312CD0E0C0E0CE01BC
:102B100087709927330C892B59F4FE0183E0F595D2
:102B2000E7958A95E1F7E00FF11FE80DF91D349064
:102B300037FE0AC021E030E0A701B5016C0F7D1F10
:102B400080E194E00E945A152196CC16DD06F9F634
:102B50008FEFE81AF80A060D171DE414F504A9F61C
:102B6000DF91CF911F910F91FF90EF90DF90CF9069
:102B7000BF90AF909F908F907F906F905F904F909D
:102B80003F9008952F923F924F925F926F927F9263
:102B90008F929F92AF92BF92CF92DF92EF92FF926D
:102BA0000F931F93CF93DF9300D000D000D0CDB709
:102BB000DEB73C016A013E832D83FC82EB82580123
:102BC000A41AB50AB7FE03C0B194A194B1088D80D0
:102BD0009E80861A970A97FE03C09194819491086B
:102BE0008A149B045CF0902F812F0D811E819D83A0
:102BF0008E839C2D8D2D6B01692F782F0C151D0553
:102C00005CF09D818E817E836D83692F782F902F5C
:102C1000812F8601C92ED82E1601201A310A2B01C8
:102C20002D813E81421A530A57FE03C051944194AC
:102C30005108710137FE03C03FEFE31AF30AF59420
:102C4000E7948D819E81861797075CF5A1E0B0E03F
:102C5000BA83A983C016D1064CF1D301ED91FC9142
:102C60000484F585E02D2B813C81A8016D817E8156
:102C70008A149B041CF04D815E81B801C301099543
:102C8000E418F508F7FE0AC02D813E8189819A81FA
:102C9000280F391F3E832D83E20CF31C0F5F1F4F5B
:102CA000D9CF2FEF3FEF3A832983D4CF26960FB6A3
:102CB000F894DEBF0FBECDBFDF91CF911F910F9172
:102CC000FF90EF90DF90CF90BF90AF909F908F904C
:102CD0007F906F905F904F903F902F900895089550
:102CE00090E080E00895CF93DF93EC010E94A50669
:102CF000688379838A839B83DF91CF9108958EE4E3
:102D000080937C0062E370E080E090E00E947306B4
:102D100080917A00806480937A0080917A0086FDA9
:102D2000FCCF209178003091790050E040E060E0E5
:102D300078EE86E190E00E94772FCA01B9016B5FBF
:102D40007F4F8F4F9F4F2AE030E040E050E00E94DD
:102D5000772FC90108958CE694E00E946C0985E7FD
:102D600094E00E946C090E947F16BC01990F880BA9
:102D7000990B0E94442EAB01BC0140937E045093FA
:102D80007F0460938004709381048CE694E00E9439
:102D90004B098CE694E00E943E080E94E8309B01BB
:102DA000AC012856314041095109A4E6B0E00E9427
:102DB000962F28E230E040E050E00E94772FCA01D1
:102DC000B9010E94442EAB01BC0140938204509390
:102DD0008304609384047093850485E794E00C94E5
:102DE0004B09FC019081222339F0941738F49F5F3E
:102DF000908308959150FCCF6917E0F30895E09116
:102E00009504E150E83008F069C0282FF0E0E55F54
:102E1000F84E0C945031131725172D173F174617EE
:102E200059176017671740919F0460919E0486E9C7
:102E300094E00E94F11680919604833021F089E09D
:102E40008093A104089581E0FBCF4091A10460919B
:102E5000A00487E994E00C94F1164091A3046091DA
:102E6000A20488E994E00E94F116809198048130D0
:102E700021F089E08093A504089582E0FBCF409182
:102E8000A5046091A40489E994E0E5CF4091A704EA
:102E90006091A6048AE994E00E94F11680919A0458
:102EA0008230E1F410929B0410929C0410929D04D5
:102EB00008954091A9046091A8048BE994E0CBCFD8
:102EC0004091AB046091AA048CE994E0C4CF409196
:102ED000AD046091AC048DE994E0BDCF08951F93DB
:102EE000CF93DF93EC011C82611104C08A819B8126
:102EF000892BF1F0162F0E94A50628813981AB019C
:102F0000421B530B9A01EA81FB81E930F10508F07D
:102F100041C0E357F84E0C94503196179C17A417F4
:102F2000D317AC17CA17B417BC17BC1711112FC091
:102F3000DF91CF911F910895112361F14431510523
:102F4000BCF322E030E01CC0112339F128353240B7
:102F50007CF328E030E014C0111122C02039314048
:102F60003CF325E030E00CC01123E9F04431510579
:102F7000FCF227E030E004C029E030E01111D8CFA6
:102F8000798368833B832A8381E08C83D1CF21E0DE
:102F900030E0F6CF30E020E0F3CF23E030E0F0CFB8
:102FA00026E030E0EDCF24E030E0EACF20911604B7
:102FB00030911704C901079697FD079623E0959570
:102FC00087952A95E1F72091140430911504829F8A
:102FD000A001839F500D929F500D112470E060E07E
:102FE00080912F04909130040C9446330E94383322
:102FF000FB0101900020E9F73197AF01461B570B09
:10300000DC01ED91FC910280F381E02D09948F9217
:103010009F92AF92BF92EF92FF920F931F93CF9325
:10302000DF93CDB7DEB7A1970FB6F894DEBF0FBE22
:10303000CDBF7C01FA01CB0119A2223008F42AE0AD
:103040008E010F5D1F4F822E912CB12CA12CBF0140
:10305000A50194010E94D82FF901CA016A300CF52C
:10306000605DD8016E938D01232B242B252B79F7DE
:1030700090E080E0109721F0BD01C7010E94F81791
:10308000A1960FB6F894DEBF0FBECDBFDF91CF91F2
:103090001F910F91FF90EF90BF90AF909F908F90F6
:1030A0000895695CDECF0F931F93CF93DF938C015C
:1030B000D0E0C0E0F801EC0FFD1F6491662341F001
:1030C00087E693E00E948307892B11F02196F2CFC7
:1030D0006CE771E087E693E00E94F8178C0F9D1F64
:1030E000DF91CF911F910F9108952F923F924F92B0
:1030F0005F926F927F928F929F92AF92BF92CF9288
:10310000DF92EF92FF921F93CF93DF93EC016A015E
:103110007B01722EAB019601CB01B6010E942331D7
:103120006FE771E0811126C046015701E894B7F8B6
:103130002FEF3FEF4FE75FE7C501B4010E94233156
:1031400081110CC02FEF3FEF4FE75FE7C501B401DE
:103150000E943D2E63E871E0181664F02FEF3FEFF8
:103160004FE75FE4C701B6010E941E311816B4F4A0
:1031700067E871E0CE01DF91CF911F91FF90EF9052
:10318000DF90CF90BF90AF909F908F907F906F9087
:103190005F904F903F902F900C94F8172FEF3FEFD8
:1031A0004FE75FECC701B6010E943D2E87FDE0CFDF
:1031B00020E030E0A901C701B6010E943D2E312C6C
:1031C000212C87FF0DC0E881F9810190F081E02D6D
:1031D0006DE2CE0109951C01F7FAF094F7F8F0942E
:1031E00010E060E070E080E09FE3711641F020E0C5
:1031F00030E040E251E40E9476301F5FF6CFA70135
:1032000096010E940A302B013C010E94EF304B01D5
:103210005C012AE0BC01A401CE010E9407187C01D8
:10322000E20CF31C1123E1F1C501B4010E94422E0E
:103230009B01AC01C301B2010E9409304B015C014A
:10324000E881F9810190F081E02D6EE2CE010995CF
:10325000E80EF91E115020F120E030E040E251E488
:10326000C501B4010E94A32E2B013C010E94EF3046
:103270004B01B12CA12C2AE0B501A401CE010E9482
:103280000718E80EF91EC501B4010E94422E9B01E9
:10329000AC01C301B2010E9409304B015C01DACFDD
:1032A000C701DF91CF911F91FF90EF90DF90CF90FA
:1032B000BF90AF909F908F907F906F905F904F9056
:1032C0003F902F9008950E947F16BC01990F880BA4
:1032D000990B0E94442EAB01BC0140937E04509395
:1032E0007F0460938004709381048CE694E00E94D4
:1032F0004B098CE694E00E943E080E94E8309B0156
:10330000AC012856314041095109A4E6B0E00E94C1
:10331000962F28E230E040E050E00E94772FCA016B
:10332000B9010E94442EAB01BC014093820450932A
:103330008304609384047093850485E794E00E947D
:103340004B098CE694E00E943E08AB01BC0122E0F0
:1033500087E693E00E9475186CE771E087E693E0DA
:103360000E94F81785E794E00E943E080E94EF3023
:10337000862F0895AF92BF92CF92DF92EF92FF9285
:103380000F931F93CF93DF9300915004109151043A
:103390000115110509F473C0D8011B96CC9160E0AA
:1033A00070E080EC9FE7CC2341F1B12CA12CC12C23
:1033B000D12C7601D0E0D8011D96ED91FC91EA0D5B
:1033C000FB1D2081318142815381C701B6010E94DA
:1033D0000A306B017C01DF5FB4E0AB0EB11CCD1392
:1033E000EACF6C2F70E090E080E00E94442E9B01B9
:1033F000AC01C701B6010E9476300E94EF30C62FA3
:1034000081E0809324048093250410921D0410927F
:103410001C0410921F0410921E04C8010E943E0852
:10342000AB01BC0122E080E194E00E94751884E6C3
:1034300090E090931D0480931C0410921F0410923E
:103440001E04C43608F0C3E64C2F50E070E060E084
:103450002AE080E194E00E9407186BE871E080E1C7
:1034600094E00E94F817DF91CF911F910F91FF9088
:10347000EF90DF90CF90BF90AF900C94D90EDF917A
:10348000CF911F910F91FF90EF90DF90CF90BF9061
:10349000AF900895FC0180819181009711F00C9408
:1034A000F23108950F931F93CF93DF93EC0188813E
:1034B0009981009759F02A813B812617370730F010
:1034C00081E0DF91CF911F910F9108958B016F5F84
:1034D0007F4F0E947B32009759F0998388831B832A
:1034E0000A832C813D81232B59F7FC011082E8CF00
:1034F00080E0E7CFEF92FF920F931F93CF93DF937C
:10350000EC01198218821B821A821D821C826115AD
:103510007105E1F08B01FB0101900020E9F7319783
:103520007F01E61AF70AB7010E94521A28813981F1
:10353000811113C02115310519F0C9010E94F23122
:10354000198218821D821C821B821A82DF91CF9100
:103550001F910F91FF90EF900895FD82EC82B801CA
:10356000C901DF91CF911F910F91FF90EF900C94C3
:103570004D330F931F93CF93DF9300D000D000D033
:10358000CDB7DEB70E94D6176DE871E0CE01019687
:103590000E947A1AE0E1F4E081E0848B858B158645
:1035A000148617861686CE0101960E940707CE0163
:1035B00001960E944A1A0E94D90E00E011E08AE9A1
:1035C00095E0F80191838083E9E6F0E080818C7FCB
:1035D0008083E89A30E020E050E040E06AE070E06C
:1035E00082E693E00E94F007E8988BE995E0F80105
:1035F0009183808388E694E00E94731626960FB626
:10360000F894DEBF0FBECDBFDF91CF911F910F9118
:103610000895CF93DF9300D000D000D0CDB7DEB7B0
:103620000E94D6176BEC71E0CE0101960E947A1AC7
:1036300081E0809324048093250410921D0410924D
:103640001C0410921F0410921E04CE0101960E94C9
:103650000707CE0101960E944A1A80918C0464EA01
:1036600071E0811108C080918E046AE971E08823BD
:1036700011F069E971E0CE0101960E947A1A82E0A8
:10368000809324048093250410921D0410921C043E
:103690008CE090E090931F0480931E04CE0101966D
:1036A0000E940707CE0101960E944A1A0E94D90E75
:1036B00026960FB6F894DEBF0FBECDBFDF91CF9137
:1036C0000895CF93DF9300D000D000D0CDB7DEB700
:1036D0000E94D61764EC71E0CE0101960E947A1A1E
:1036E00081E0809324048093250410921D0410929D
:1036F0001C0410921F0410921E04CE0101960E9419
:103700000707CE0101960E944A1A90918D0480917C
:10371000900491112CC061EB71E0882311F06FEAE5
:1037200071E0CE0101960E947A1A82E0809324040F
:103730008093250410921D0410921C048CE090E0EC
:1037400090931F0480931E04CE0101960E940707E8
:10375000CE0101960E944A1A0E94D90E26960FB6F3
:10376000F894DEBF0FBECDBFDF91CF91089569EB16
:1037700071E08823B1F26BEB71E0D3CFEF92FF924F
:103780000F931F93CF93DF93EC017B01FB0101901B
:103790000020E9F731978F01061B170BB8010E9433
:1037A000521A28813981811113C02115310519F070
:1037B000C9010E94F231198218821D821C821B826B
:1037C0001A82DF91CF911F910F91FF90EF90089592
:1037D0001D830C83B701C901DF91CF911F910F9118
:1037E000FF90EF900C944D33CF93DF9300D000D037
:1037F00000D0CDB7DEB70E94D6176EE771E0CE01DC
:1038000001960E947A1A80918804909189046AED49
:1038100071E08230910559F063EE71E084309105DA
:1038200031F064ED71E0019711F06EE771E0CE01C7
:1038300001960E94BE1B82E080932404809325049D
:1038400010921D0410921C048CE090E090931F04D1
:1038500080931E04CE0101960E9407070E94BA19A8
:103860000E94D90ECE0101960E944A1A26960FB6E2
:10387000F894DEBF0FBECDBFDF91CF9108950F93B7
:103880001F93CF93DF93CDB7DEB729970FB6F89488
:10389000DEBF0FBECDBF8C01862FF80111821082D2
:1038A00013821282158214824AE0BE016F5F7F4F3D
:1038B00090E00E94132EBE016F5F7F4FC8010E94EF
:1038C000BE1B29960FB6F894DEBF0FBECDBFDF91A9
:1038D000CF911F910F910895CF92DF92EF92FF92B7
:1038E0000F931F93CF93DF93CDB7DEB72E970FB60D
:1038F000F894DEBF0FBECDBF0E94D6176BEE71E00D
:10390000CE0101960E947A1A80E1E82E84E0F82E1A
:1039100081E0F701848B858B1586148617861686C1
:10392000CE0101960E940707CE0101960E944A1A15
:1039300088E0EAE0F1E0DE01119601900D928A95AF
:10394000E1F7E0919504EC0FFD2FF11D608170E02F
:1039500001E010E029E030E04FE150E0C7010E94B3
:10396000DC0A60919604CE0109960E943F1C12E089
:10397000F701148B158B158614869FE0C92ED12C68
:10398000D786C686CE0109960E940707CE01099602
:103990000E944A1A60919704CE0109960E943F1C2A
:1039A000F701148B158B8CE090E095878487D78680
:1039B000C686CE0109960E940707CE0109960E948D
:1039C0004A1A67E971E0CE0109960E947A1AF70156
:1039D000148B158B84E190E095878487D786C68603
:1039E000CE0109960E940707CE0109960E944A1A45
:1039F00060919804CE0109960E943F1CF701148B38
:103A0000158B8EE190E095878487D786C686CE0198
:103A100009960E940707CE0109960E944A1A6091F2
:103A20009904CE0109960E943F1CF701148B158B57
:103A30008AE290E095878487D786C686CE0109966C
:103A40000E940707CE0109960E944A1A67E971E0B1
:103A5000CE0109960E947A1AF701148B158B82E326
:103A600090E095878487D786C686CE0109960E9406
:103A70000707CE0109960E944A1A60919A04CE0166
:103A800009960E943F1CF701148B158B8CE390E084
:103A900095878487D786C686CE0109960E94070738
:103AA000CE0109960E944A1A60919B04CE010996A4
:103AB0000E943F1CF701148B158B88E490E09587DA
:103AC0008487D786C686CE0109960E940707CE0155
:103AD00009960E944A1A60919C04CE0109960E94A0
:103AE0003F1CF701148B158B84E590E09587848744
:103AF000D786C686CE0109960E940707CE01099691
:103B00000E944A1A60919D04CE0109960E943F1CB2
:103B1000F701148B158B80E690E095878487D78614
:103B2000C686CE0109960E940707CE0109960E941B
:103B30004A1A0E94D90E2E960FB6F894DEBF0FBE19
:103B4000CDBFDF91CF911F910F91FF90EF90DF904C
:103B5000CF900895EF92FF920F931F93CF93DF932F
:103B600000D000D000D0CDB7DEB70E94D6176AEFE4
:103B700071E0CE0101960E947A1A81E080932404BC
:103B80008093250410921D0410921C0410921F04AF
:103B900010921E04CE0101960E940707CE010196E5
:103BA0000E944A1A80919404813061F401E010E08F
:103BB00029E030E04FE150E070E060E080E194E027
:103BC0000E94DC0A60919104CE0101960E943F1C84
:103BD00012E0109324041093250410921D041092F7
:103BE0001C048FE0E82EF12CF0921F04E0921E04DA
:103BF000CE0101960E940707CE0101960E944A1A43
:103C000080919404823040F160919204CE0101963B
:103C10000E943F1C10932404109325048EE190E031
:103C200090931D0480931C04F0921F04E0921E04E4
:103C3000CE0101960E940707CE0101960E944A1A02
:103C400001E010E029E030E04FE150E06EE170E08B
:103C500080E194E00E94DC0A80919404833058F162
:103C600060919304CE0101960E943F1C82E08093F4
:103C70002404809325048CE390E090931D048093AA
:103C80001C048FE090E090931F0480931E04CE01EB
:103C900001960E940707CE0101960E944A1A01E090
:103CA00010E029E030E04FE150E06CE370E080E1AB
:103CB00094E00E94DC0A0E94BA190E94D90E26964E
:103CC0000FB6F894DEBF0FBECDBFDF91CF911F912D
:103CD0000F91FF90EF900895CF92DF92EF92FF92B5
:103CE0000F931F93CF93DF93CDB7DEB76A970FB6CD
:103CF000F894DEBF0FBECDBFF82ED62E0E94D61789
:103D00000F2D10E08D2D90E001969F938F931F92C1
:103D1000FF9288E092E09F938F93CE0101967C0101
:103D20009F938F930E945433B701CE0145960E9412
:103D30007A1A81E0809324048093250410921D0454
:103D400010921C0410921F0410921E04CE0145967E
:103D50000E940707CE0145960E944A1A780191E019
:103D6000E91AF1080FB6F894DEBF0FBECDBFEE0C16
:103D7000FF1CEE0CFF1CD11053C0000F111F000FD1
:103D8000111FF801E654FB4F6081CE0145960E9459
:103D90003F1C13E0109324041093250410921D047B
:103DA00010921C043CE0C32ED12CD0921F04C09270
:103DB0001E04CE0145960E940707CE0145960E943B
:103DC0004A1AF701EA57FB4F61ADCE0145960E94B2
:103DD0003F1C109324041093250480E490E09093FA
:103DE0001D0480931C04D0921F04C0921E04CE01B7
:103DF00045960E940707CE0145960E944A1A0E94E6
:103E0000D90E6A960FB6F894DEBF0FBECDBFDF9114
:103E1000CF911F910F91FF90EF90DF90CF90089579
:103E200087010A571B4FF80162ADCE0145960E94EB
:103E30003F1C83E0F82EF0922404F09225041092A7
:103E40001D0410921C049CE0C92ED12CD0921F049A
:103E5000C0921E04CE0145960E940707CE014596EA
:103E60000E944A1AF80163ADCE0145960E943F1C9C
:103E7000F0922404F0922504B0CF0F931F93CF93B8
:103E8000DF93CDB7DEB762970FB6F894DEBF0FBEF3
:103E9000CDBF8C01CB01F8011182108213821282F6
:103EA000158214824AE0BE016F5F7F4F0E94082E88
:103EB000BE016F5F7F4FC8010E94BE1B62960FB6A6
:103EC000F894DEBF0FBECDBFDF91CF911F910F9150
:103ED000089585ED8093BC008091E3029091E40207
:103EE000A091E502B091E6020796A11DB11D23E065
:103EF000B695A795979587952A95D1F72091BC00FF
:103F000024FD03C010922C0308954091E3025091C8
:103F1000E4026091E5027091E602452B462B472BA7
:103F200069F30097A105B10541F02AE22A95F1F75E
:103F300000C00197A109B109E1CF8091E2020C9480
:103F40002A0C0C94692F1F920F920FB60F92112416
:103F50002F933F938F939F93AF93BF9380915A0377
:103F600090915B03A0915C03B0915D033091590384
:103F700023E0230F2D3758F50196A11DB11D209385
:103F8000590380935A0390935B03A0935C03B0930F
:103F90005D0380915E0390915F03A0916003B091F7
:103FA00061030196A11DB11D80935E0390935F0391
:103FB000A0936003B0936103BF91AF919F918F91E4
:103FC0003F912F910F900FBE0F901F90189526E8EC
:103FD000230F0296A11DB11DD2CF1F920F920FB6D3
:103FE0000F9211242F933F934F935F936F937F937F
:103FF0008F939F93AF93BF93EF93FF93E091020151
:10400000F09103010995FF91EF91BF91AF919F91BD
:104010008F917F916F915F914F913F912F910F9071
:104020000FBE0F901F9018951F920F920FB60F9210
:1040300011242F933F934F935F936F937F938F93AD
:104040009F93AF93BF93EF93FF93E0910001F091A3
:1040500001010995FF91EF91BF91AF919F918F91D0
:104060007F916F915F914F913F912F910F900FBE74
:104070000F901F9018951F920F920FB60F92112458
:104080002F933F934F935F936F937F938F939F9360
:10409000AF93BF93EF93FF9387E693E00E9461078E
:1040A000FF91EF91BF91AF919F918F917F916F9110
:1040B0005F914F913F912F910F900FBE0F901F90E6
:1040C00018951F920F920FB60F9211242F938F9372
:1040D0009F93EF93FF93E0917703F09178038081B2
:1040E000E0917D03F0917E0382FD1BC09081809161
:1040F00080038F5F8F7320918103821741F0E091DD
:104100008003F0E0E959FC4F958F80938003FF9185
:10411000EF919F918F912F910F900FBE0F901F9055
:1041200018958081F4CF1F920F920FB60F92112431
:104130008F930FB6F894A895809160008861809362
:104140006000109260000FBE8F910F900FBE0F9015
:104150001F9018951F920F920FB60F9211242F9354
:104160003F934F935F936F937F938F939F93AF93FF
:10417000BF93EF93FF938091B900887F803609F455
:104180004AC0F0F5883209F4A7C018F5803109F467
:104190009BC0B8F4882309F4F9C0883009F494C0AE
:1041A000FF91EF91BF91AF919F918F917F916F910F
:1041B0005F914F913F912F910F900FBE0F901F90E5
:1041C0001895883109F488C0803251F780932B0309
:1041D00014C0803409F49DC040F48033B9F38833AF
:1041E000F9F680932B0385ECB0C0803509F485C0C7
:1041F000883509F496C0883499F60E94691FD0CF9B
:10420000883909F48CC038F5883729F050F488369D
:1042100011F0803729F683E080932C0310922A0353
:1042200057C0883809F47BC0803919F0803809F00C
:10423000B7CF80912A03803208F071C0E0912A0341
:1042400081E08E0F80932A038091BB00F0E0E65F4F
:10425000FC4F80833DC0803B39F0E0F4803A09F4A4
:1042600079C0883A09F09CCF84E080932C031092A7
:10427000090310920803E0915303F0915403099548
:104280008091080381110FC081E080930803109290
:10429000E80209C0803C09F4A6CF883C09F4A3CF0A
:1042A000883B09F07DCFE091090381E08E0F809378
:1042B0000903F0E0E851FD4F80818093BB009091AD
:1042C00009038091080329C0809151038093BB00AA
:1042D00085EC8093BC0064CF9091500380914F0394
:1042E000981758F5E091500381E08E0F80935003AA
:1042F000F0E0E15DFC4F8081E9CFE091500381E087
:104300008E0F809350038091BB00F0E0E15DFC4F85
:1043100080839091500380914F039817C8F285E8ED
:10432000D8CFE091500381E08E0F809350038091AD
:10433000BB00F0E0E15DFC4F808380912E03811192
:104340005CCF81E080932D0384EA8093BC001092BF
:104350002C0326CF85EC8093BC0010922C03809117
:104360002A03803230F4E0912A03F0E0E65FFC4F4C
:10437000108260912A0370E0E0915503F09156039A
:104380008AE093E0099510922A030ACF10922B033A
:1043900034CFCF93DF93EC01188684E1898380E5E5
:1043A00090E00E9456319D838C8384E190E00E94CE
:1043B00056319F838E83CE01DF91CF910C946C098F
:1043C000CF9310926A031092690388EE93E0A0E005
:1043D000B0E080936B0390936C03A0936D03B09354
:1043E0006E0320E331E0309368032093670325ECEC
:1043F00030E0309374032093730324EC30E0309367
:1044000076032093750320EC30E0309378032093FB
:10441000770321EC30E030937A032093790322EC88
:1044200030E030937C0320937B0326EC30E0309324
:104430007E0320937D0310928003109281031092DB
:104440008203109283031092070410920604809353
:10445000080490930904A0930A04B0930B0482E427
:1044600091E0909305048093040410921304109239
:10447000120420E830E0309315042093140480E205
:1044800090E09093170480931604309319042093BE
:10449000180490931B0480931A041092260410921F
:1044A0001D0410921C0410921F0410921E04C1E0FF
:1044B000C0932504C09324048FEF9FEF90932304AF
:1044C000809322049093210480932004C0932704B6
:1044D0001092280410922A041092290484E591E095
:1044E000909311048093100410922C0410922B04CA
:1044F00084E094E090932E0480932D041092300475
:1045000010922F048FEF80933404809335048093AE
:104510003604809337048093380480E89AE1A6E05B
:10452000B0E08093450490934604A0934704B09371
:10453000480480EA96E8A1E0B0E0809349049093B3
:104540004A04A0934B04B0934C0480E580934E043E
:1045500010924F0410925104109250040E94A5062C
:1045600070935304609352041092550410925404B3
:10457000109256048CE090E0909358048093570476
:1045800010925A041092590462E00E941D060E9483
:10459000A50670935C0460935B0410925E04109215
:1045A0005D0410925F0482E090E090936104809338
:1045B0006004109263041092620462E00E941D067F
:1045C00080EC97E2A9E0B0E08093640490936504E6
:1045D000A0936604B09367040E94A50660936804E4
:1045E0007093690480936A0490936B048CE694E062
:1045F0000E94C92185E794E00E94C92110927E049F
:1046000010927F0410928004109281041092820410
:1046100010928304109284041092850410928704EF
:104620001092860481E090E090938904809388043E
:1046300010928B0410928A0410928C0410928D04B4
:1046400010928E0484E080938F04C093900485E0E0
:10465000809391048093920480939304C093940474
:10466000C0939504C0939604809397041092980485
:1046700080939904C0939A0499E090939B0480934B
:104680009C0480939D0410929E0483E080939F0479
:104690001092A0049093A1041092A204C093A304CA
:1046A0001092A4049093A5041092A60482E0809333
:1046B000A7041092A8049093A9041092AA049093BE
:1046C000AB041092AC049093AD0482E28093CE04CC
:1046D00090E080E0DC01A255BB4F30E020E0BC015F
:1046E0006453754FFB01E20FF31F459154914D93B5
:1046F0001F961C921F972F5F3F4F2430310591F773
:1047000004968031910531F781E08093CF041092B7
:10471000D0041092D1041092D2041092D3041092BB
:10472000D4041092D5040E94A5066093D704709318
:10473000D8048093D9049093DA041092DB04109289
:10474000DC041092DD041092DE04CF910895CF9323
:10475000DF93CDB7DEB7AE970FB6F894DEBF0FBECE
:10476000CDBF789484B5826084BD84B5816084BDFA
:1047700085B5826085BD85B5816085BD80916E00FF
:10478000816080936E001092810080918100826030
:10479000809381008091810081608093810080916D
:1047A00080008160809380008091B100846080935C
:1047B000B1008091B00081608093B00080917A0058
:1047C000846080937A0080917A00826080937A007E
:1047D00080917A00816080937A0080917A0080686D
:1047E00080937A001092C100E0917703F0917803F2
:1047F00082E08083E0917303F09174031082E09172
:104800007503F09176038FEC808310927F03E09123
:104810007B03F0917C0386E08083E0917903F09143
:104820007A03808180618083E0917903F0917A033B
:10483000808188608083E0917903F0917A038081A0
:1048400080688083E0917903F0917A0380818F7D85
:10485000808360ED77E080E090E00E947306109224
:1048600058031092570310926403109263030E943E
:104870000C0C88ED96E0909354038093530389EDDC
:1048800096E0909356038093550390E080E00E9459
:10489000612F813009F04DC08AE090E00E94612FC5
:1048A00080938F0484E190E00E94612F91E0811158
:1048B00001C090E0909390048EE190E00E94612FFF
:1048C00091E0811101C090E090938E0468EE73E056
:1048D00080E090E00E94730680912F049091300454
:1048E000892B09F03EC02091160430911704C901AC
:1048F000079697FD0796B3E095958795BA95E1F7EA
:104900002091140430911504AC01429FC001439FD3
:10491000900D529F900D11240E94563190933004B7
:1049200080932F04892BE9F48AE29AE00E945318BD
:10493000FFCF61E090E080E00E94A11F60918F04B2
:104940008AE090E00E94A11F6091900484E190E0D1
:104950000E94A11F60918E048EE190E00E94A11F31
:10496000B5CF0E94D617209116043091170480917C
:10497000140490911504B901213231050CF4BDC322
:104980006054710977FF02C06F5F7F4F759567951F
:104990008255910997FD019600E410E022E530E090
:1049A0004AE657E0959587950E94611582E08093CD
:1049B000320480912D0490912E04892B09F4B0C308
:1049C0008CE3809331041092580310925703109295
:1049D0006403109263030E940C0C88ED96E09093A0
:1049E00054038093530389ED96E09093560380938C
:1049F00055038091380487FD1EC061E00E941D06AA
:104A000061E0809138040E94EF0561E070E080E091
:104A100090E00E94730660E0809138040E94EF05E8
:104A20006AE070E080E090E00E94730661E08091AF
:104A300038040E94EF0580912D0490912E04892B5B
:104A400009F42DC460914504709146048091470497
:104A5000909148040E94F90B64E086E895E00E947A
:104A6000BF0D60911604615080E194E00E94740EC5
:104A700064E082E895E00E94BF0D8091320460E11D
:104A8000813009F064E180E194E00E94740E64E0FA
:104A90008EE795E00E94BF0D8FE880934D048091D2
:104AA0001404909115048038910509F011C4809187
:104AB0001604909117048034910509F019C480916F
:104AC0003204813009F002C48FE980934D0412E171
:104AD0006AED80E194E00E94740E612F80E194E021
:104AE0000E94740E61E880E194E00E94740E60916F
:104AF0004D0480E194E00E94740E69ED80E194E041
:104B00000E94740E8091320462E2813009F061EFFC
:104B100080E194E00E94740E66E088E795E00E94D0
:104B2000BF0D80912D0490912E04892B09F4E4C3CC
:104B30006091490470914A0480914B0490914C0417
:104B40000E94F90B68EE73E080E090E00E9473062B
:104B50000E94D61781E090E0909323048093220472
:104B6000909321048093200462E080E194E00E940D
:104B70007B1080918E0460E0811101C062E080E1D1
:104B800094E00E947B1088E694E00E9473160E94D5
:104B900063198CE694E09093510480935004109232
:104BA0008B0410928A040E94F41B8E010F5F1F4F2A
:104BB000E8E4EE2EE2E0FE2EFCE06F2E712CA4E184
:104BC000AA2EB12C5524539472E0272E312C8091BB
:104BD00057040E94C60561E02091590430915A049F
:104BE0002817390709F060E082E594E00E946F170A
:104BF000809160040E94C60561E0209162043091BA
:104C000063042817390709F060E08BE594E00E94FF
:104C10006F170E94A5062091DB043091DC044091BF
:104C2000DD045091DE04621773078407950708F4CA
:104C300051C2809156048823D1F080915404909100
:104C400055040597A1F488E694E00E9473168091BC
:104C50008A0490918B048230910509F40EC408F007
:104C600055C3009709F46AC3019709F4D8C380912A
:104C70005604882381F0809154049091550407973D
:104C800051F488E694E00E94731610928B041092FF
:104C90008A040E94F41B809156048823D1F08091ED
:104CA0005404909155040897A1F488E694E00E947A
:104CB000731680918A0490918B048230910509F4D7
:104CC0008AC408F010C4009709F424C4019709F4B9
:104CD0007EC480915F048823D1F080915D0490911F
:104CE0005E040597A1F488E694E00E947316809113
:104CF0008A0490918B048230910509F4C2C408F0B3
:104D000088C4009709F49CC4019709F4D0C4809129
:104D10005F04882309F474C180915D0490915E045E
:104D2000079709F056C188E694E00E9473168091B7
:104D30008A0490918B04019709F047C180919004F7
:104D400081117CC0209196049AE080919704299F5C
:104D5000800D112420919804A0919904299FA00D01
:104D6000112430919A0420919B04399F200D112425
:104D700030919C04E0919D04399FE00D1124F0E0F6
:104D800054E6259FE00DF11D1124A33008F431975E
:104D9000B0E0A15EBE4F2C91280F3327331F2E0F9A
:104DA0003F1FBF017695679576956795260F371F4C
:104DB000CF0160E971E00E942831260F371FCF0133
:104DC00064E670E00E942831C901861B970B67E0FA
:104DD00070E00E9428316C018EE0E2E1F1E0D80140
:104DE00001900D928A95E1F70E94D617CC0CDD1C3C
:104DF000F801EC0DFD1D60817181CE0189960E9444
:104E00007A1A82E0809324048093250410921D0472
:104E100010921C0470921F0460921E04CE018996A9
:104E20000E940707CE0189960E944A1A0E94D90E55
:104E300068EB7BE080E090E00E94730680918F0435
:104E4000843009F082C080919004882309F475C4ED
:104E50008091910490919404923009F059C4C090CB
:104E60009204D12C9AE0899FC00CD11C1124A60178
:104E700070E060E02AE087E693E00E9407186CE7A4
:104E800071E087E693E00E94F8173091CE042091FC
:104E90008F04C601831B9109622F70E00E943C3190
:104EA000C31AC60E269FC01811248091AE04860F27
:104EB0008093BE048091AF04860F8093BF048091DD
:104EC000B004860F8093C0048091B1048C0D809350
:104ED000C1048091B204860F8093C2048091B30410
:104EE0008C0D8093C3048091B404860F8093C40416
:104EF0008091B504860F8093C5048091B6048C0D13
:104F00008093C6048091B704860F8093C704809174
:104F1000B804860F8093C8048091B904860F8093EB
:104F2000C9048091BA04860F8093CA048091BB049F
:104F3000860F8093CB048091BC04C80EC092CC0431
:104F40008091BD04680F6093CD0486E59AE00E94CD
:104F5000531830E1832E34E0932E44E0442ED12CBC
:104F6000C12CF601E255FF4FE80DF91D408150E0DC
:104F700070E060E02AE087E693E00E94071869E0AD
:104F800087E693E00E9483074FEFC41AD40A54E0E7
:104F9000C516D10431F76CE771E087E693E00E9413
:104FA000F8174A9484E0880E911C4110D8CF8FE303
:104FB0009AE00E94531860E081E00E946C1E25E098
:104FC00030E030938B0420938A0480915F0488231F
:104FD000B9F080915D0490915E04089789F488E6A9
:104FE00094E00E94731680918A0490918B04813022
:104FF000910509F41CC408F4F2C3059709F434C4FC
:105000000E94A5062091D7043091D8044091D9047C
:105010005091DA04621B730B840B950B60367A4E49
:105020008105910560F00E94A5066093D7047093F6
:10503000D8048093D9049093DA040E946319809174
:105040008E0460E0811101C062E080E194E00E9482
:105050007B100E94A506209168043091690440915C
:105060006A0450916B04621B730B840B950B2091A7
:1050700064043091650440916604509167042617DA
:1050800037074807590730F58EEA0E94F40F0E944F
:10509000B91A0E94B1068823E9F088E694E00E94DC
:1050A00073168FEA0E94F40F0E94AB1610928B04C5
:1050B00010928A040E94F41B0E94A50668517C4F3E
:1050C0008F4F9F4F6093DB047093DC048093DD046B
:1050D0009093DE0462E370E080E090E00E9473064B
:1050E00080E090E0892B09F472CD0E944D0788235F
:1050F00009F468CD0E94000065CD6052710977FF08
:1051000002C06F5F7F4F759567958357910997FD33
:10511000019600E210E023E730E04AE855E042CC97
:1051200061E0809136040E941D0661E080913704A1
:105130000E941D0680913604082E000C990BFC017C
:10514000E557F54FE491F0E0EE0FFF1FE958F54FFA
:105150002591349130933E0420933D04FC01E156A7
:10516000F54FE491E093430480913704082E000C3E
:10517000990BFC01E557F54FE491F0E0EE0FFF1FAE
:10518000E958F54FA591B491B0934004A0933F0422
:10519000FC01E156F54FE491E09344048C91E82B37
:1051A000EC9380912B0490912C04892B09F434C04A
:1051B0001FB7F89480915203811127C0E5E9FAE006
:1051C0008491E9EAFAE09491E82FF0E0EE0FFF1FF6
:1051D000E359F54FA591B491EC91E92321F461E0F5
:1051E0008AE00E94EF0561E08AE00E941D068CB50E
:1051F00080618CBD8CB580648CBD61E08DE00E94C7
:105200001D0661E08BE00E941D06809152038F5FB6
:10521000809352031FBFEDCB61E0809134040E9464
:105220001D0661E0809135040E941D0680913404C2
:10523000082E000C990BFC01E557F54FE491F0E0C6
:10524000EE0FFF1FE958F54F2591349130933A0442
:1052500020933904FC01E156F54FE491E0934104B9
:1052600080913504082E000C990BFC01E557F54F91
:10527000E491F0E0EE0FFF1FE958F54FA591B491CE
:10528000B0933C04A0933B04FC01E156F54FE4913C
:10529000E09342048C91E095E823EC93AACB8091B3
:1052A0002B0490912C04892B31F080914E04909125
:1052B0004F040E94D60EE0913F04F091400490818B
:1052C00080914404809589238083C6CB8FECFDCBED
:1052D0008036910569F480911604909117044097E7
:1052E00039F480913204813029F480E180934D04B7
:1052F00012E0EECB8FEAFACFE0913F04F091400448
:10530000808190914404892B80831CCC843091054A
:1053100009F4E2C008F4D4C0059709F0A8CC809144
:10532000D50490E00796877099278093D504682F5D
:10533000617086958F5F0E946C1E99CC8091880465
:10534000909189048230910599F084309105B9F0EB
:105350008130910509F08BCC90938B0480938A0463
:1053600080919004882309F485C00E94AA1D7FCCF7
:1053700090938B0480938A040E94091B78CC9093AD
:105380008B0480938A040E94D61769E172E0C801F9
:105390000E947A1A509224045092250410921D04FF
:1053A00010921C0410921F0410921E04C8010E9447
:1053B0000707C8010E944A1A65E272E0C8010E940C
:1053C0007A1A509224045092250410921D041092CF
:1053D0001C048AE090E090931F0480931E04C8018F
:1053E0000E940707C8010E944A1A63E372E0C801DD
:1053F0000E947A1A509224045092250410921D049F
:1054000010921C04B0921F04A0921E04C8010E94B6
:105410000707C8010E944A1A0E94D90E28CC809121
:105420009004882321F180919504813049F4809182
:105430009104882309F499CF81508093910495CFEA
:10544000823049F480919204882309F48ECF8150F0
:10545000809392048ACF833009F087CF80919304A0
:10546000882309F482CF8150809393047ECF80E01B
:105470000E94FF160E946C1CFACB80918C04811153
:1054800016C060918E04652560938E048EE190E0D5
:105490000E94A11F80918E0460E0811101C062E032
:1054A00080E194E00E947B100E94091B65CF83E09D
:1054B00090E090938B0480938A040E94611BD7CB69
:1054C00061E080918D04811160E06093900484E13B
:1054D00090E00E94A11FF1CF10928B0410928A04D9
:1054E0000E94F41BC4CB8430910509F474C008F405
:1054F00089C0059709F0EDCB81E090E090938B0493
:1055000080938A0480919004882309F478C00E94D3
:10551000AA1DDFCB85E08093910480939204809351
:105520009304509294045092950450929604809360
:105530009704109298048093990450929A0499E0E9
:1055400090939B0480939C0480939D04EEEBF4E085
:105550008EEC94E0108211821282138234968E17A0
:105560009F07C1F75092CF041092D0041092D1043B
:105570001092D2041092D3041092D4041092D50445
:105580000E94AB160E94D61762E472E0C8010E9426
:105590007A1A82E0809324048093250410921D04DB
:1055A00010921C0470921F0460921E04C8010E9495
:1055B0000707C8010E944A1A0E94D90E68EE73E0DC
:1055C00080E090E00E9473060E94F41B82CB8091E1
:1055D0009504813029F410928B0410928A04F4CF40
:1055E000815090919004992341F0909194049150AE
:1055F00090939404809395048ACF809395040E949D
:105600006C1C67CB30928B0420928A040E94091B89
:1056100060CB8430910509F476C0F0F1059709F06C
:1056200076CB8091D50490E001968770992780937E
:10563000D504682F617086958F5F0E946C1E67CBC2
:1056400080918804909189048130910539F43092D9
:105650008904209288040E94F41B59CB8230910562
:1056600039F424E030E03093890420938804F3CFA8
:10567000049789F741E050E05093890440938804EF
:10568000EACF80918C0490E00196817099278093F5
:105690008C040E94091B3BCB80918D0490E0019605
:1056A0008170992780938D040E94611B30CB80917B
:1056B0009004882311F180919504813051F48091F8
:1056C0009104893018F48F5F809391040E94AA1D81
:1056D0001ECB823041F4809192048930B8F78F5FFD
:1056E00080939204F3CF833089F7809193048930BB
:1056F00068F78F5F80939304E9CF81E00E94FF16E3
:105700000E946C1C04CB10928B0410928A04A3CFCD
:10571000C82ED12C933009F0AACB9091920424E6A4
:10572000829F600111243AE0939FC00CD11C112488
:1057300080919304C80ED11C9ACB809196044AE0C4
:1057400090919704849F900D11242091980480914A
:105750009904249F800D112420919A0430919B0478
:10576000249F300D112450919C0420919D04549F3E
:10577000200D11249093BE048093BF043093C00485
:105780002093C10441E0420F4093C2044FEF430F06
:105790004093C3044DEF480F4093C40443E0490FC6
:1057A0004093C5044EEF480F4093C60442E0490FB2
:1057B0004093C70442E0420F4093C8044EEF430FAA
:1057C0004093C9043F5F3093CA0421502093CB0417
:1057D0009F5F9093CC0481508093CD04B6CB8EEA2A
:1057E0000E94F40F0E94B91A0E94B106882309F49E
:1057F00007CC88E694E00E9473168FEA0E94F40FAB
:105800000E94AB1610928B0410928A040E94F41B23
:105810000E94A50668517C4F8F4F9F4F6093DB0419
:105820007093DC048093DD049093DE04E9CB8091D7
:105830009004882379F080919404833040F48F5F42
:1058400080939404809195048F5F809395040E94C7
:10585000AA1DD6CB80919504883019F08F5F809374
:1058600095040E946C1CCCCB8091D204833008F14B
:105870001092D2048091CF04882361F08091D004EB
:105880008F5F8093D0048430A0F01092CF041092E8
:10589000D1040FC08091D304811184C08091D104C0
:1058A0008F5F8093D104843020F05092D304109203
:1058B000D4040E94D6178091D304811117C190910E
:1058C000D2048091CF04882309F4ACC0E091D004C5
:1058D000F0E0EA57FB4F80AD34ADDF01A05CBF4F75
:1058E0002C91913009F481C008F46BC0923009F416
:1058F00088C061E572E0CE0189960E947A1A5092C2
:1059000024045092250410921D0410921C0410923D
:105910001F0410921E04CE0189960E940707CE0133
:1059200089960E944A1A6091D00470E06F5F7F4FA1
:10593000CE0189960E943D1F509224045092250466
:10594000B0921D04A0921C0410921F0410921E0419
:10595000CE0189960E940707CE0189960E944A1AB5
:10596000B801CE0189960E947A1A82E080932404BD
:105970008093250410921D0410921C0470921F0441
:1059800060921E04CE0189960E940707CE01899677
:105990000E944A1A0E94D90E8091D2048F5F809390
:1059A000D2042ECB8091D4048F5F8093D4048230B4
:1059B00008F47FCF1092D3045092CF041092D004F9
:1059C00066CF982F930F1F929F931F923F931F9222
:1059D0008F93FF92EF921F930F930E9454330FB651
:1059E000F894DEBF0FBECDBF84CF982F930F920FD8
:1059F0001F929F931F922F93830F9927991F9F9315
:105A0000E7CFEC5BFF4F4081982F930F920F940FDD
:105A10001F929F931F924F93830F9927991F820F75
:105A2000911DEDCFE091D104F0E0DF01AA0FBB1F83
:105A3000AA0FBB1FA254BB4F8C91EE0FFF1FEE0F9E
:105A4000FF1FEA57FB4F31AD22AD9130A1F1F8F0C5
:105A50009230E9F166E572E0CE0189960E947A1AE9
:105A6000509224045092250410921D0410921C049C
:105A700010921F0410921E04CE0189960E940707FF
:105A8000CE0189960E944A1A6091D1044ECF982F78
:105A9000930F1F929F931F923F931F928F93FF929A
:105AA000EF921F930F930E9454330FB6F894DEBF0A
:105AB0000FBECDBFCFCF982F930F920F1F929F9302
:105AC0001F922F93830F9927991F9F93E7CF43AD81
:105AD000982F930F920F940F1F929F931F924F93A3
